{
	"FinalExam.sol": {
		"Slashing": {
			"abi": [
				{
					"anonymous": false,
					"inputs": [
						{
							"indexed": true,
							"internalType": "address",
							"name": "staker",
							"type": "address"
						},
						{
							"indexed": false,
							"internalType": "uint256",
							"name": "rewardAmount",
							"type": "uint256"
						}
					],
					"name": "ClaimRewards",
					"type": "event"
				},
				{
					"anonymous": false,
					"inputs": [
						{
							"indexed": true,
							"internalType": "address",
							"name": "staker",
							"type": "address"
						},
						{
							"indexed": false,
							"internalType": "uint256",
							"name": "amount",
							"type": "uint256"
						}
					],
					"name": "Deposit",
					"type": "event"
				},
				{
					"anonymous": false,
					"inputs": [
						{
							"indexed": true,
							"internalType": "address",
							"name": "stakerAddress",
							"type": "address"
						},
						{
							"indexed": false,
							"internalType": "uint256",
							"name": "amount",
							"type": "uint256"
						}
					],
					"name": "PenaltyApplied",
					"type": "event"
				},
				{
					"anonymous": false,
					"inputs": [
						{
							"indexed": true,
							"internalType": "address",
							"name": "staker",
							"type": "address"
						},
						{
							"indexed": false,
							"internalType": "uint256",
							"name": "amount",
							"type": "uint256"
						}
					],
					"name": "Withdraw",
					"type": "event"
				},
				{
					"inputs": [],
					"name": "Owner_Address",
					"outputs": [
						{
							"internalType": "address",
							"name": "",
							"type": "address"
						}
					],
					"stateMutability": "view",
					"type": "function"
				},
				{
					"inputs": [],
					"name": "REWARD_RATE",
					"outputs": [
						{
							"internalType": "uint256",
							"name": "",
							"type": "uint256"
						}
					],
					"stateMutability": "view",
					"type": "function"
				},
				{
					"inputs": [],
					"name": "REWARD_TIME",
					"outputs": [
						{
							"internalType": "uint256",
							"name": "",
							"type": "uint256"
						}
					],
					"stateMutability": "view",
					"type": "function"
				},
				{
					"inputs": [],
					"name": "addRewardFunds",
					"outputs": [],
					"stateMutability": "payable",
					"type": "function"
				},
				{
					"inputs": [
						{
							"internalType": "address",
							"name": "stakerAddress",
							"type": "address"
						}
					],
					"name": "calculateReward",
					"outputs": [
						{
							"internalType": "uint256",
							"name": "",
							"type": "uint256"
						}
					],
					"stateMutability": "view",
					"type": "function"
				},
				{
					"inputs": [],
					"name": "claimRewards",
					"outputs": [],
					"stateMutability": "nonpayable",
					"type": "function"
				},
				{
					"inputs": [],
					"name": "deposit",
					"outputs": [],
					"stateMutability": "payable",
					"type": "function"
				},
				{
					"inputs": [],
					"name": "rewardPool",
					"outputs": [
						{
							"internalType": "uint256",
							"name": "",
							"type": "uint256"
						}
					],
					"stateMutability": "view",
					"type": "function"
				},
				{
					"inputs": [
						{
							"internalType": "address",
							"name": "stakerAddress",
							"type": "address"
						},
						{
							"internalType": "uint256",
							"name": "penaltyAmount",
							"type": "uint256"
						}
					],
					"name": "slash",
					"outputs": [],
					"stateMutability": "nonpayable",
					"type": "function"
				},
				{
					"inputs": [],
					"name": "slashingBalance",
					"outputs": [
						{
							"internalType": "uint256",
							"name": "",
							"type": "uint256"
						}
					],
					"stateMutability": "view",
					"type": "function"
				},
				{
					"inputs": [
						{
							"internalType": "address",
							"name": "",
							"type": "address"
						}
					],
					"name": "stakers",
					"outputs": [
						{
							"internalType": "uint256",
							"name": "balance",
							"type": "uint256"
						},
						{
							"internalType": "uint256",
							"name": "lastClaimedTime",
							"type": "uint256"
						}
					],
					"stateMutability": "view",
					"type": "function"
				},
				{
					"inputs": [
						{
							"internalType": "uint256",
							"name": "amount",
							"type": "uint256"
						}
					],
					"name": "withdraw",
					"outputs": [],
					"stateMutability": "nonpayable",
					"type": "function"
				}
			],
			"devdoc": {
				"kind": "dev",
				"methods": {},
				"version": 1
			},
			"evm": {
				"assembly": "    /* \"FinalExam.sol\":3119:3889  contract Slashing is StakingPool{... */\n  mstore(0x40, 0x80)\n  callvalue\n  dup1\n  iszero\n  tag_1\n  jumpi\n  revert(0x00, 0x00)\ntag_1:\n  pop\n    /* \"FinalExam.sol\":934:944  msg.sender */\n  caller\n    /* \"FinalExam.sol\":918:931  Owner_Address */\n  0x00\n  0x00\n    /* \"FinalExam.sol\":918:944  Owner_Address = msg.sender */\n  0x0100\n  exp\n  dup2\n  sload\n  dup2\n  0xffffffffffffffffffffffffffffffffffffffff\n  mul\n  not\n  and\n  swap1\n  dup4\n  0xffffffffffffffffffffffffffffffffffffffff\n  and\n  mul\n  or\n  swap1\n  sstore\n  pop\n    /* \"FinalExam.sol\":3119:3889  contract Slashing is StakingPool{... */\n  dataSize(sub_0)\n  dup1\n  dataOffset(sub_0)\n  0x00\n  codecopy\n  0x00\n  return\nstop\n\nsub_0: assembly {\n        /* \"FinalExam.sol\":3119:3889  contract Slashing is StakingPool{... */\n      mstore(0x40, 0x80)\n      jumpi(tag_1, lt(calldatasize, 0x04))\n      shr(0xe0, calldataload(0x00))\n      dup1\n      0x5997bb37\n      gt\n      tag_14\n      jumpi\n      dup1\n      0x5997bb37\n      eq\n      tag_8\n      jumpi\n      dup1\n      0x66666aa9\n      eq\n      tag_9\n      jumpi\n      dup1\n      0x9168ae72\n      eq\n      tag_10\n      jumpi\n      dup1\n      0xd0e30db0\n      eq\n      tag_11\n      jumpi\n      dup1\n      0xd7bf54b2\n      eq\n      tag_12\n      jumpi\n      dup1\n      0xd82e3962\n      eq\n      tag_13\n      jumpi\n      jump(tag_1)\n    tag_14:\n      dup1\n      0x02fb4d85\n      eq\n      tag_2\n      jumpi\n      dup1\n      0x07236168\n      eq\n      tag_3\n      jumpi\n      dup1\n      0x2e1a7d4d\n      eq\n      tag_4\n      jumpi\n      dup1\n      0x372500ab\n      eq\n      tag_5\n      jumpi\n      dup1\n      0x49b22a9f\n      eq\n      tag_6\n      jumpi\n      dup1\n      0x4ec7b7a3\n      eq\n      tag_7\n      jumpi\n    tag_1:\n      revert(0x00, 0x00)\n        /* \"FinalExam.sol\":3316:3878  function slash(address stakerAddress, uint penaltyAmount) external onlyOwner{... */\n    tag_2:\n      callvalue\n      dup1\n      iszero\n      tag_15\n      jumpi\n      revert(0x00, 0x00)\n    tag_15:\n      pop\n      tag_16\n      0x04\n      dup1\n      calldatasize\n      sub\n      dup2\n      add\n      swap1\n      tag_17\n      swap2\n      swap1\n      tag_18\n      jump\t// in\n    tag_17:\n      tag_19\n      jump\t// in\n    tag_16:\n      stop\n        /* \"FinalExam.sol\":600:644  uint public constant REWARD_TIME = 3 minutes */\n    tag_3:\n      callvalue\n      dup1\n      iszero\n      tag_20\n      jumpi\n      revert(0x00, 0x00)\n    tag_20:\n      pop\n      tag_21\n      tag_22\n      jump\t// in\n    tag_21:\n      mload(0x40)\n      tag_23\n      swap2\n      swap1\n      tag_24\n      jump\t// in\n    tag_23:\n      mload(0x40)\n      dup1\n      swap2\n      sub\n      swap1\n      return\n        /* \"FinalExam.sol\":1806:2121  function withdraw(uint amount) external {... */\n    tag_4:\n      callvalue\n      dup1\n      iszero\n      tag_25\n      jumpi\n      revert(0x00, 0x00)\n    tag_25:\n      pop\n      tag_26\n      0x04\n      dup1\n      calldatasize\n      sub\n      dup2\n      add\n      swap1\n      tag_27\n      swap2\n      swap1\n      tag_28\n      jump\t// in\n    tag_27:\n      tag_29\n      jump\t// in\n    tag_26:\n      stop\n        /* \"FinalExam.sol\":2632:3067  function claimRewards() external {... */\n    tag_5:\n      callvalue\n      dup1\n      iszero\n      tag_30\n      jumpi\n      revert(0x00, 0x00)\n    tag_30:\n      pop\n      tag_31\n      tag_32\n      jump\t// in\n    tag_31:\n      stop\n        /* \"FinalExam.sol\":1157:1332  function addRewardFunds() external payable onlyOwner {... */\n    tag_6:\n      tag_33\n      tag_34\n      jump\t// in\n    tag_33:\n      stop\n        /* \"FinalExam.sol\":90:118  address public Owner_Address */\n    tag_7:\n      callvalue\n      dup1\n      iszero\n      tag_35\n      jumpi\n      revert(0x00, 0x00)\n    tag_35:\n      pop\n      tag_36\n      tag_37\n      jump\t// in\n    tag_36:\n      mload(0x40)\n      tag_38\n      swap2\n      swap1\n      tag_39\n      jump\t// in\n    tag_38:\n      mload(0x40)\n      dup1\n      swap2\n      sub\n      swap1\n      return\n        /* \"FinalExam.sol\":414:450  uint public constant REWARD_RATE = 5 */\n    tag_8:\n      callvalue\n      dup1\n      iszero\n      tag_40\n      jumpi\n      revert(0x00, 0x00)\n    tag_40:\n      pop\n      tag_41\n      tag_42\n      jump\t// in\n    tag_41:\n      mload(0x40)\n      tag_43\n      swap2\n      swap1\n      tag_24\n      jump\t// in\n    tag_43:\n      mload(0x40)\n      dup1\n      swap2\n      sub\n      swap1\n      return\n        /* \"FinalExam.sol\":125:147  uint public rewardPool */\n    tag_9:\n      callvalue\n      dup1\n      iszero\n      tag_44\n      jumpi\n      revert(0x00, 0x00)\n    tag_44:\n      pop\n      tag_45\n      tag_46\n      jump\t// in\n    tag_45:\n      mload(0x40)\n      tag_47\n      swap2\n      swap1\n      tag_24\n      jump\t// in\n    tag_47:\n      mload(0x40)\n      dup1\n      swap2\n      sub\n      swap1\n      return\n        /* \"FinalExam.sol\":364:405  mapping(address => Staker) public stakers */\n    tag_10:\n      callvalue\n      dup1\n      iszero\n      tag_48\n      jumpi\n      revert(0x00, 0x00)\n    tag_48:\n      pop\n      tag_49\n      0x04\n      dup1\n      calldatasize\n      sub\n      dup2\n      add\n      swap1\n      tag_50\n      swap2\n      swap1\n      tag_51\n      jump\t// in\n    tag_50:\n      tag_52\n      jump\t// in\n    tag_49:\n      mload(0x40)\n      tag_53\n      swap3\n      swap2\n      swap1\n      tag_54\n      jump\t// in\n    tag_53:\n      mload(0x40)\n      dup1\n      swap2\n      sub\n      swap1\n      return\n        /* \"FinalExam.sol\":1374:1761  function deposit() external payable {... */\n    tag_11:\n      tag_55\n      tag_56\n      jump\t// in\n    tag_55:\n      stop\n        /* \"FinalExam.sol\":3158:3185  uint public slashingBalance */\n    tag_12:\n      callvalue\n      dup1\n      iszero\n      tag_57\n      jumpi\n      revert(0x00, 0x00)\n    tag_57:\n      pop\n      tag_58\n      tag_59\n      jump\t// in\n    tag_58:\n      mload(0x40)\n      tag_60\n      swap2\n      swap1\n      tag_24\n      jump\t// in\n    tag_60:\n      mload(0x40)\n      dup1\n      swap2\n      sub\n      swap1\n      return\n        /* \"FinalExam.sol\":2163:2596  function calculateReward(address stakerAddress) public view returns (uint) {... */\n    tag_13:\n      callvalue\n      dup1\n      iszero\n      tag_61\n      jumpi\n      revert(0x00, 0x00)\n    tag_61:\n      pop\n      tag_62\n      0x04\n      dup1\n      calldatasize\n      sub\n      dup2\n      add\n      swap1\n      tag_63\n      swap2\n      swap1\n      tag_51\n      jump\t// in\n    tag_63:\n      tag_64\n      jump\t// in\n    tag_62:\n      mload(0x40)\n      tag_65\n      swap2\n      swap1\n      tag_24\n      jump\t// in\n    tag_65:\n      mload(0x40)\n      dup1\n      swap2\n      sub\n      swap1\n      return\n        /* \"FinalExam.sol\":3316:3878  function slash(address stakerAddress, uint penaltyAmount) external onlyOwner{... */\n    tag_19:\n        /* \"FinalExam.sol\":1038:1051  Owner_Address */\n      0x00\n      0x00\n      swap1\n      sload\n      swap1\n      0x0100\n      exp\n      swap1\n      div\n      0xffffffffffffffffffffffffffffffffffffffff\n      and\n        /* \"FinalExam.sol\":1024:1051  msg.sender == Owner_Address */\n      0xffffffffffffffffffffffffffffffffffffffff\n      and\n        /* \"FinalExam.sol\":1024:1034  msg.sender */\n      caller\n        /* \"FinalExam.sol\":1024:1051  msg.sender == Owner_Address */\n      0xffffffffffffffffffffffffffffffffffffffff\n      and\n      eq\n        /* \"FinalExam.sol\":1016:1094  require(msg.sender == Owner_Address, \"Only the owner can perform this action\") */\n      tag_67\n      jumpi\n      mload(0x40)\n      0x08c379a000000000000000000000000000000000000000000000000000000000\n      dup2\n      mstore\n      0x04\n      add\n      tag_68\n      swap1\n      tag_69\n      jump\t// in\n    tag_68:\n      mload(0x40)\n      dup1\n      swap2\n      sub\n      swap1\n      revert\n    tag_67:\n        /* \"FinalExam.sol\":3403:3424  Staker storage staker */\n      0x00\n        /* \"FinalExam.sol\":3427:3434  stakers */\n      0x02\n        /* \"FinalExam.sol\":3427:3450  stakers [stakerAddress] */\n      0x00\n        /* \"FinalExam.sol\":3436:3449  stakerAddress */\n      dup5\n        /* \"FinalExam.sol\":3427:3450  stakers [stakerAddress] */\n      0xffffffffffffffffffffffffffffffffffffffff\n      and\n      0xffffffffffffffffffffffffffffffffffffffff\n      and\n      dup2\n      mstore\n      0x20\n      add\n      swap1\n      dup2\n      mstore\n      0x20\n      add\n      0x00\n      keccak256\n        /* \"FinalExam.sol\":3403:3450  Staker storage staker = stakers [stakerAddress] */\n      swap1\n      pop\n        /* \"FinalExam.sol\":3486:3487  0 */\n      0x00\n        /* \"FinalExam.sol\":3469:3475  staker */\n      dup2\n        /* \"FinalExam.sol\":3469:3483  staker.balance */\n      0x00\n      add\n      sload\n        /* \"FinalExam.sol\":3469:3487  staker.balance > 0 */\n      gt\n        /* \"FinalExam.sol\":3461:3537  require(staker.balance > 0, \"Invalid Staker address or no funds to slash!!\") */\n      tag_71\n      jumpi\n      mload(0x40)\n      0x08c379a000000000000000000000000000000000000000000000000000000000\n      dup2\n      mstore\n      0x04\n      add\n      tag_72\n      swap1\n      tag_73\n      jump\t// in\n    tag_72:\n      mload(0x40)\n      dup1\n      swap2\n      sub\n      swap1\n      revert\n    tag_71:\n        /* \"FinalExam.sol\":3592:3607  uint maxPenalty */\n      0x00\n        /* \"FinalExam.sol\":3627:3628  2 */\n      0x02\n        /* \"FinalExam.sol\":3610:3616  staker */\n      dup3\n        /* \"FinalExam.sol\":3610:3624  staker.balance */\n      0x00\n      add\n      sload\n        /* \"FinalExam.sol\":3610:3628  staker.balance / 2 */\n      tag_74\n      swap2\n      swap1\n      tag_75\n      jump\t// in\n    tag_74:\n        /* \"FinalExam.sol\":3592:3628  uint maxPenalty = staker.balance / 2 */\n      swap1\n      pop\n        /* \"FinalExam.sol\":3664:3674  maxPenalty */\n      dup1\n        /* \"FinalExam.sol\":3647:3660  penaltyAmount */\n      dup4\n        /* \"FinalExam.sol\":3647:3674  penaltyAmount <= maxPenalty */\n      gt\n      iszero\n        /* \"FinalExam.sol\":3639:3716  require(penaltyAmount <= maxPenalty, \"Penalty exceeds the allowed maximum!!\") */\n      tag_76\n      jumpi\n      mload(0x40)\n      0x08c379a000000000000000000000000000000000000000000000000000000000\n      dup2\n      mstore\n      0x04\n      add\n      tag_77\n      swap1\n      tag_78\n      jump\t// in\n    tag_77:\n      mload(0x40)\n      dup1\n      swap2\n      sub\n      swap1\n      revert\n    tag_76:\n        /* \"FinalExam.sol\":3747:3760  penaltyAmount */\n      dup3\n        /* \"FinalExam.sol\":3729:3735  staker */\n      dup3\n        /* \"FinalExam.sol\":3729:3743  staker.balance */\n      0x00\n      add\n      0x00\n        /* \"FinalExam.sol\":3729:3760  staker.balance -= penaltyAmount */\n      dup3\n      dup3\n      sload\n      tag_79\n      swap2\n      swap1\n      tag_80\n      jump\t// in\n    tag_79:\n      swap3\n      pop\n      pop\n      dup2\n      swap1\n      sstore\n      pop\n        /* \"FinalExam.sol\":3790:3803  penaltyAmount */\n      dup3\n        /* \"FinalExam.sol\":3771:3786  slashingBalance */\n      0x03\n      0x00\n        /* \"FinalExam.sol\":3771:3803  slashingBalance += penaltyAmount */\n      dup3\n      dup3\n      sload\n      tag_81\n      swap2\n      swap1\n      tag_82\n      jump\t// in\n    tag_81:\n      swap3\n      pop\n      pop\n      dup2\n      swap1\n      sstore\n      pop\n        /* \"FinalExam.sol\":3837:3850  stakerAddress */\n      dup4\n        /* \"FinalExam.sol\":3821:3866  PenaltyApplied( stakerAddress, penaltyAmount) */\n      0xffffffffffffffffffffffffffffffffffffffff\n      and\n      0x4b28c7dc138644f27518388387393ecbd08ef8d180a4a6799c954be166a37ab3\n        /* \"FinalExam.sol\":3852:3865  penaltyAmount */\n      dup5\n        /* \"FinalExam.sol\":3821:3866  PenaltyApplied( stakerAddress, penaltyAmount) */\n      mload(0x40)\n      tag_83\n      swap2\n      swap1\n      tag_24\n      jump\t// in\n    tag_83:\n      mload(0x40)\n      dup1\n      swap2\n      sub\n      swap1\n      log2\n        /* \"FinalExam.sol\":3392:3878  {... */\n      pop\n      pop\n        /* \"FinalExam.sol\":3316:3878  function slash(address stakerAddress, uint penaltyAmount) external onlyOwner{... */\n      pop\n      pop\n      jump\t// out\n        /* \"FinalExam.sol\":600:644  uint public constant REWARD_TIME = 3 minutes */\n    tag_22:\n        /* \"FinalExam.sol\":635:644  3 minutes */\n      0xb4\n        /* \"FinalExam.sol\":600:644  uint public constant REWARD_TIME = 3 minutes */\n      dup2\n      jump\t// out\n        /* \"FinalExam.sol\":1806:2121  function withdraw(uint amount) external {... */\n    tag_29:\n        /* \"FinalExam.sol\":1857:1878  Staker storage staker */\n      0x00\n        /* \"FinalExam.sol\":1881:1888  stakers */\n      0x02\n        /* \"FinalExam.sol\":1881:1900  stakers[msg.sender] */\n      0x00\n        /* \"FinalExam.sol\":1889:1899  msg.sender */\n      caller\n        /* \"FinalExam.sol\":1881:1900  stakers[msg.sender] */\n      0xffffffffffffffffffffffffffffffffffffffff\n      and\n      0xffffffffffffffffffffffffffffffffffffffff\n      and\n      dup2\n      mstore\n      0x20\n      add\n      swap1\n      dup2\n      mstore\n      0x20\n      add\n      0x00\n      keccak256\n        /* \"FinalExam.sol\":1857:1900  Staker storage staker = stakers[msg.sender] */\n      swap1\n      pop\n        /* \"FinalExam.sol\":1937:1943  amount */\n      dup2\n        /* \"FinalExam.sol\":1919:1925  staker */\n      dup2\n        /* \"FinalExam.sol\":1919:1933  staker.balance */\n      0x00\n      add\n      sload\n        /* \"FinalExam.sol\":1919:1943  staker.balance >= amount */\n      lt\n      iszero\n        /* \"FinalExam.sol\":1911:1983  require(staker.balance >= amount, \"Insufficient!! balance to withdraw.\") */\n      tag_85\n      jumpi\n      mload(0x40)\n      0x08c379a000000000000000000000000000000000000000000000000000000000\n      dup2\n      mstore\n      0x04\n      add\n      tag_86\n      swap1\n      tag_87\n      jump\t// in\n    tag_86:\n      mload(0x40)\n      dup1\n      swap2\n      sub\n      swap1\n      revert\n    tag_85:\n        /* \"FinalExam.sol\":2014:2020  amount */\n      dup2\n        /* \"FinalExam.sol\":1996:2002  staker */\n      dup2\n        /* \"FinalExam.sol\":1996:2010  staker.balance */\n      0x00\n      add\n      0x00\n        /* \"FinalExam.sol\":1996:2020  staker.balance -= amount */\n      dup3\n      dup3\n      sload\n      tag_88\n      swap2\n      swap1\n      tag_80\n      jump\t// in\n    tag_88:\n      swap3\n      pop\n      pop\n      dup2\n      swap1\n      sstore\n      pop\n        /* \"FinalExam.sol\":2039:2049  msg.sender */\n      caller\n        /* \"FinalExam.sol\":2031:2059  payable(msg.sender).transfer */\n      0xffffffffffffffffffffffffffffffffffffffff\n      and\n        /* \"FinalExam.sol\":2031:2067  payable(msg.sender).transfer(amount) */\n      0x08fc\n        /* \"FinalExam.sol\":2060:2066  amount */\n      dup4\n        /* \"FinalExam.sol\":2031:2067  payable(msg.sender).transfer(amount) */\n      swap1\n      dup2\n      iszero\n      mul\n      swap1\n      mload(0x40)\n      0x00\n      mload(0x40)\n      dup1\n      dup4\n      sub\n      dup2\n      dup6\n      dup9\n      dup9\n      call\n      swap4\n      pop\n      pop\n      pop\n      pop\n      iszero\n      dup1\n      iszero\n      tag_90\n      jumpi\n      returndatacopy(0x00, 0x00, returndatasize)\n      revert(0x00, returndatasize)\n    tag_90:\n      pop\n        /* \"FinalExam.sol\":2094:2104  msg.sender */\n      caller\n        /* \"FinalExam.sol\":2085:2113  Withdraw(msg.sender, amount) */\n      0xffffffffffffffffffffffffffffffffffffffff\n      and\n      0x884edad9ce6fa2440d8a54cc123490eb96d2768479d49ff9c7366125a9424364\n        /* \"FinalExam.sol\":2106:2112  amount */\n      dup4\n        /* \"FinalExam.sol\":2085:2113  Withdraw(msg.sender, amount) */\n      mload(0x40)\n      tag_91\n      swap2\n      swap1\n      tag_24\n      jump\t// in\n    tag_91:\n      mload(0x40)\n      dup1\n      swap2\n      sub\n      swap1\n      log2\n        /* \"FinalExam.sol\":1846:2121  {... */\n      pop\n        /* \"FinalExam.sol\":1806:2121  function withdraw(uint amount) external {... */\n      pop\n      jump\t// out\n        /* \"FinalExam.sol\":2632:3067  function claimRewards() external {... */\n    tag_32:\n        /* \"FinalExam.sol\":2676:2697  Staker storage staker */\n      0x00\n        /* \"FinalExam.sol\":2700:2707  stakers */\n      0x02\n        /* \"FinalExam.sol\":2700:2719  stakers[msg.sender] */\n      0x00\n        /* \"FinalExam.sol\":2708:2718  msg.sender */\n      caller\n        /* \"FinalExam.sol\":2700:2719  stakers[msg.sender] */\n      0xffffffffffffffffffffffffffffffffffffffff\n      and\n      0xffffffffffffffffffffffffffffffffffffffff\n      and\n      dup2\n      mstore\n      0x20\n      add\n      swap1\n      dup2\n      mstore\n      0x20\n      add\n      0x00\n      keccak256\n        /* \"FinalExam.sol\":2676:2719  Staker storage staker = stakers[msg.sender] */\n      swap1\n      pop\n        /* \"FinalExam.sol\":2730:2741  uint reward */\n      0x00\n        /* \"FinalExam.sol\":2744:2771  calculateReward(msg.sender) */\n      tag_93\n        /* \"FinalExam.sol\":2760:2770  msg.sender */\n      caller\n        /* \"FinalExam.sol\":2744:2759  calculateReward */\n      tag_64\n        /* \"FinalExam.sol\":2744:2771  calculateReward(msg.sender) */\n      jump\t// in\n    tag_93:\n        /* \"FinalExam.sol\":2730:2771  uint reward = calculateReward(msg.sender) */\n      swap1\n      pop\n        /* \"FinalExam.sol\":2801:2802  0 */\n      0x00\n        /* \"FinalExam.sol\":2792:2798  reward */\n      dup2\n        /* \"FinalExam.sol\":2792:2802  reward > 0 */\n      gt\n        /* \"FinalExam.sol\":2784:2860  require(reward > 0, \"No rewards available!! or insufficient reward pool!!!\") */\n      tag_94\n      jumpi\n      mload(0x40)\n      0x08c379a000000000000000000000000000000000000000000000000000000000\n      dup2\n      mstore\n      0x04\n      add\n      tag_95\n      swap1\n      tag_96\n      jump\t// in\n    tag_95:\n      mload(0x40)\n      dup1\n      swap2\n      sub\n      swap1\n      revert\n    tag_94:\n        /* \"FinalExam.sol\":2899:2905  reward */\n      dup1\n        /* \"FinalExam.sol\":2881:2887  staker */\n      dup3\n        /* \"FinalExam.sol\":2881:2895  staker.balance */\n      0x00\n      add\n      0x00\n        /* \"FinalExam.sol\":2881:2905  staker.balance += reward */\n      dup3\n      dup3\n      sload\n      tag_97\n      swap2\n      swap1\n      tag_82\n      jump\t// in\n    tag_97:\n      swap3\n      pop\n      pop\n      dup2\n      swap1\n      sstore\n      pop\n        /* \"FinalExam.sol\":2941:2956  block.timestamp */\n      timestamp\n        /* \"FinalExam.sol\":2916:2922  staker */\n      dup3\n        /* \"FinalExam.sol\":2916:2938  staker.lastClaimedTime */\n      0x01\n      add\n        /* \"FinalExam.sol\":2916:2956  staker.lastClaimedTime = block.timestamp */\n      dup2\n      swap1\n      sstore\n      pop\n        /* \"FinalExam.sol\":2981:2987  reward */\n      dup1\n        /* \"FinalExam.sol\":2967:2977  rewardPool */\n      0x01\n      0x00\n        /* \"FinalExam.sol\":2967:2987  rewardPool -= reward */\n      dup3\n      dup3\n      sload\n      tag_98\n      swap2\n      swap1\n      tag_80\n      jump\t// in\n    tag_98:\n      swap3\n      pop\n      pop\n      dup2\n      swap1\n      sstore\n      pop\n        /* \"FinalExam.sol\":3040:3050  msg.sender */\n      caller\n        /* \"FinalExam.sol\":3027:3059  ClaimRewards(msg.sender, reward) */\n      0xffffffffffffffffffffffffffffffffffffffff\n      and\n      0x1f89f96333d3133000ee447473151fa9606543368f02271c9d95ae14f13bcc67\n        /* \"FinalExam.sol\":3052:3058  reward */\n      dup3\n        /* \"FinalExam.sol\":3027:3059  ClaimRewards(msg.sender, reward) */\n      mload(0x40)\n      tag_99\n      swap2\n      swap1\n      tag_24\n      jump\t// in\n    tag_99:\n      mload(0x40)\n      dup1\n      swap2\n      sub\n      swap1\n      log2\n        /* \"FinalExam.sol\":2665:3067  {... */\n      pop\n      pop\n        /* \"FinalExam.sol\":2632:3067  function claimRewards() external {... */\n      jump\t// out\n        /* \"FinalExam.sol\":1157:1332  function addRewardFunds() external payable onlyOwner {... */\n    tag_34:\n        /* \"FinalExam.sol\":1038:1051  Owner_Address */\n      0x00\n      0x00\n      swap1\n      sload\n      swap1\n      0x0100\n      exp\n      swap1\n      div\n      0xffffffffffffffffffffffffffffffffffffffff\n      and\n        /* \"FinalExam.sol\":1024:1051  msg.sender == Owner_Address */\n      0xffffffffffffffffffffffffffffffffffffffff\n      and\n        /* \"FinalExam.sol\":1024:1034  msg.sender */\n      caller\n        /* \"FinalExam.sol\":1024:1051  msg.sender == Owner_Address */\n      0xffffffffffffffffffffffffffffffffffffffff\n      and\n      eq\n        /* \"FinalExam.sol\":1016:1094  require(msg.sender == Owner_Address, \"Only the owner can perform this action\") */\n      tag_101\n      jumpi\n      mload(0x40)\n      0x08c379a000000000000000000000000000000000000000000000000000000000\n      dup2\n      mstore\n      0x04\n      add\n      tag_102\n      swap1\n      tag_69\n      jump\t// in\n    tag_102:\n      mload(0x40)\n      dup1\n      swap2\n      sub\n      swap1\n      revert\n    tag_101:\n        /* \"FinalExam.sol\":1241:1242  0 */\n      0x00\n        /* \"FinalExam.sol\":1229:1238  msg.value */\n      callvalue\n        /* \"FinalExam.sol\":1229:1242  msg.value > 0 */\n      gt\n        /* \"FinalExam.sol\":1221:1290  require(msg.value > 0, \"Reward amount should be greater than 0. !!!\") */\n      tag_104\n      jumpi\n      mload(0x40)\n      0x08c379a000000000000000000000000000000000000000000000000000000000\n      dup2\n      mstore\n      0x04\n      add\n      tag_105\n      swap1\n      tag_106\n      jump\t// in\n    tag_105:\n      mload(0x40)\n      dup1\n      swap2\n      sub\n      swap1\n      revert\n    tag_104:\n        /* \"FinalExam.sol\":1315:1324  msg.value */\n      callvalue\n        /* \"FinalExam.sol\":1301:1311  rewardPool */\n      0x01\n      0x00\n        /* \"FinalExam.sol\":1301:1324  rewardPool += msg.value */\n      dup3\n      dup3\n      sload\n      tag_107\n      swap2\n      swap1\n      tag_82\n      jump\t// in\n    tag_107:\n      swap3\n      pop\n      pop\n      dup2\n      swap1\n      sstore\n      pop\n        /* \"FinalExam.sol\":1157:1332  function addRewardFunds() external payable onlyOwner {... */\n      jump\t// out\n        /* \"FinalExam.sol\":90:118  address public Owner_Address */\n    tag_37:\n      0x00\n      0x00\n      swap1\n      sload\n      swap1\n      0x0100\n      exp\n      swap1\n      div\n      0xffffffffffffffffffffffffffffffffffffffff\n      and\n      dup2\n      jump\t// out\n        /* \"FinalExam.sol\":414:450  uint public constant REWARD_RATE = 5 */\n    tag_42:\n        /* \"FinalExam.sol\":449:450  5 */\n      0x05\n        /* \"FinalExam.sol\":414:450  uint public constant REWARD_RATE = 5 */\n      dup2\n      jump\t// out\n        /* \"FinalExam.sol\":125:147  uint public rewardPool */\n    tag_46:\n      sload(0x01)\n      dup2\n      jump\t// out\n        /* \"FinalExam.sol\":364:405  mapping(address => Staker) public stakers */\n    tag_52:\n      mstore(0x20, 0x02)\n      dup1\n      0x00\n      mstore\n      keccak256(0x00, 0x40)\n      0x00\n      swap2\n      pop\n      swap1\n      pop\n      dup1\n      0x00\n      add\n      sload\n      swap1\n      dup1\n      0x01\n      add\n      sload\n      swap1\n      pop\n      dup3\n      jump\t// out\n        /* \"FinalExam.sol\":1374:1761  function deposit() external payable {... */\n    tag_56:\n        /* \"FinalExam.sol\":1441:1442  0 */\n      0x00\n        /* \"FinalExam.sol\":1429:1438  msg.value */\n      callvalue\n        /* \"FinalExam.sol\":1429:1442  msg.value > 0 */\n      gt\n        /* \"FinalExam.sol\":1421:1491  require(msg.value > 0, \"Deposit amount should be greater than 0. !!!\") */\n      tag_109\n      jumpi\n      mload(0x40)\n      0x08c379a000000000000000000000000000000000000000000000000000000000\n      dup2\n      mstore\n      0x04\n      add\n      tag_110\n      swap1\n      tag_111\n      jump\t// in\n    tag_110:\n      mload(0x40)\n      dup1\n      swap2\n      sub\n      swap1\n      revert\n    tag_109:\n        /* \"FinalExam.sol\":1504:1525  Staker storage staker */\n      0x00\n        /* \"FinalExam.sol\":1528:1535  stakers */\n      0x02\n        /* \"FinalExam.sol\":1528:1547  stakers[msg.sender] */\n      0x00\n        /* \"FinalExam.sol\":1536:1546  msg.sender */\n      caller\n        /* \"FinalExam.sol\":1528:1547  stakers[msg.sender] */\n      0xffffffffffffffffffffffffffffffffffffffff\n      and\n      0xffffffffffffffffffffffffffffffffffffffff\n      and\n      dup2\n      mstore\n      0x20\n      add\n      swap1\n      dup2\n      mstore\n      0x20\n      add\n      0x00\n      keccak256\n        /* \"FinalExam.sol\":1504:1547  Staker storage staker = stakers[msg.sender] */\n      swap1\n      pop\n        /* \"FinalExam.sol\":1576:1585  msg.value */\n      callvalue\n        /* \"FinalExam.sol\":1558:1564  staker */\n      dup2\n        /* \"FinalExam.sol\":1558:1572  staker.balance */\n      0x00\n      add\n      0x00\n        /* \"FinalExam.sol\":1558:1585  staker.balance += msg.value */\n      dup3\n      dup3\n      sload\n      tag_112\n      swap2\n      swap1\n      tag_82\n      jump\t// in\n    tag_112:\n      swap3\n      pop\n      pop\n      dup2\n      swap1\n      sstore\n      pop\n        /* \"FinalExam.sol\":1636:1637  0 */\n      0x00\n        /* \"FinalExam.sol\":1610:1616  staker */\n      dup2\n        /* \"FinalExam.sol\":1610:1632  staker.lastClaimedTime */\n      0x01\n      add\n      sload\n        /* \"FinalExam.sol\":1610:1637  staker.lastClaimedTime == 0 */\n      sub\n        /* \"FinalExam.sol\":1606:1706  if (staker.lastClaimedTime == 0) {... */\n      tag_113\n      jumpi\n        /* \"FinalExam.sol\":1679:1694  block.timestamp */\n      timestamp\n        /* \"FinalExam.sol\":1654:1660  staker */\n      dup2\n        /* \"FinalExam.sol\":1654:1676  staker.lastClaimedTime */\n      0x01\n      add\n        /* \"FinalExam.sol\":1654:1694  staker.lastClaimedTime = block.timestamp */\n      dup2\n      swap1\n      sstore\n      pop\n        /* \"FinalExam.sol\":1606:1706  if (staker.lastClaimedTime == 0) {... */\n    tag_113:\n        /* \"FinalExam.sol\":1731:1741  msg.sender */\n      caller\n        /* \"FinalExam.sol\":1723:1753  Deposit(msg.sender, msg.value) */\n      0xffffffffffffffffffffffffffffffffffffffff\n      and\n      0xe1fffcc4923d04b559f4d29a8bfc6cda04eb5b0d3c460751c2402c5c5cc9109c\n        /* \"FinalExam.sol\":1743:1752  msg.value */\n      callvalue\n        /* \"FinalExam.sol\":1723:1753  Deposit(msg.sender, msg.value) */\n      mload(0x40)\n      tag_114\n      swap2\n      swap1\n      tag_24\n      jump\t// in\n    tag_114:\n      mload(0x40)\n      dup1\n      swap2\n      sub\n      swap1\n      log2\n        /* \"FinalExam.sol\":1410:1761  {... */\n      pop\n        /* \"FinalExam.sol\":1374:1761  function deposit() external payable {... */\n      jump\t// out\n        /* \"FinalExam.sol\":3158:3185  uint public slashingBalance */\n    tag_59:\n      sload(0x03)\n      dup2\n      jump\t// out\n        /* \"FinalExam.sol\":2163:2596  function calculateReward(address stakerAddress) public view returns (uint) {... */\n    tag_64:\n        /* \"FinalExam.sol\":2232:2236  uint */\n      0x00\n        /* \"FinalExam.sol\":2249:2270  Staker storage staker */\n      0x00\n        /* \"FinalExam.sol\":2273:2280  stakers */\n      0x02\n        /* \"FinalExam.sol\":2273:2295  stakers[stakerAddress] */\n      0x00\n        /* \"FinalExam.sol\":2281:2294  stakerAddress */\n      dup5\n        /* \"FinalExam.sol\":2273:2295  stakers[stakerAddress] */\n      0xffffffffffffffffffffffffffffffffffffffff\n      and\n      0xffffffffffffffffffffffffffffffffffffffff\n      and\n      dup2\n      mstore\n      0x20\n      add\n      swap1\n      dup2\n      mstore\n      0x20\n      add\n      0x00\n      keccak256\n        /* \"FinalExam.sol\":2249:2295  Staker storage staker = stakers[stakerAddress] */\n      swap1\n      pop\n        /* \"FinalExam.sol\":635:644  3 minutes */\n      0xb4\n        /* \"FinalExam.sol\":2376:2382  staker */\n      dup2\n        /* \"FinalExam.sol\":2376:2398  staker.lastClaimedTime */\n      0x01\n      add\n      sload\n        /* \"FinalExam.sol\":2376:2412  staker.lastClaimedTime + REWARD_TIME */\n      tag_116\n      swap2\n      swap1\n      tag_82\n      jump\t// in\n    tag_116:\n        /* \"FinalExam.sol\":2357:2372  block.timestamp */\n      timestamp\n        /* \"FinalExam.sol\":2357:2412  block.timestamp >= staker.lastClaimedTime + REWARD_TIME */\n      lt\n        /* \"FinalExam.sol\":2353:2559  if (block.timestamp >= staker.lastClaimedTime + REWARD_TIME) {... */\n      tag_117\n      jumpi\n        /* \"FinalExam.sol\":2429:2440  uint reward */\n      0x00\n        /* \"FinalExam.sol\":2476:2479  100 */\n      0x64\n        /* \"FinalExam.sol\":449:450  5 */\n      0x05\n        /* \"FinalExam.sol\":2444:2450  staker */\n      dup4\n        /* \"FinalExam.sol\":2444:2458  staker.balance */\n      0x00\n      add\n      sload\n        /* \"FinalExam.sol\":2444:2472  staker.balance * REWARD_RATE */\n      tag_118\n      swap2\n      swap1\n      tag_119\n      jump\t// in\n    tag_118:\n        /* \"FinalExam.sol\":2443:2479  (staker.balance * REWARD_RATE) / 100 */\n      tag_120\n      swap2\n      swap1\n      tag_75\n      jump\t// in\n    tag_120:\n        /* \"FinalExam.sol\":2429:2479  uint reward = (staker.balance * REWARD_RATE) / 100 */\n      swap1\n      pop\n        /* \"FinalExam.sol\":2524:2534  rewardPool */\n      sload(0x01)\n        /* \"FinalExam.sol\":2514:2520  reward */\n      dup2\n        /* \"FinalExam.sol\":2514:2534  reward <= rewardPool */\n      gt\n      iszero\n        /* \"FinalExam.sol\":2514:2547  reward <= rewardPool ? reward : 0 */\n      tag_121\n      jumpi\n        /* \"FinalExam.sol\":2546:2547  0 */\n      0x00\n        /* \"FinalExam.sol\":2514:2547  reward <= rewardPool ? reward : 0 */\n      jump(tag_122)\n    tag_121:\n        /* \"FinalExam.sol\":2537:2543  reward */\n      dup1\n        /* \"FinalExam.sol\":2514:2547  reward <= rewardPool ? reward : 0 */\n    tag_122:\n        /* \"FinalExam.sol\":2507:2547  return reward <= rewardPool ? reward : 0 */\n      swap3\n      pop\n      pop\n      pop\n      jump(tag_115)\n        /* \"FinalExam.sol\":2353:2559  if (block.timestamp >= staker.lastClaimedTime + REWARD_TIME) {... */\n    tag_117:\n        /* \"FinalExam.sol\":2576:2577  0 */\n      0x00\n        /* \"FinalExam.sol\":2569:2577  return 0 */\n      swap2\n      pop\n      pop\n        /* \"FinalExam.sol\":2163:2596  function calculateReward(address stakerAddress) public view returns (uint) {... */\n    tag_115:\n      swap2\n      swap1\n      pop\n      jump\t// out\n        /* \"#utility.yul\":88:205   */\n    tag_124:\n        /* \"#utility.yul\":197:198   */\n      0x00\n        /* \"#utility.yul\":194:195   */\n      0x00\n        /* \"#utility.yul\":187:199   */\n      revert\n        /* \"#utility.yul\":334:460   */\n    tag_126:\n        /* \"#utility.yul\":371:378   */\n      0x00\n        /* \"#utility.yul\":411:453   */\n      0xffffffffffffffffffffffffffffffffffffffff\n        /* \"#utility.yul\":404:409   */\n      dup3\n        /* \"#utility.yul\":400:454   */\n      and\n        /* \"#utility.yul\":389:454   */\n      swap1\n      pop\n        /* \"#utility.yul\":334:460   */\n      swap2\n      swap1\n      pop\n      jump\t// out\n        /* \"#utility.yul\":466:562   */\n    tag_127:\n        /* \"#utility.yul\":503:510   */\n      0x00\n        /* \"#utility.yul\":532:556   */\n      tag_158\n        /* \"#utility.yul\":550:555   */\n      dup3\n        /* \"#utility.yul\":532:556   */\n      tag_126\n      jump\t// in\n    tag_158:\n        /* \"#utility.yul\":521:556   */\n      swap1\n      pop\n        /* \"#utility.yul\":466:562   */\n      swap2\n      swap1\n      pop\n      jump\t// out\n        /* \"#utility.yul\":568:690   */\n    tag_128:\n        /* \"#utility.yul\":641:665   */\n      tag_160\n        /* \"#utility.yul\":659:664   */\n      dup2\n        /* \"#utility.yul\":641:665   */\n      tag_127\n      jump\t// in\n    tag_160:\n        /* \"#utility.yul\":634:639   */\n      dup2\n        /* \"#utility.yul\":631:666   */\n      eq\n        /* \"#utility.yul\":621:684   */\n      tag_161\n      jumpi\n        /* \"#utility.yul\":680:681   */\n      0x00\n        /* \"#utility.yul\":677:678   */\n      0x00\n        /* \"#utility.yul\":670:682   */\n      revert\n        /* \"#utility.yul\":621:684   */\n    tag_161:\n        /* \"#utility.yul\":568:690   */\n      pop\n      jump\t// out\n        /* \"#utility.yul\":696:835   */\n    tag_129:\n        /* \"#utility.yul\":742:747   */\n      0x00\n        /* \"#utility.yul\":780:786   */\n      dup2\n        /* \"#utility.yul\":767:787   */\n      calldataload\n        /* \"#utility.yul\":758:787   */\n      swap1\n      pop\n        /* \"#utility.yul\":796:829   */\n      tag_163\n        /* \"#utility.yul\":823:828   */\n      dup2\n        /* \"#utility.yul\":796:829   */\n      tag_128\n      jump\t// in\n    tag_163:\n        /* \"#utility.yul\":696:835   */\n      swap3\n      swap2\n      pop\n      pop\n      jump\t// out\n        /* \"#utility.yul\":841:918   */\n    tag_130:\n        /* \"#utility.yul\":878:885   */\n      0x00\n        /* \"#utility.yul\":907:912   */\n      dup2\n        /* \"#utility.yul\":896:912   */\n      swap1\n      pop\n        /* \"#utility.yul\":841:918   */\n      swap2\n      swap1\n      pop\n      jump\t// out\n        /* \"#utility.yul\":924:1046   */\n    tag_131:\n        /* \"#utility.yul\":997:1021   */\n      tag_166\n        /* \"#utility.yul\":1015:1020   */\n      dup2\n        /* \"#utility.yul\":997:1021   */\n      tag_130\n      jump\t// in\n    tag_166:\n        /* \"#utility.yul\":990:995   */\n      dup2\n        /* \"#utility.yul\":987:1022   */\n      eq\n        /* \"#utility.yul\":977:1040   */\n      tag_167\n      jumpi\n        /* \"#utility.yul\":1036:1037   */\n      0x00\n        /* \"#utility.yul\":1033:1034   */\n      0x00\n        /* \"#utility.yul\":1026:1038   */\n      revert\n        /* \"#utility.yul\":977:1040   */\n    tag_167:\n        /* \"#utility.yul\":924:1046   */\n      pop\n      jump\t// out\n        /* \"#utility.yul\":1052:1191   */\n    tag_132:\n        /* \"#utility.yul\":1098:1103   */\n      0x00\n        /* \"#utility.yul\":1136:1142   */\n      dup2\n        /* \"#utility.yul\":1123:1143   */\n      calldataload\n        /* \"#utility.yul\":1114:1143   */\n      swap1\n      pop\n        /* \"#utility.yul\":1152:1185   */\n      tag_169\n        /* \"#utility.yul\":1179:1184   */\n      dup2\n        /* \"#utility.yul\":1152:1185   */\n      tag_131\n      jump\t// in\n    tag_169:\n        /* \"#utility.yul\":1052:1191   */\n      swap3\n      swap2\n      pop\n      pop\n      jump\t// out\n        /* \"#utility.yul\":1197:1671   */\n    tag_18:\n        /* \"#utility.yul\":1265:1271   */\n      0x00\n        /* \"#utility.yul\":1273:1279   */\n      0x00\n        /* \"#utility.yul\":1322:1324   */\n      0x40\n        /* \"#utility.yul\":1310:1319   */\n      dup4\n        /* \"#utility.yul\":1301:1308   */\n      dup6\n        /* \"#utility.yul\":1297:1320   */\n      sub\n        /* \"#utility.yul\":1293:1325   */\n      slt\n        /* \"#utility.yul\":1290:1409   */\n      iszero\n      tag_171\n      jumpi\n        /* \"#utility.yul\":1328:1407   */\n      tag_172\n      tag_124\n      jump\t// in\n    tag_172:\n        /* \"#utility.yul\":1290:1409   */\n    tag_171:\n        /* \"#utility.yul\":1448:1449   */\n      0x00\n        /* \"#utility.yul\":1473:1526   */\n      tag_173\n        /* \"#utility.yul\":1518:1525   */\n      dup6\n        /* \"#utility.yul\":1509:1515   */\n      dup3\n        /* \"#utility.yul\":1498:1507   */\n      dup7\n        /* \"#utility.yul\":1494:1516   */\n      add\n        /* \"#utility.yul\":1473:1526   */\n      tag_129\n      jump\t// in\n    tag_173:\n        /* \"#utility.yul\":1463:1526   */\n      swap3\n      pop\n        /* \"#utility.yul\":1419:1536   */\n      pop\n        /* \"#utility.yul\":1575:1577   */\n      0x20\n        /* \"#utility.yul\":1601:1654   */\n      tag_174\n        /* \"#utility.yul\":1646:1653   */\n      dup6\n        /* \"#utility.yul\":1637:1643   */\n      dup3\n        /* \"#utility.yul\":1626:1635   */\n      dup7\n        /* \"#utility.yul\":1622:1644   */\n      add\n        /* \"#utility.yul\":1601:1654   */\n      tag_132\n      jump\t// in\n    tag_174:\n        /* \"#utility.yul\":1591:1654   */\n      swap2\n      pop\n        /* \"#utility.yul\":1546:1664   */\n      pop\n        /* \"#utility.yul\":1197:1671   */\n      swap3\n      pop\n      swap3\n      swap1\n      pop\n      jump\t// out\n        /* \"#utility.yul\":1677:1795   */\n    tag_133:\n        /* \"#utility.yul\":1764:1788   */\n      tag_176\n        /* \"#utility.yul\":1782:1787   */\n      dup2\n        /* \"#utility.yul\":1764:1788   */\n      tag_130\n      jump\t// in\n    tag_176:\n        /* \"#utility.yul\":1759:1762   */\n      dup3\n        /* \"#utility.yul\":1752:1789   */\n      mstore\n        /* \"#utility.yul\":1677:1795   */\n      pop\n      pop\n      jump\t// out\n        /* \"#utility.yul\":1801:2023   */\n    tag_24:\n        /* \"#utility.yul\":1894:1898   */\n      0x00\n        /* \"#utility.yul\":1932:1934   */\n      0x20\n        /* \"#utility.yul\":1921:1930   */\n      dup3\n        /* \"#utility.yul\":1917:1935   */\n      add\n        /* \"#utility.yul\":1909:1935   */\n      swap1\n      pop\n        /* \"#utility.yul\":1945:2016   */\n      tag_178\n        /* \"#utility.yul\":2013:2014   */\n      0x00\n        /* \"#utility.yul\":2002:2011   */\n      dup4\n        /* \"#utility.yul\":1998:2015   */\n      add\n        /* \"#utility.yul\":1989:1995   */\n      dup5\n        /* \"#utility.yul\":1945:2016   */\n      tag_133\n      jump\t// in\n    tag_178:\n        /* \"#utility.yul\":1801:2023   */\n      swap3\n      swap2\n      pop\n      pop\n      jump\t// out\n        /* \"#utility.yul\":2029:2358   */\n    tag_28:\n        /* \"#utility.yul\":2088:2094   */\n      0x00\n        /* \"#utility.yul\":2137:2139   */\n      0x20\n        /* \"#utility.yul\":2125:2134   */\n      dup3\n        /* \"#utility.yul\":2116:2123   */\n      dup5\n        /* \"#utility.yul\":2112:2135   */\n      sub\n        /* \"#utility.yul\":2108:2140   */\n      slt\n        /* \"#utility.yul\":2105:2224   */\n      iszero\n      tag_180\n      jumpi\n        /* \"#utility.yul\":2143:2222   */\n      tag_181\n      tag_124\n      jump\t// in\n    tag_181:\n        /* \"#utility.yul\":2105:2224   */\n    tag_180:\n        /* \"#utility.yul\":2263:2264   */\n      0x00\n        /* \"#utility.yul\":2288:2341   */\n      tag_182\n        /* \"#utility.yul\":2333:2340   */\n      dup5\n        /* \"#utility.yul\":2324:2330   */\n      dup3\n        /* \"#utility.yul\":2313:2322   */\n      dup6\n        /* \"#utility.yul\":2309:2331   */\n      add\n        /* \"#utility.yul\":2288:2341   */\n      tag_132\n      jump\t// in\n    tag_182:\n        /* \"#utility.yul\":2278:2341   */\n      swap2\n      pop\n        /* \"#utility.yul\":2234:2351   */\n      pop\n        /* \"#utility.yul\":2029:2358   */\n      swap3\n      swap2\n      pop\n      pop\n      jump\t// out\n        /* \"#utility.yul\":2364:2482   */\n    tag_134:\n        /* \"#utility.yul\":2451:2475   */\n      tag_184\n        /* \"#utility.yul\":2469:2474   */\n      dup2\n        /* \"#utility.yul\":2451:2475   */\n      tag_127\n      jump\t// in\n    tag_184:\n        /* \"#utility.yul\":2446:2449   */\n      dup3\n        /* \"#utility.yul\":2439:2476   */\n      mstore\n        /* \"#utility.yul\":2364:2482   */\n      pop\n      pop\n      jump\t// out\n        /* \"#utility.yul\":2488:2710   */\n    tag_39:\n        /* \"#utility.yul\":2581:2585   */\n      0x00\n        /* \"#utility.yul\":2619:2621   */\n      0x20\n        /* \"#utility.yul\":2608:2617   */\n      dup3\n        /* \"#utility.yul\":2604:2622   */\n      add\n        /* \"#utility.yul\":2596:2622   */\n      swap1\n      pop\n        /* \"#utility.yul\":2632:2703   */\n      tag_186\n        /* \"#utility.yul\":2700:2701   */\n      0x00\n        /* \"#utility.yul\":2689:2698   */\n      dup4\n        /* \"#utility.yul\":2685:2702   */\n      add\n        /* \"#utility.yul\":2676:2682   */\n      dup5\n        /* \"#utility.yul\":2632:2703   */\n      tag_134\n      jump\t// in\n    tag_186:\n        /* \"#utility.yul\":2488:2710   */\n      swap3\n      swap2\n      pop\n      pop\n      jump\t// out\n        /* \"#utility.yul\":2716:3045   */\n    tag_51:\n        /* \"#utility.yul\":2775:2781   */\n      0x00\n        /* \"#utility.yul\":2824:2826   */\n      0x20\n        /* \"#utility.yul\":2812:2821   */\n      dup3\n        /* \"#utility.yul\":2803:2810   */\n      dup5\n        /* \"#utility.yul\":2799:2822   */\n      sub\n        /* \"#utility.yul\":2795:2827   */\n      slt\n        /* \"#utility.yul\":2792:2911   */\n      iszero\n      tag_188\n      jumpi\n        /* \"#utility.yul\":2830:2909   */\n      tag_189\n      tag_124\n      jump\t// in\n    tag_189:\n        /* \"#utility.yul\":2792:2911   */\n    tag_188:\n        /* \"#utility.yul\":2950:2951   */\n      0x00\n        /* \"#utility.yul\":2975:3028   */\n      tag_190\n        /* \"#utility.yul\":3020:3027   */\n      dup5\n        /* \"#utility.yul\":3011:3017   */\n      dup3\n        /* \"#utility.yul\":3000:3009   */\n      dup6\n        /* \"#utility.yul\":2996:3018   */\n      add\n        /* \"#utility.yul\":2975:3028   */\n      tag_129\n      jump\t// in\n    tag_190:\n        /* \"#utility.yul\":2965:3028   */\n      swap2\n      pop\n        /* \"#utility.yul\":2921:3038   */\n      pop\n        /* \"#utility.yul\":2716:3045   */\n      swap3\n      swap2\n      pop\n      pop\n      jump\t// out\n        /* \"#utility.yul\":3051:3383   */\n    tag_54:\n        /* \"#utility.yul\":3172:3176   */\n      0x00\n        /* \"#utility.yul\":3210:3212   */\n      0x40\n        /* \"#utility.yul\":3199:3208   */\n      dup3\n        /* \"#utility.yul\":3195:3213   */\n      add\n        /* \"#utility.yul\":3187:3213   */\n      swap1\n      pop\n        /* \"#utility.yul\":3223:3294   */\n      tag_192\n        /* \"#utility.yul\":3291:3292   */\n      0x00\n        /* \"#utility.yul\":3280:3289   */\n      dup4\n        /* \"#utility.yul\":3276:3293   */\n      add\n        /* \"#utility.yul\":3267:3273   */\n      dup6\n        /* \"#utility.yul\":3223:3294   */\n      tag_133\n      jump\t// in\n    tag_192:\n        /* \"#utility.yul\":3304:3376   */\n      tag_193\n        /* \"#utility.yul\":3372:3374   */\n      0x20\n        /* \"#utility.yul\":3361:3370   */\n      dup4\n        /* \"#utility.yul\":3357:3375   */\n      add\n        /* \"#utility.yul\":3348:3354   */\n      dup5\n        /* \"#utility.yul\":3304:3376   */\n      tag_133\n      jump\t// in\n    tag_193:\n        /* \"#utility.yul\":3051:3383   */\n      swap4\n      swap3\n      pop\n      pop\n      pop\n      jump\t// out\n        /* \"#utility.yul\":3389:3558   */\n    tag_135:\n        /* \"#utility.yul\":3473:3484   */\n      0x00\n        /* \"#utility.yul\":3507:3513   */\n      dup3\n        /* \"#utility.yul\":3502:3505   */\n      dup3\n        /* \"#utility.yul\":3495:3514   */\n      mstore\n        /* \"#utility.yul\":3547:3551   */\n      0x20\n        /* \"#utility.yul\":3542:3545   */\n      dup3\n        /* \"#utility.yul\":3538:3552   */\n      add\n        /* \"#utility.yul\":3523:3552   */\n      swap1\n      pop\n        /* \"#utility.yul\":3389:3558   */\n      swap3\n      swap2\n      pop\n      pop\n      jump\t// out\n        /* \"#utility.yul\":3564:3789   */\n    tag_136:\n        /* \"#utility.yul\":3704:3738   */\n      0x4f6e6c7920746865206f776e65722063616e20706572666f726d207468697320\n        /* \"#utility.yul\":3700:3701   */\n      0x00\n        /* \"#utility.yul\":3692:3698   */\n      dup3\n        /* \"#utility.yul\":3688:3702   */\n      add\n        /* \"#utility.yul\":3681:3739   */\n      mstore\n        /* \"#utility.yul\":3773:3781   */\n      0x616374696f6e0000000000000000000000000000000000000000000000000000\n        /* \"#utility.yul\":3768:3770   */\n      0x20\n        /* \"#utility.yul\":3760:3766   */\n      dup3\n        /* \"#utility.yul\":3756:3771   */\n      add\n        /* \"#utility.yul\":3749:3782   */\n      mstore\n        /* \"#utility.yul\":3564:3789   */\n      pop\n      jump\t// out\n        /* \"#utility.yul\":3795:4161   */\n    tag_137:\n        /* \"#utility.yul\":3937:3940   */\n      0x00\n        /* \"#utility.yul\":3958:4025   */\n      tag_197\n        /* \"#utility.yul\":4022:4024   */\n      0x26\n        /* \"#utility.yul\":4017:4020   */\n      dup4\n        /* \"#utility.yul\":3958:4025   */\n      tag_135\n      jump\t// in\n    tag_197:\n        /* \"#utility.yul\":3951:4025   */\n      swap2\n      pop\n        /* \"#utility.yul\":4034:4127   */\n      tag_198\n        /* \"#utility.yul\":4123:4126   */\n      dup3\n        /* \"#utility.yul\":4034:4127   */\n      tag_136\n      jump\t// in\n    tag_198:\n        /* \"#utility.yul\":4152:4154   */\n      0x40\n        /* \"#utility.yul\":4147:4150   */\n      dup3\n        /* \"#utility.yul\":4143:4155   */\n      add\n        /* \"#utility.yul\":4136:4155   */\n      swap1\n      pop\n        /* \"#utility.yul\":3795:4161   */\n      swap2\n      swap1\n      pop\n      jump\t// out\n        /* \"#utility.yul\":4167:4586   */\n    tag_69:\n        /* \"#utility.yul\":4333:4337   */\n      0x00\n        /* \"#utility.yul\":4371:4373   */\n      0x20\n        /* \"#utility.yul\":4360:4369   */\n      dup3\n        /* \"#utility.yul\":4356:4374   */\n      add\n        /* \"#utility.yul\":4348:4374   */\n      swap1\n      pop\n        /* \"#utility.yul\":4420:4429   */\n      dup2\n        /* \"#utility.yul\":4414:4418   */\n      dup2\n        /* \"#utility.yul\":4410:4430   */\n      sub\n        /* \"#utility.yul\":4406:4407   */\n      0x00\n        /* \"#utility.yul\":4395:4404   */\n      dup4\n        /* \"#utility.yul\":4391:4408   */\n      add\n        /* \"#utility.yul\":4384:4431   */\n      mstore\n        /* \"#utility.yul\":4448:4579   */\n      tag_200\n        /* \"#utility.yul\":4574:4578   */\n      dup2\n        /* \"#utility.yul\":4448:4579   */\n      tag_137\n      jump\t// in\n    tag_200:\n        /* \"#utility.yul\":4440:4579   */\n      swap1\n      pop\n        /* \"#utility.yul\":4167:4586   */\n      swap2\n      swap1\n      pop\n      jump\t// out\n        /* \"#utility.yul\":4592:4824   */\n    tag_138:\n        /* \"#utility.yul\":4732:4766   */\n      0x496e76616c6964205374616b65722061646472657373206f72206e6f2066756e\n        /* \"#utility.yul\":4728:4729   */\n      0x00\n        /* \"#utility.yul\":4720:4726   */\n      dup3\n        /* \"#utility.yul\":4716:4730   */\n      add\n        /* \"#utility.yul\":4709:4767   */\n      mstore\n        /* \"#utility.yul\":4801:4816   */\n      0x647320746f20736c617368212100000000000000000000000000000000000000\n        /* \"#utility.yul\":4796:4798   */\n      0x20\n        /* \"#utility.yul\":4788:4794   */\n      dup3\n        /* \"#utility.yul\":4784:4799   */\n      add\n        /* \"#utility.yul\":4777:4817   */\n      mstore\n        /* \"#utility.yul\":4592:4824   */\n      pop\n      jump\t// out\n        /* \"#utility.yul\":4830:5196   */\n    tag_139:\n        /* \"#utility.yul\":4972:4975   */\n      0x00\n        /* \"#utility.yul\":4993:5060   */\n      tag_203\n        /* \"#utility.yul\":5057:5059   */\n      0x2d\n        /* \"#utility.yul\":5052:5055   */\n      dup4\n        /* \"#utility.yul\":4993:5060   */\n      tag_135\n      jump\t// in\n    tag_203:\n        /* \"#utility.yul\":4986:5060   */\n      swap2\n      pop\n        /* \"#utility.yul\":5069:5162   */\n      tag_204\n        /* \"#utility.yul\":5158:5161   */\n      dup3\n        /* \"#utility.yul\":5069:5162   */\n      tag_138\n      jump\t// in\n    tag_204:\n        /* \"#utility.yul\":5187:5189   */\n      0x40\n        /* \"#utility.yul\":5182:5185   */\n      dup3\n        /* \"#utility.yul\":5178:5190   */\n      add\n        /* \"#utility.yul\":5171:5190   */\n      swap1\n      pop\n        /* \"#utility.yul\":4830:5196   */\n      swap2\n      swap1\n      pop\n      jump\t// out\n        /* \"#utility.yul\":5202:5621   */\n    tag_73:\n        /* \"#utility.yul\":5368:5372   */\n      0x00\n        /* \"#utility.yul\":5406:5408   */\n      0x20\n        /* \"#utility.yul\":5395:5404   */\n      dup3\n        /* \"#utility.yul\":5391:5409   */\n      add\n        /* \"#utility.yul\":5383:5409   */\n      swap1\n      pop\n        /* \"#utility.yul\":5455:5464   */\n      dup2\n        /* \"#utility.yul\":5449:5453   */\n      dup2\n        /* \"#utility.yul\":5445:5465   */\n      sub\n        /* \"#utility.yul\":5441:5442   */\n      0x00\n        /* \"#utility.yul\":5430:5439   */\n      dup4\n        /* \"#utility.yul\":5426:5443   */\n      add\n        /* \"#utility.yul\":5419:5466   */\n      mstore\n        /* \"#utility.yul\":5483:5614   */\n      tag_206\n        /* \"#utility.yul\":5609:5613   */\n      dup2\n        /* \"#utility.yul\":5483:5614   */\n      tag_139\n      jump\t// in\n    tag_206:\n        /* \"#utility.yul\":5475:5614   */\n      swap1\n      pop\n        /* \"#utility.yul\":5202:5621   */\n      swap2\n      swap1\n      pop\n      jump\t// out\n        /* \"#utility.yul\":5627:5807   */\n    tag_140:\n        /* \"#utility.yul\":5675:5752   */\n      0x4e487b7100000000000000000000000000000000000000000000000000000000\n        /* \"#utility.yul\":5672:5673   */\n      0x00\n        /* \"#utility.yul\":5665:5753   */\n      mstore\n        /* \"#utility.yul\":5772:5776   */\n      0x12\n        /* \"#utility.yul\":5769:5770   */\n      0x04\n        /* \"#utility.yul\":5762:5777   */\n      mstore\n        /* \"#utility.yul\":5796:5800   */\n      0x24\n        /* \"#utility.yul\":5793:5794   */\n      0x00\n        /* \"#utility.yul\":5786:5801   */\n      revert\n        /* \"#utility.yul\":5813:5993   */\n    tag_141:\n        /* \"#utility.yul\":5861:5938   */\n      0x4e487b7100000000000000000000000000000000000000000000000000000000\n        /* \"#utility.yul\":5858:5859   */\n      0x00\n        /* \"#utility.yul\":5851:5939   */\n      mstore\n        /* \"#utility.yul\":5958:5962   */\n      0x11\n        /* \"#utility.yul\":5955:5956   */\n      0x04\n        /* \"#utility.yul\":5948:5963   */\n      mstore\n        /* \"#utility.yul\":5982:5986   */\n      0x24\n        /* \"#utility.yul\":5979:5980   */\n      0x00\n        /* \"#utility.yul\":5972:5987   */\n      revert\n        /* \"#utility.yul\":5999:6184   */\n    tag_75:\n        /* \"#utility.yul\":6039:6040   */\n      0x00\n        /* \"#utility.yul\":6056:6076   */\n      tag_210\n        /* \"#utility.yul\":6074:6075   */\n      dup3\n        /* \"#utility.yul\":6056:6076   */\n      tag_130\n      jump\t// in\n    tag_210:\n        /* \"#utility.yul\":6051:6076   */\n      swap2\n      pop\n        /* \"#utility.yul\":6090:6110   */\n      tag_211\n        /* \"#utility.yul\":6108:6109   */\n      dup4\n        /* \"#utility.yul\":6090:6110   */\n      tag_130\n      jump\t// in\n    tag_211:\n        /* \"#utility.yul\":6085:6110   */\n      swap3\n      pop\n        /* \"#utility.yul\":6129:6130   */\n      dup3\n        /* \"#utility.yul\":6119:6154   */\n      tag_212\n      jumpi\n        /* \"#utility.yul\":6134:6152   */\n      tag_213\n      tag_140\n      jump\t// in\n    tag_213:\n        /* \"#utility.yul\":6119:6154   */\n    tag_212:\n        /* \"#utility.yul\":6176:6177   */\n      dup3\n        /* \"#utility.yul\":6173:6174   */\n      dup3\n        /* \"#utility.yul\":6169:6178   */\n      div\n        /* \"#utility.yul\":6164:6178   */\n      swap1\n      pop\n        /* \"#utility.yul\":5999:6184   */\n      swap3\n      swap2\n      pop\n      pop\n      jump\t// out\n        /* \"#utility.yul\":6190:6414   */\n    tag_142:\n        /* \"#utility.yul\":6330:6364   */\n      0x50656e616c747920657863656564732074686520616c6c6f776564206d617869\n        /* \"#utility.yul\":6326:6327   */\n      0x00\n        /* \"#utility.yul\":6318:6324   */\n      dup3\n        /* \"#utility.yul\":6314:6328   */\n      add\n        /* \"#utility.yul\":6307:6365   */\n      mstore\n        /* \"#utility.yul\":6399:6406   */\n      0x6d756d2121000000000000000000000000000000000000000000000000000000\n        /* \"#utility.yul\":6394:6396   */\n      0x20\n        /* \"#utility.yul\":6386:6392   */\n      dup3\n        /* \"#utility.yul\":6382:6397   */\n      add\n        /* \"#utility.yul\":6375:6407   */\n      mstore\n        /* \"#utility.yul\":6190:6414   */\n      pop\n      jump\t// out\n        /* \"#utility.yul\":6420:6786   */\n    tag_143:\n        /* \"#utility.yul\":6562:6565   */\n      0x00\n        /* \"#utility.yul\":6583:6650   */\n      tag_216\n        /* \"#utility.yul\":6647:6649   */\n      0x25\n        /* \"#utility.yul\":6642:6645   */\n      dup4\n        /* \"#utility.yul\":6583:6650   */\n      tag_135\n      jump\t// in\n    tag_216:\n        /* \"#utility.yul\":6576:6650   */\n      swap2\n      pop\n        /* \"#utility.yul\":6659:6752   */\n      tag_217\n        /* \"#utility.yul\":6748:6751   */\n      dup3\n        /* \"#utility.yul\":6659:6752   */\n      tag_142\n      jump\t// in\n    tag_217:\n        /* \"#utility.yul\":6777:6779   */\n      0x40\n        /* \"#utility.yul\":6772:6775   */\n      dup3\n        /* \"#utility.yul\":6768:6780   */\n      add\n        /* \"#utility.yul\":6761:6780   */\n      swap1\n      pop\n        /* \"#utility.yul\":6420:6786   */\n      swap2\n      swap1\n      pop\n      jump\t// out\n        /* \"#utility.yul\":6792:7211   */\n    tag_78:\n        /* \"#utility.yul\":6958:6962   */\n      0x00\n        /* \"#utility.yul\":6996:6998   */\n      0x20\n        /* \"#utility.yul\":6985:6994   */\n      dup3\n        /* \"#utility.yul\":6981:6999   */\n      add\n        /* \"#utility.yul\":6973:6999   */\n      swap1\n      pop\n        /* \"#utility.yul\":7045:7054   */\n      dup2\n        /* \"#utility.yul\":7039:7043   */\n      dup2\n        /* \"#utility.yul\":7035:7055   */\n      sub\n        /* \"#utility.yul\":7031:7032   */\n      0x00\n        /* \"#utility.yul\":7020:7029   */\n      dup4\n        /* \"#utility.yul\":7016:7033   */\n      add\n        /* \"#utility.yul\":7009:7056   */\n      mstore\n        /* \"#utility.yul\":7073:7204   */\n      tag_219\n        /* \"#utility.yul\":7199:7203   */\n      dup2\n        /* \"#utility.yul\":7073:7204   */\n      tag_143\n      jump\t// in\n    tag_219:\n        /* \"#utility.yul\":7065:7204   */\n      swap1\n      pop\n        /* \"#utility.yul\":6792:7211   */\n      swap2\n      swap1\n      pop\n      jump\t// out\n        /* \"#utility.yul\":7217:7411   */\n    tag_80:\n        /* \"#utility.yul\":7257:7261   */\n      0x00\n        /* \"#utility.yul\":7277:7297   */\n      tag_221\n        /* \"#utility.yul\":7295:7296   */\n      dup3\n        /* \"#utility.yul\":7277:7297   */\n      tag_130\n      jump\t// in\n    tag_221:\n        /* \"#utility.yul\":7272:7297   */\n      swap2\n      pop\n        /* \"#utility.yul\":7311:7331   */\n      tag_222\n        /* \"#utility.yul\":7329:7330   */\n      dup4\n        /* \"#utility.yul\":7311:7331   */\n      tag_130\n      jump\t// in\n    tag_222:\n        /* \"#utility.yul\":7306:7331   */\n      swap3\n      pop\n        /* \"#utility.yul\":7355:7356   */\n      dup3\n        /* \"#utility.yul\":7352:7353   */\n      dup3\n        /* \"#utility.yul\":7348:7357   */\n      sub\n        /* \"#utility.yul\":7340:7357   */\n      swap1\n      pop\n        /* \"#utility.yul\":7379:7380   */\n      dup2\n        /* \"#utility.yul\":7373:7377   */\n      dup2\n        /* \"#utility.yul\":7370:7381   */\n      gt\n        /* \"#utility.yul\":7367:7404   */\n      iszero\n      tag_223\n      jumpi\n        /* \"#utility.yul\":7384:7402   */\n      tag_224\n      tag_141\n      jump\t// in\n    tag_224:\n        /* \"#utility.yul\":7367:7404   */\n    tag_223:\n        /* \"#utility.yul\":7217:7411   */\n      swap3\n      swap2\n      pop\n      pop\n      jump\t// out\n        /* \"#utility.yul\":7417:7608   */\n    tag_82:\n        /* \"#utility.yul\":7457:7460   */\n      0x00\n        /* \"#utility.yul\":7476:7496   */\n      tag_226\n        /* \"#utility.yul\":7494:7495   */\n      dup3\n        /* \"#utility.yul\":7476:7496   */\n      tag_130\n      jump\t// in\n    tag_226:\n        /* \"#utility.yul\":7471:7496   */\n      swap2\n      pop\n        /* \"#utility.yul\":7510:7530   */\n      tag_227\n        /* \"#utility.yul\":7528:7529   */\n      dup4\n        /* \"#utility.yul\":7510:7530   */\n      tag_130\n      jump\t// in\n    tag_227:\n        /* \"#utility.yul\":7505:7530   */\n      swap3\n      pop\n        /* \"#utility.yul\":7553:7554   */\n      dup3\n        /* \"#utility.yul\":7550:7551   */\n      dup3\n        /* \"#utility.yul\":7546:7555   */\n      add\n        /* \"#utility.yul\":7539:7555   */\n      swap1\n      pop\n        /* \"#utility.yul\":7574:7577   */\n      dup1\n        /* \"#utility.yul\":7571:7572   */\n      dup3\n        /* \"#utility.yul\":7568:7578   */\n      gt\n        /* \"#utility.yul\":7565:7601   */\n      iszero\n      tag_228\n      jumpi\n        /* \"#utility.yul\":7581:7599   */\n      tag_229\n      tag_141\n      jump\t// in\n    tag_229:\n        /* \"#utility.yul\":7565:7601   */\n    tag_228:\n        /* \"#utility.yul\":7417:7608   */\n      swap3\n      swap2\n      pop\n      pop\n      jump\t// out\n        /* \"#utility.yul\":7614:7836   */\n    tag_144:\n        /* \"#utility.yul\":7754:7788   */\n      0x496e73756666696369656e7421212062616c616e636520746f20776974686472\n        /* \"#utility.yul\":7750:7751   */\n      0x00\n        /* \"#utility.yul\":7742:7748   */\n      dup3\n        /* \"#utility.yul\":7738:7752   */\n      add\n        /* \"#utility.yul\":7731:7789   */\n      mstore\n        /* \"#utility.yul\":7823:7828   */\n      0x61772e0000000000000000000000000000000000000000000000000000000000\n        /* \"#utility.yul\":7818:7820   */\n      0x20\n        /* \"#utility.yul\":7810:7816   */\n      dup3\n        /* \"#utility.yul\":7806:7821   */\n      add\n        /* \"#utility.yul\":7799:7829   */\n      mstore\n        /* \"#utility.yul\":7614:7836   */\n      pop\n      jump\t// out\n        /* \"#utility.yul\":7842:8208   */\n    tag_145:\n        /* \"#utility.yul\":7984:7987   */\n      0x00\n        /* \"#utility.yul\":8005:8072   */\n      tag_232\n        /* \"#utility.yul\":8069:8071   */\n      0x23\n        /* \"#utility.yul\":8064:8067   */\n      dup4\n        /* \"#utility.yul\":8005:8072   */\n      tag_135\n      jump\t// in\n    tag_232:\n        /* \"#utility.yul\":7998:8072   */\n      swap2\n      pop\n        /* \"#utility.yul\":8081:8174   */\n      tag_233\n        /* \"#utility.yul\":8170:8173   */\n      dup3\n        /* \"#utility.yul\":8081:8174   */\n      tag_144\n      jump\t// in\n    tag_233:\n        /* \"#utility.yul\":8199:8201   */\n      0x40\n        /* \"#utility.yul\":8194:8197   */\n      dup3\n        /* \"#utility.yul\":8190:8202   */\n      add\n        /* \"#utility.yul\":8183:8202   */\n      swap1\n      pop\n        /* \"#utility.yul\":7842:8208   */\n      swap2\n      swap1\n      pop\n      jump\t// out\n        /* \"#utility.yul\":8214:8633   */\n    tag_87:\n        /* \"#utility.yul\":8380:8384   */\n      0x00\n        /* \"#utility.yul\":8418:8420   */\n      0x20\n        /* \"#utility.yul\":8407:8416   */\n      dup3\n        /* \"#utility.yul\":8403:8421   */\n      add\n        /* \"#utility.yul\":8395:8421   */\n      swap1\n      pop\n        /* \"#utility.yul\":8467:8476   */\n      dup2\n        /* \"#utility.yul\":8461:8465   */\n      dup2\n        /* \"#utility.yul\":8457:8477   */\n      sub\n        /* \"#utility.yul\":8453:8454   */\n      0x00\n        /* \"#utility.yul\":8442:8451   */\n      dup4\n        /* \"#utility.yul\":8438:8455   */\n      add\n        /* \"#utility.yul\":8431:8478   */\n      mstore\n        /* \"#utility.yul\":8495:8626   */\n      tag_235\n        /* \"#utility.yul\":8621:8625   */\n      dup2\n        /* \"#utility.yul\":8495:8626   */\n      tag_145\n      jump\t// in\n    tag_235:\n        /* \"#utility.yul\":8487:8626   */\n      swap1\n      pop\n        /* \"#utility.yul\":8214:8633   */\n      swap2\n      swap1\n      pop\n      jump\t// out\n        /* \"#utility.yul\":8639:8879   */\n    tag_146:\n        /* \"#utility.yul\":8779:8813   */\n      0x4e6f207265776172647320617661696c61626c652121206f7220696e73756666\n        /* \"#utility.yul\":8775:8776   */\n      0x00\n        /* \"#utility.yul\":8767:8773   */\n      dup3\n        /* \"#utility.yul\":8763:8777   */\n      add\n        /* \"#utility.yul\":8756:8814   */\n      mstore\n        /* \"#utility.yul\":8848:8871   */\n      0x696369656e742072657761726420706f6f6c2121210000000000000000000000\n        /* \"#utility.yul\":8843:8845   */\n      0x20\n        /* \"#utility.yul\":8835:8841   */\n      dup3\n        /* \"#utility.yul\":8831:8846   */\n      add\n        /* \"#utility.yul\":8824:8872   */\n      mstore\n        /* \"#utility.yul\":8639:8879   */\n      pop\n      jump\t// out\n        /* \"#utility.yul\":8885:9251   */\n    tag_147:\n        /* \"#utility.yul\":9027:9030   */\n      0x00\n        /* \"#utility.yul\":9048:9115   */\n      tag_238\n        /* \"#utility.yul\":9112:9114   */\n      0x35\n        /* \"#utility.yul\":9107:9110   */\n      dup4\n        /* \"#utility.yul\":9048:9115   */\n      tag_135\n      jump\t// in\n    tag_238:\n        /* \"#utility.yul\":9041:9115   */\n      swap2\n      pop\n        /* \"#utility.yul\":9124:9217   */\n      tag_239\n        /* \"#utility.yul\":9213:9216   */\n      dup3\n        /* \"#utility.yul\":9124:9217   */\n      tag_146\n      jump\t// in\n    tag_239:\n        /* \"#utility.yul\":9242:9244   */\n      0x40\n        /* \"#utility.yul\":9237:9240   */\n      dup3\n        /* \"#utility.yul\":9233:9245   */\n      add\n        /* \"#utility.yul\":9226:9245   */\n      swap1\n      pop\n        /* \"#utility.yul\":8885:9251   */\n      swap2\n      swap1\n      pop\n      jump\t// out\n        /* \"#utility.yul\":9257:9676   */\n    tag_96:\n        /* \"#utility.yul\":9423:9427   */\n      0x00\n        /* \"#utility.yul\":9461:9463   */\n      0x20\n        /* \"#utility.yul\":9450:9459   */\n      dup3\n        /* \"#utility.yul\":9446:9464   */\n      add\n        /* \"#utility.yul\":9438:9464   */\n      swap1\n      pop\n        /* \"#utility.yul\":9510:9519   */\n      dup2\n        /* \"#utility.yul\":9504:9508   */\n      dup2\n        /* \"#utility.yul\":9500:9520   */\n      sub\n        /* \"#utility.yul\":9496:9497   */\n      0x00\n        /* \"#utility.yul\":9485:9494   */\n      dup4\n        /* \"#utility.yul\":9481:9498   */\n      add\n        /* \"#utility.yul\":9474:9521   */\n      mstore\n        /* \"#utility.yul\":9538:9669   */\n      tag_241\n        /* \"#utility.yul\":9664:9668   */\n      dup2\n        /* \"#utility.yul\":9538:9669   */\n      tag_147\n      jump\t// in\n    tag_241:\n        /* \"#utility.yul\":9530:9669   */\n      swap1\n      pop\n        /* \"#utility.yul\":9257:9676   */\n      swap2\n      swap1\n      pop\n      jump\t// out\n        /* \"#utility.yul\":9682:9912   */\n    tag_148:\n        /* \"#utility.yul\":9822:9856   */\n      0x52657761726420616d6f756e742073686f756c64206265206772656174657220\n        /* \"#utility.yul\":9818:9819   */\n      0x00\n        /* \"#utility.yul\":9810:9816   */\n      dup3\n        /* \"#utility.yul\":9806:9820   */\n      add\n        /* \"#utility.yul\":9799:9857   */\n      mstore\n        /* \"#utility.yul\":9891:9904   */\n      0x7468616e20302e20212121000000000000000000000000000000000000000000\n        /* \"#utility.yul\":9886:9888   */\n      0x20\n        /* \"#utility.yul\":9878:9884   */\n      dup3\n        /* \"#utility.yul\":9874:9889   */\n      add\n        /* \"#utility.yul\":9867:9905   */\n      mstore\n        /* \"#utility.yul\":9682:9912   */\n      pop\n      jump\t// out\n        /* \"#utility.yul\":9918:10284   */\n    tag_149:\n        /* \"#utility.yul\":10060:10063   */\n      0x00\n        /* \"#utility.yul\":10081:10148   */\n      tag_244\n        /* \"#utility.yul\":10145:10147   */\n      0x2b\n        /* \"#utility.yul\":10140:10143   */\n      dup4\n        /* \"#utility.yul\":10081:10148   */\n      tag_135\n      jump\t// in\n    tag_244:\n        /* \"#utility.yul\":10074:10148   */\n      swap2\n      pop\n        /* \"#utility.yul\":10157:10250   */\n      tag_245\n        /* \"#utility.yul\":10246:10249   */\n      dup3\n        /* \"#utility.yul\":10157:10250   */\n      tag_148\n      jump\t// in\n    tag_245:\n        /* \"#utility.yul\":10275:10277   */\n      0x40\n        /* \"#utility.yul\":10270:10273   */\n      dup3\n        /* \"#utility.yul\":10266:10278   */\n      add\n        /* \"#utility.yul\":10259:10278   */\n      swap1\n      pop\n        /* \"#utility.yul\":9918:10284   */\n      swap2\n      swap1\n      pop\n      jump\t// out\n        /* \"#utility.yul\":10290:10709   */\n    tag_106:\n        /* \"#utility.yul\":10456:10460   */\n      0x00\n        /* \"#utility.yul\":10494:10496   */\n      0x20\n        /* \"#utility.yul\":10483:10492   */\n      dup3\n        /* \"#utility.yul\":10479:10497   */\n      add\n        /* \"#utility.yul\":10471:10497   */\n      swap1\n      pop\n        /* \"#utility.yul\":10543:10552   */\n      dup2\n        /* \"#utility.yul\":10537:10541   */\n      dup2\n        /* \"#utility.yul\":10533:10553   */\n      sub\n        /* \"#utility.yul\":10529:10530   */\n      0x00\n        /* \"#utility.yul\":10518:10527   */\n      dup4\n        /* \"#utility.yul\":10514:10531   */\n      add\n        /* \"#utility.yul\":10507:10554   */\n      mstore\n        /* \"#utility.yul\":10571:10702   */\n      tag_247\n        /* \"#utility.yul\":10697:10701   */\n      dup2\n        /* \"#utility.yul\":10571:10702   */\n      tag_149\n      jump\t// in\n    tag_247:\n        /* \"#utility.yul\":10563:10702   */\n      swap1\n      pop\n        /* \"#utility.yul\":10290:10709   */\n      swap2\n      swap1\n      pop\n      jump\t// out\n        /* \"#utility.yul\":10715:10946   */\n    tag_150:\n        /* \"#utility.yul\":10855:10889   */\n      0x4465706f73697420616d6f756e742073686f756c642062652067726561746572\n        /* \"#utility.yul\":10851:10852   */\n      0x00\n        /* \"#utility.yul\":10843:10849   */\n      dup3\n        /* \"#utility.yul\":10839:10853   */\n      add\n        /* \"#utility.yul\":10832:10890   */\n      mstore\n        /* \"#utility.yul\":10924:10938   */\n      0x207468616e20302e202121210000000000000000000000000000000000000000\n        /* \"#utility.yul\":10919:10921   */\n      0x20\n        /* \"#utility.yul\":10911:10917   */\n      dup3\n        /* \"#utility.yul\":10907:10922   */\n      add\n        /* \"#utility.yul\":10900:10939   */\n      mstore\n        /* \"#utility.yul\":10715:10946   */\n      pop\n      jump\t// out\n        /* \"#utility.yul\":10952:11318   */\n    tag_151:\n        /* \"#utility.yul\":11094:11097   */\n      0x00\n        /* \"#utility.yul\":11115:11182   */\n      tag_250\n        /* \"#utility.yul\":11179:11181   */\n      0x2c\n        /* \"#utility.yul\":11174:11177   */\n      dup4\n        /* \"#utility.yul\":11115:11182   */\n      tag_135\n      jump\t// in\n    tag_250:\n        /* \"#utility.yul\":11108:11182   */\n      swap2\n      pop\n        /* \"#utility.yul\":11191:11284   */\n      tag_251\n        /* \"#utility.yul\":11280:11283   */\n      dup3\n        /* \"#utility.yul\":11191:11284   */\n      tag_150\n      jump\t// in\n    tag_251:\n        /* \"#utility.yul\":11309:11311   */\n      0x40\n        /* \"#utility.yul\":11304:11307   */\n      dup3\n        /* \"#utility.yul\":11300:11312   */\n      add\n        /* \"#utility.yul\":11293:11312   */\n      swap1\n      pop\n        /* \"#utility.yul\":10952:11318   */\n      swap2\n      swap1\n      pop\n      jump\t// out\n        /* \"#utility.yul\":11324:11743   */\n    tag_111:\n        /* \"#utility.yul\":11490:11494   */\n      0x00\n        /* \"#utility.yul\":11528:11530   */\n      0x20\n        /* \"#utility.yul\":11517:11526   */\n      dup3\n        /* \"#utility.yul\":11513:11531   */\n      add\n        /* \"#utility.yul\":11505:11531   */\n      swap1\n      pop\n        /* \"#utility.yul\":11577:11586   */\n      dup2\n        /* \"#utility.yul\":11571:11575   */\n      dup2\n        /* \"#utility.yul\":11567:11587   */\n      sub\n        /* \"#utility.yul\":11563:11564   */\n      0x00\n        /* \"#utility.yul\":11552:11561   */\n      dup4\n        /* \"#utility.yul\":11548:11565   */\n      add\n        /* \"#utility.yul\":11541:11588   */\n      mstore\n        /* \"#utility.yul\":11605:11736   */\n      tag_253\n        /* \"#utility.yul\":11731:11735   */\n      dup2\n        /* \"#utility.yul\":11605:11736   */\n      tag_151\n      jump\t// in\n    tag_253:\n        /* \"#utility.yul\":11597:11736   */\n      swap1\n      pop\n        /* \"#utility.yul\":11324:11743   */\n      swap2\n      swap1\n      pop\n      jump\t// out\n        /* \"#utility.yul\":11749:12159   */\n    tag_119:\n        /* \"#utility.yul\":11789:11796   */\n      0x00\n        /* \"#utility.yul\":11812:11832   */\n      tag_255\n        /* \"#utility.yul\":11830:11831   */\n      dup3\n        /* \"#utility.yul\":11812:11832   */\n      tag_130\n      jump\t// in\n    tag_255:\n        /* \"#utility.yul\":11807:11832   */\n      swap2\n      pop\n        /* \"#utility.yul\":11846:11866   */\n      tag_256\n        /* \"#utility.yul\":11864:11865   */\n      dup4\n        /* \"#utility.yul\":11846:11866   */\n      tag_130\n      jump\t// in\n    tag_256:\n        /* \"#utility.yul\":11841:11866   */\n      swap3\n      pop\n        /* \"#utility.yul\":11901:11902   */\n      dup3\n        /* \"#utility.yul\":11898:11899   */\n      dup3\n        /* \"#utility.yul\":11894:11903   */\n      mul\n        /* \"#utility.yul\":11923:11953   */\n      tag_257\n        /* \"#utility.yul\":11941:11952   */\n      dup2\n        /* \"#utility.yul\":11923:11953   */\n      tag_130\n      jump\t// in\n    tag_257:\n        /* \"#utility.yul\":11912:11953   */\n      swap2\n      pop\n        /* \"#utility.yul\":12102:12103   */\n      dup3\n        /* \"#utility.yul\":12093:12100   */\n      dup3\n        /* \"#utility.yul\":12089:12104   */\n      div\n        /* \"#utility.yul\":12086:12087   */\n      dup5\n        /* \"#utility.yul\":12083:12105   */\n      eq\n        /* \"#utility.yul\":12063:12064   */\n      dup4\n        /* \"#utility.yul\":12056:12065   */\n      iszero\n        /* \"#utility.yul\":12036:12119   */\n      or\n        /* \"#utility.yul\":12013:12152   */\n      tag_258\n      jumpi\n        /* \"#utility.yul\":12132:12150   */\n      tag_259\n      tag_141\n      jump\t// in\n    tag_259:\n        /* \"#utility.yul\":12013:12152   */\n    tag_258:\n        /* \"#utility.yul\":11797:12159   */\n      pop\n        /* \"#utility.yul\":11749:12159   */\n      swap3\n      swap2\n      pop\n      pop\n      jump\t// out\n\n    auxdata: 0xa2646970667358221220f6ca1813ee40b8a77bf27ede313b3e6849cd8641d57486bd87b737843333580c64736f6c634300081c0033\n}\n",
				"bytecode": {
					"linkReferences": {},
					"object": "6080604052348015600e575f5ffd5b50335f5f6101000a81548173ffffffffffffffffffffffffffffffffffffffff021916908373ffffffffffffffffffffffffffffffffffffffff1602179055506110828061005b5f395ff3fe6080604052600436106100a6575f3560e01c80635997bb37116100635780635997bb371461016e57806366666aa9146101985780639168ae72146101c2578063d0e30db0146101ff578063d7bf54b214610209578063d82e396214610233576100a6565b806302fb4d85146100aa57806307236168146100d25780632e1a7d4d146100fc578063372500ab1461012457806349b22a9f1461013a5780634ec7b7a314610144575b5f5ffd5b3480156100b5575f5ffd5b506100d060048036038101906100cb9190610a1e565b61026f565b005b3480156100dd575f5ffd5b506100e661045d565b6040516100f39190610a6b565b60405180910390f35b348015610107575f5ffd5b50610122600480360381019061011d9190610a84565b610462565b005b34801561012f575f5ffd5b50610138610597565b005b6101426106b1565b005b34801561014f575f5ffd5b5061015861079b565b6040516101659190610abe565b60405180910390f35b348015610179575f5ffd5b506101826107bf565b60405161018f9190610a6b565b60405180910390f35b3480156101a3575f5ffd5b506101ac6107c4565b6040516101b99190610a6b565b60405180910390f35b3480156101cd575f5ffd5b506101e860048036038101906101e39190610ad7565b6107ca565b6040516101f6929190610b02565b60405180910390f35b6102076107ea565b005b348015610214575f5ffd5b5061021d6108eb565b60405161022a9190610a6b565b60405180910390f35b34801561023e575f5ffd5b5061025960048036038101906102549190610ad7565b6108f1565b6040516102669190610a6b565b60405180910390f35b5f5f9054906101000a900473ffffffffffffffffffffffffffffffffffffffff1673ffffffffffffffffffffffffffffffffffffffff163373ffffffffffffffffffffffffffffffffffffffff16146102fd576040517f08c379a00000000000000000000000000000000000000000000000000000000081526004016102f490610ba9565b60405180910390fd5b5f60025f8473ffffffffffffffffffffffffffffffffffffffff1673ffffffffffffffffffffffffffffffffffffffff1681526020019081526020015f2090505f815f015411610382576040517f08c379a000000000000000000000000000000000000000000000000000000000815260040161037990610c37565b60405180910390fd5b5f6002825f01546103939190610caf565b9050808311156103d8576040517f08c379a00000000000000000000000000000000000000000000000000000000081526004016103cf90610d4f565b60405180910390fd5b82825f015f8282546103ea9190610d6d565b925050819055508260035f8282546104029190610da0565b925050819055508373ffffffffffffffffffffffffffffffffffffffff167f4b28c7dc138644f27518388387393ecbd08ef8d180a4a6799c954be166a37ab38460405161044f9190610a6b565b60405180910390a250505050565b60b481565b5f60025f3373ffffffffffffffffffffffffffffffffffffffff1673ffffffffffffffffffffffffffffffffffffffff1681526020019081526020015f20905081815f015410156104e8576040517f08c379a00000000000000000000000000000000000000000000000000000000081526004016104df90610e43565b60405180910390fd5b81815f015f8282546104fa9190610d6d565b925050819055503373ffffffffffffffffffffffffffffffffffffffff166108fc8390811502906040515f60405180830381858888f19350505050158015610544573d5f5f3e3d5ffd5b503373ffffffffffffffffffffffffffffffffffffffff167f884edad9ce6fa2440d8a54cc123490eb96d2768479d49ff9c7366125a94243648360405161058b9190610a6b565b60405180910390a25050565b5f60025f3373ffffffffffffffffffffffffffffffffffffffff1673ffffffffffffffffffffffffffffffffffffffff1681526020019081526020015f2090505f6105e1336108f1565b90505f8111610625576040517f08c379a000000000000000000000000000000000000000000000000000000000815260040161061c90610ed1565b60405180910390fd5b80825f015f8282546106379190610da0565b925050819055504282600101819055508060015f8282546106589190610d6d565b925050819055503373ffffffffffffffffffffffffffffffffffffffff167f1f89f96333d3133000ee447473151fa9606543368f02271c9d95ae14f13bcc67826040516106a59190610a6b565b60405180910390a25050565b5f5f9054906101000a900473ffffffffffffffffffffffffffffffffffffffff1673ffffffffffffffffffffffffffffffffffffffff163373ffffffffffffffffffffffffffffffffffffffff161461073f576040517f08c379a000000000000000000000000000000000000000000000000000000000815260040161073690610ba9565b60405180910390fd5b5f3411610781576040517f08c379a000000000000000000000000000000000000000000000000000000000815260040161077890610f5f565b60405180910390fd5b3460015f8282546107929190610da0565b92505081905550565b5f5f9054906101000a900473ffffffffffffffffffffffffffffffffffffffff1681565b600581565b60015481565b6002602052805f5260405f205f91509050805f0154908060010154905082565b5f341161082c576040517f08c379a000000000000000000000000000000000000000000000000000000000815260040161082390610fed565b60405180910390fd5b5f60025f3373ffffffffffffffffffffffffffffffffffffffff1673ffffffffffffffffffffffffffffffffffffffff1681526020019081526020015f20905034815f015f82825461087e9190610da0565b925050819055505f81600101540361089a574281600101819055505b3373ffffffffffffffffffffffffffffffffffffffff167fe1fffcc4923d04b559f4d29a8bfc6cda04eb5b0d3c460751c2402c5c5cc9109c346040516108e09190610a6b565b60405180910390a250565b60035481565b5f5f60025f8473ffffffffffffffffffffffffffffffffffffffff1673ffffffffffffffffffffffffffffffffffffffff1681526020019081526020015f20905060b481600101546109439190610da0565b4210610983575f60646005835f015461095c919061100b565b6109669190610caf565b9050600154811115610978575f61097a565b805b92505050610988565b5f9150505b919050565b5f5ffd5b5f73ffffffffffffffffffffffffffffffffffffffff82169050919050565b5f6109ba82610991565b9050919050565b6109ca816109b0565b81146109d4575f5ffd5b50565b5f813590506109e5816109c1565b92915050565b5f819050919050565b6109fd816109eb565b8114610a07575f5ffd5b50565b5f81359050610a18816109f4565b92915050565b5f5f60408385031215610a3457610a3361098d565b5b5f610a41858286016109d7565b9250506020610a5285828601610a0a565b9150509250929050565b610a65816109eb565b82525050565b5f602082019050610a7e5f830184610a5c565b92915050565b5f60208284031215610a9957610a9861098d565b5b5f610aa684828501610a0a565b91505092915050565b610ab8816109b0565b82525050565b5f602082019050610ad15f830184610aaf565b92915050565b5f60208284031215610aec57610aeb61098d565b5b5f610af9848285016109d7565b91505092915050565b5f604082019050610b155f830185610a5c565b610b226020830184610a5c565b9392505050565b5f82825260208201905092915050565b7f4f6e6c7920746865206f776e65722063616e20706572666f726d2074686973205f8201527f616374696f6e0000000000000000000000000000000000000000000000000000602082015250565b5f610b93602683610b29565b9150610b9e82610b39565b604082019050919050565b5f6020820190508181035f830152610bc081610b87565b9050919050565b7f496e76616c6964205374616b65722061646472657373206f72206e6f2066756e5f8201527f647320746f20736c617368212100000000000000000000000000000000000000602082015250565b5f610c21602d83610b29565b9150610c2c82610bc7565b604082019050919050565b5f6020820190508181035f830152610c4e81610c15565b9050919050565b7f4e487b71000000000000000000000000000000000000000000000000000000005f52601260045260245ffd5b7f4e487b71000000000000000000000000000000000000000000000000000000005f52601160045260245ffd5b5f610cb9826109eb565b9150610cc4836109eb565b925082610cd457610cd3610c55565b5b828204905092915050565b7f50656e616c747920657863656564732074686520616c6c6f776564206d6178695f8201527f6d756d2121000000000000000000000000000000000000000000000000000000602082015250565b5f610d39602583610b29565b9150610d4482610cdf565b604082019050919050565b5f6020820190508181035f830152610d6681610d2d565b9050919050565b5f610d77826109eb565b9150610d82836109eb565b9250828203905081811115610d9a57610d99610c82565b5b92915050565b5f610daa826109eb565b9150610db5836109eb565b9250828201905080821115610dcd57610dcc610c82565b5b92915050565b7f496e73756666696369656e7421212062616c616e636520746f207769746864725f8201527f61772e0000000000000000000000000000000000000000000000000000000000602082015250565b5f610e2d602383610b29565b9150610e3882610dd3565b604082019050919050565b5f6020820190508181035f830152610e5a81610e21565b9050919050565b7f4e6f207265776172647320617661696c61626c652121206f7220696e737566665f8201527f696369656e742072657761726420706f6f6c2121210000000000000000000000602082015250565b5f610ebb603583610b29565b9150610ec682610e61565b604082019050919050565b5f6020820190508181035f830152610ee881610eaf565b9050919050565b7f52657761726420616d6f756e742073686f756c642062652067726561746572205f8201527f7468616e20302e20212121000000000000000000000000000000000000000000602082015250565b5f610f49602b83610b29565b9150610f5482610eef565b604082019050919050565b5f6020820190508181035f830152610f7681610f3d565b9050919050565b7f4465706f73697420616d6f756e742073686f756c6420626520677265617465725f8201527f207468616e20302e202121210000000000000000000000000000000000000000602082015250565b5f610fd7602c83610b29565b9150610fe282610f7d565b604082019050919050565b5f6020820190508181035f83015261100481610fcb565b9050919050565b5f611015826109eb565b9150611020836109eb565b925082820261102e816109eb565b9150828204841483151761104557611044610c82565b5b509291505056fea2646970667358221220f6ca1813ee40b8a77bf27ede313b3e6849cd8641d57486bd87b737843333580c64736f6c634300081c0033",
					"opcodes": "PUSH1 0x80 PUSH1 0x40 MSTORE CALLVALUE DUP1 ISZERO PUSH1 0xE JUMPI PUSH0 PUSH0 REVERT JUMPDEST POP CALLER PUSH0 PUSH0 PUSH2 0x100 EXP DUP2 SLOAD DUP2 PUSH20 0xFFFFFFFFFFFFFFFFFFFFFFFFFFFFFFFFFFFFFFFF MUL NOT AND SWAP1 DUP4 PUSH20 0xFFFFFFFFFFFFFFFFFFFFFFFFFFFFFFFFFFFFFFFF AND MUL OR SWAP1 SSTORE POP PUSH2 0x1082 DUP1 PUSH2 0x5B PUSH0 CODECOPY PUSH0 RETURN INVALID PUSH1 0x80 PUSH1 0x40 MSTORE PUSH1 0x4 CALLDATASIZE LT PUSH2 0xA6 JUMPI PUSH0 CALLDATALOAD PUSH1 0xE0 SHR DUP1 PUSH4 0x5997BB37 GT PUSH2 0x63 JUMPI DUP1 PUSH4 0x5997BB37 EQ PUSH2 0x16E JUMPI DUP1 PUSH4 0x66666AA9 EQ PUSH2 0x198 JUMPI DUP1 PUSH4 0x9168AE72 EQ PUSH2 0x1C2 JUMPI DUP1 PUSH4 0xD0E30DB0 EQ PUSH2 0x1FF JUMPI DUP1 PUSH4 0xD7BF54B2 EQ PUSH2 0x209 JUMPI DUP1 PUSH4 0xD82E3962 EQ PUSH2 0x233 JUMPI PUSH2 0xA6 JUMP JUMPDEST DUP1 PUSH4 0x2FB4D85 EQ PUSH2 0xAA JUMPI DUP1 PUSH4 0x7236168 EQ PUSH2 0xD2 JUMPI DUP1 PUSH4 0x2E1A7D4D EQ PUSH2 0xFC JUMPI DUP1 PUSH4 0x372500AB EQ PUSH2 0x124 JUMPI DUP1 PUSH4 0x49B22A9F EQ PUSH2 0x13A JUMPI DUP1 PUSH4 0x4EC7B7A3 EQ PUSH2 0x144 JUMPI JUMPDEST PUSH0 PUSH0 REVERT JUMPDEST CALLVALUE DUP1 ISZERO PUSH2 0xB5 JUMPI PUSH0 PUSH0 REVERT JUMPDEST POP PUSH2 0xD0 PUSH1 0x4 DUP1 CALLDATASIZE SUB DUP2 ADD SWAP1 PUSH2 0xCB SWAP2 SWAP1 PUSH2 0xA1E JUMP JUMPDEST PUSH2 0x26F JUMP JUMPDEST STOP JUMPDEST CALLVALUE DUP1 ISZERO PUSH2 0xDD JUMPI PUSH0 PUSH0 REVERT JUMPDEST POP PUSH2 0xE6 PUSH2 0x45D JUMP JUMPDEST PUSH1 0x40 MLOAD PUSH2 0xF3 SWAP2 SWAP1 PUSH2 0xA6B JUMP JUMPDEST PUSH1 0x40 MLOAD DUP1 SWAP2 SUB SWAP1 RETURN JUMPDEST CALLVALUE DUP1 ISZERO PUSH2 0x107 JUMPI PUSH0 PUSH0 REVERT JUMPDEST POP PUSH2 0x122 PUSH1 0x4 DUP1 CALLDATASIZE SUB DUP2 ADD SWAP1 PUSH2 0x11D SWAP2 SWAP1 PUSH2 0xA84 JUMP JUMPDEST PUSH2 0x462 JUMP JUMPDEST STOP JUMPDEST CALLVALUE DUP1 ISZERO PUSH2 0x12F JUMPI PUSH0 PUSH0 REVERT JUMPDEST POP PUSH2 0x138 PUSH2 0x597 JUMP JUMPDEST STOP JUMPDEST PUSH2 0x142 PUSH2 0x6B1 JUMP JUMPDEST STOP JUMPDEST CALLVALUE DUP1 ISZERO PUSH2 0x14F JUMPI PUSH0 PUSH0 REVERT JUMPDEST POP PUSH2 0x158 PUSH2 0x79B JUMP JUMPDEST PUSH1 0x40 MLOAD PUSH2 0x165 SWAP2 SWAP1 PUSH2 0xABE JUMP JUMPDEST PUSH1 0x40 MLOAD DUP1 SWAP2 SUB SWAP1 RETURN JUMPDEST CALLVALUE DUP1 ISZERO PUSH2 0x179 JUMPI PUSH0 PUSH0 REVERT JUMPDEST POP PUSH2 0x182 PUSH2 0x7BF JUMP JUMPDEST PUSH1 0x40 MLOAD PUSH2 0x18F SWAP2 SWAP1 PUSH2 0xA6B JUMP JUMPDEST PUSH1 0x40 MLOAD DUP1 SWAP2 SUB SWAP1 RETURN JUMPDEST CALLVALUE DUP1 ISZERO PUSH2 0x1A3 JUMPI PUSH0 PUSH0 REVERT JUMPDEST POP PUSH2 0x1AC PUSH2 0x7C4 JUMP JUMPDEST PUSH1 0x40 MLOAD PUSH2 0x1B9 SWAP2 SWAP1 PUSH2 0xA6B JUMP JUMPDEST PUSH1 0x40 MLOAD DUP1 SWAP2 SUB SWAP1 RETURN JUMPDEST CALLVALUE DUP1 ISZERO PUSH2 0x1CD JUMPI PUSH0 PUSH0 REVERT JUMPDEST POP PUSH2 0x1E8 PUSH1 0x4 DUP1 CALLDATASIZE SUB DUP2 ADD SWAP1 PUSH2 0x1E3 SWAP2 SWAP1 PUSH2 0xAD7 JUMP JUMPDEST PUSH2 0x7CA JUMP JUMPDEST PUSH1 0x40 MLOAD PUSH2 0x1F6 SWAP3 SWAP2 SWAP1 PUSH2 0xB02 JUMP JUMPDEST PUSH1 0x40 MLOAD DUP1 SWAP2 SUB SWAP1 RETURN JUMPDEST PUSH2 0x207 PUSH2 0x7EA JUMP JUMPDEST STOP JUMPDEST CALLVALUE DUP1 ISZERO PUSH2 0x214 JUMPI PUSH0 PUSH0 REVERT JUMPDEST POP PUSH2 0x21D PUSH2 0x8EB JUMP JUMPDEST PUSH1 0x40 MLOAD PUSH2 0x22A SWAP2 SWAP1 PUSH2 0xA6B JUMP JUMPDEST PUSH1 0x40 MLOAD DUP1 SWAP2 SUB SWAP1 RETURN JUMPDEST CALLVALUE DUP1 ISZERO PUSH2 0x23E JUMPI PUSH0 PUSH0 REVERT JUMPDEST POP PUSH2 0x259 PUSH1 0x4 DUP1 CALLDATASIZE SUB DUP2 ADD SWAP1 PUSH2 0x254 SWAP2 SWAP1 PUSH2 0xAD7 JUMP JUMPDEST PUSH2 0x8F1 JUMP JUMPDEST PUSH1 0x40 MLOAD PUSH2 0x266 SWAP2 SWAP1 PUSH2 0xA6B JUMP JUMPDEST PUSH1 0x40 MLOAD DUP1 SWAP2 SUB SWAP1 RETURN JUMPDEST PUSH0 PUSH0 SWAP1 SLOAD SWAP1 PUSH2 0x100 EXP SWAP1 DIV PUSH20 0xFFFFFFFFFFFFFFFFFFFFFFFFFFFFFFFFFFFFFFFF AND PUSH20 0xFFFFFFFFFFFFFFFFFFFFFFFFFFFFFFFFFFFFFFFF AND CALLER PUSH20 0xFFFFFFFFFFFFFFFFFFFFFFFFFFFFFFFFFFFFFFFF AND EQ PUSH2 0x2FD JUMPI PUSH1 0x40 MLOAD PUSH32 0x8C379A000000000000000000000000000000000000000000000000000000000 DUP2 MSTORE PUSH1 0x4 ADD PUSH2 0x2F4 SWAP1 PUSH2 0xBA9 JUMP JUMPDEST PUSH1 0x40 MLOAD DUP1 SWAP2 SUB SWAP1 REVERT JUMPDEST PUSH0 PUSH1 0x2 PUSH0 DUP5 PUSH20 0xFFFFFFFFFFFFFFFFFFFFFFFFFFFFFFFFFFFFFFFF AND PUSH20 0xFFFFFFFFFFFFFFFFFFFFFFFFFFFFFFFFFFFFFFFF AND DUP2 MSTORE PUSH1 0x20 ADD SWAP1 DUP2 MSTORE PUSH1 0x20 ADD PUSH0 KECCAK256 SWAP1 POP PUSH0 DUP2 PUSH0 ADD SLOAD GT PUSH2 0x382 JUMPI PUSH1 0x40 MLOAD PUSH32 0x8C379A000000000000000000000000000000000000000000000000000000000 DUP2 MSTORE PUSH1 0x4 ADD PUSH2 0x379 SWAP1 PUSH2 0xC37 JUMP JUMPDEST PUSH1 0x40 MLOAD DUP1 SWAP2 SUB SWAP1 REVERT JUMPDEST PUSH0 PUSH1 0x2 DUP3 PUSH0 ADD SLOAD PUSH2 0x393 SWAP2 SWAP1 PUSH2 0xCAF JUMP JUMPDEST SWAP1 POP DUP1 DUP4 GT ISZERO PUSH2 0x3D8 JUMPI PUSH1 0x40 MLOAD PUSH32 0x8C379A000000000000000000000000000000000000000000000000000000000 DUP2 MSTORE PUSH1 0x4 ADD PUSH2 0x3CF SWAP1 PUSH2 0xD4F JUMP JUMPDEST PUSH1 0x40 MLOAD DUP1 SWAP2 SUB SWAP1 REVERT JUMPDEST DUP3 DUP3 PUSH0 ADD PUSH0 DUP3 DUP3 SLOAD PUSH2 0x3EA SWAP2 SWAP1 PUSH2 0xD6D JUMP JUMPDEST SWAP3 POP POP DUP2 SWAP1 SSTORE POP DUP3 PUSH1 0x3 PUSH0 DUP3 DUP3 SLOAD PUSH2 0x402 SWAP2 SWAP1 PUSH2 0xDA0 JUMP JUMPDEST SWAP3 POP POP DUP2 SWAP1 SSTORE POP DUP4 PUSH20 0xFFFFFFFFFFFFFFFFFFFFFFFFFFFFFFFFFFFFFFFF AND PUSH32 0x4B28C7DC138644F27518388387393ECBD08EF8D180A4A6799C954BE166A37AB3 DUP5 PUSH1 0x40 MLOAD PUSH2 0x44F SWAP2 SWAP1 PUSH2 0xA6B JUMP JUMPDEST PUSH1 0x40 MLOAD DUP1 SWAP2 SUB SWAP1 LOG2 POP POP POP POP JUMP JUMPDEST PUSH1 0xB4 DUP2 JUMP JUMPDEST PUSH0 PUSH1 0x2 PUSH0 CALLER PUSH20 0xFFFFFFFFFFFFFFFFFFFFFFFFFFFFFFFFFFFFFFFF AND PUSH20 0xFFFFFFFFFFFFFFFFFFFFFFFFFFFFFFFFFFFFFFFF AND DUP2 MSTORE PUSH1 0x20 ADD SWAP1 DUP2 MSTORE PUSH1 0x20 ADD PUSH0 KECCAK256 SWAP1 POP DUP2 DUP2 PUSH0 ADD SLOAD LT ISZERO PUSH2 0x4E8 JUMPI PUSH1 0x40 MLOAD PUSH32 0x8C379A000000000000000000000000000000000000000000000000000000000 DUP2 MSTORE PUSH1 0x4 ADD PUSH2 0x4DF SWAP1 PUSH2 0xE43 JUMP JUMPDEST PUSH1 0x40 MLOAD DUP1 SWAP2 SUB SWAP1 REVERT JUMPDEST DUP2 DUP2 PUSH0 ADD PUSH0 DUP3 DUP3 SLOAD PUSH2 0x4FA SWAP2 SWAP1 PUSH2 0xD6D JUMP JUMPDEST SWAP3 POP POP DUP2 SWAP1 SSTORE POP CALLER PUSH20 0xFFFFFFFFFFFFFFFFFFFFFFFFFFFFFFFFFFFFFFFF AND PUSH2 0x8FC DUP4 SWAP1 DUP2 ISZERO MUL SWAP1 PUSH1 0x40 MLOAD PUSH0 PUSH1 0x40 MLOAD DUP1 DUP4 SUB DUP2 DUP6 DUP9 DUP9 CALL SWAP4 POP POP POP POP ISZERO DUP1 ISZERO PUSH2 0x544 JUMPI RETURNDATASIZE PUSH0 PUSH0 RETURNDATACOPY RETURNDATASIZE PUSH0 REVERT JUMPDEST POP CALLER PUSH20 0xFFFFFFFFFFFFFFFFFFFFFFFFFFFFFFFFFFFFFFFF AND PUSH32 0x884EDAD9CE6FA2440D8A54CC123490EB96D2768479D49FF9C7366125A9424364 DUP4 PUSH1 0x40 MLOAD PUSH2 0x58B SWAP2 SWAP1 PUSH2 0xA6B JUMP JUMPDEST PUSH1 0x40 MLOAD DUP1 SWAP2 SUB SWAP1 LOG2 POP POP JUMP JUMPDEST PUSH0 PUSH1 0x2 PUSH0 CALLER PUSH20 0xFFFFFFFFFFFFFFFFFFFFFFFFFFFFFFFFFFFFFFFF AND PUSH20 0xFFFFFFFFFFFFFFFFFFFFFFFFFFFFFFFFFFFFFFFF AND DUP2 MSTORE PUSH1 0x20 ADD SWAP1 DUP2 MSTORE PUSH1 0x20 ADD PUSH0 KECCAK256 SWAP1 POP PUSH0 PUSH2 0x5E1 CALLER PUSH2 0x8F1 JUMP JUMPDEST SWAP1 POP PUSH0 DUP2 GT PUSH2 0x625 JUMPI PUSH1 0x40 MLOAD PUSH32 0x8C379A000000000000000000000000000000000000000000000000000000000 DUP2 MSTORE PUSH1 0x4 ADD PUSH2 0x61C SWAP1 PUSH2 0xED1 JUMP JUMPDEST PUSH1 0x40 MLOAD DUP1 SWAP2 SUB SWAP1 REVERT JUMPDEST DUP1 DUP3 PUSH0 ADD PUSH0 DUP3 DUP3 SLOAD PUSH2 0x637 SWAP2 SWAP1 PUSH2 0xDA0 JUMP JUMPDEST SWAP3 POP POP DUP2 SWAP1 SSTORE POP TIMESTAMP DUP3 PUSH1 0x1 ADD DUP2 SWAP1 SSTORE POP DUP1 PUSH1 0x1 PUSH0 DUP3 DUP3 SLOAD PUSH2 0x658 SWAP2 SWAP1 PUSH2 0xD6D JUMP JUMPDEST SWAP3 POP POP DUP2 SWAP1 SSTORE POP CALLER PUSH20 0xFFFFFFFFFFFFFFFFFFFFFFFFFFFFFFFFFFFFFFFF AND PUSH32 0x1F89F96333D3133000EE447473151FA9606543368F02271C9D95AE14F13BCC67 DUP3 PUSH1 0x40 MLOAD PUSH2 0x6A5 SWAP2 SWAP1 PUSH2 0xA6B JUMP JUMPDEST PUSH1 0x40 MLOAD DUP1 SWAP2 SUB SWAP1 LOG2 POP POP JUMP JUMPDEST PUSH0 PUSH0 SWAP1 SLOAD SWAP1 PUSH2 0x100 EXP SWAP1 DIV PUSH20 0xFFFFFFFFFFFFFFFFFFFFFFFFFFFFFFFFFFFFFFFF AND PUSH20 0xFFFFFFFFFFFFFFFFFFFFFFFFFFFFFFFFFFFFFFFF AND CALLER PUSH20 0xFFFFFFFFFFFFFFFFFFFFFFFFFFFFFFFFFFFFFFFF AND EQ PUSH2 0x73F JUMPI PUSH1 0x40 MLOAD PUSH32 0x8C379A000000000000000000000000000000000000000000000000000000000 DUP2 MSTORE PUSH1 0x4 ADD PUSH2 0x736 SWAP1 PUSH2 0xBA9 JUMP JUMPDEST PUSH1 0x40 MLOAD DUP1 SWAP2 SUB SWAP1 REVERT JUMPDEST PUSH0 CALLVALUE GT PUSH2 0x781 JUMPI PUSH1 0x40 MLOAD PUSH32 0x8C379A000000000000000000000000000000000000000000000000000000000 DUP2 MSTORE PUSH1 0x4 ADD PUSH2 0x778 SWAP1 PUSH2 0xF5F JUMP JUMPDEST PUSH1 0x40 MLOAD DUP1 SWAP2 SUB SWAP1 REVERT JUMPDEST CALLVALUE PUSH1 0x1 PUSH0 DUP3 DUP3 SLOAD PUSH2 0x792 SWAP2 SWAP1 PUSH2 0xDA0 JUMP JUMPDEST SWAP3 POP POP DUP2 SWAP1 SSTORE POP JUMP JUMPDEST PUSH0 PUSH0 SWAP1 SLOAD SWAP1 PUSH2 0x100 EXP SWAP1 DIV PUSH20 0xFFFFFFFFFFFFFFFFFFFFFFFFFFFFFFFFFFFFFFFF AND DUP2 JUMP JUMPDEST PUSH1 0x5 DUP2 JUMP JUMPDEST PUSH1 0x1 SLOAD DUP2 JUMP JUMPDEST PUSH1 0x2 PUSH1 0x20 MSTORE DUP1 PUSH0 MSTORE PUSH1 0x40 PUSH0 KECCAK256 PUSH0 SWAP2 POP SWAP1 POP DUP1 PUSH0 ADD SLOAD SWAP1 DUP1 PUSH1 0x1 ADD SLOAD SWAP1 POP DUP3 JUMP JUMPDEST PUSH0 CALLVALUE GT PUSH2 0x82C JUMPI PUSH1 0x40 MLOAD PUSH32 0x8C379A000000000000000000000000000000000000000000000000000000000 DUP2 MSTORE PUSH1 0x4 ADD PUSH2 0x823 SWAP1 PUSH2 0xFED JUMP JUMPDEST PUSH1 0x40 MLOAD DUP1 SWAP2 SUB SWAP1 REVERT JUMPDEST PUSH0 PUSH1 0x2 PUSH0 CALLER PUSH20 0xFFFFFFFFFFFFFFFFFFFFFFFFFFFFFFFFFFFFFFFF AND PUSH20 0xFFFFFFFFFFFFFFFFFFFFFFFFFFFFFFFFFFFFFFFF AND DUP2 MSTORE PUSH1 0x20 ADD SWAP1 DUP2 MSTORE PUSH1 0x20 ADD PUSH0 KECCAK256 SWAP1 POP CALLVALUE DUP2 PUSH0 ADD PUSH0 DUP3 DUP3 SLOAD PUSH2 0x87E SWAP2 SWAP1 PUSH2 0xDA0 JUMP JUMPDEST SWAP3 POP POP DUP2 SWAP1 SSTORE POP PUSH0 DUP2 PUSH1 0x1 ADD SLOAD SUB PUSH2 0x89A JUMPI TIMESTAMP DUP2 PUSH1 0x1 ADD DUP2 SWAP1 SSTORE POP JUMPDEST CALLER PUSH20 0xFFFFFFFFFFFFFFFFFFFFFFFFFFFFFFFFFFFFFFFF AND PUSH32 0xE1FFFCC4923D04B559F4D29A8BFC6CDA04EB5B0D3C460751C2402C5C5CC9109C CALLVALUE PUSH1 0x40 MLOAD PUSH2 0x8E0 SWAP2 SWAP1 PUSH2 0xA6B JUMP JUMPDEST PUSH1 0x40 MLOAD DUP1 SWAP2 SUB SWAP1 LOG2 POP JUMP JUMPDEST PUSH1 0x3 SLOAD DUP2 JUMP JUMPDEST PUSH0 PUSH0 PUSH1 0x2 PUSH0 DUP5 PUSH20 0xFFFFFFFFFFFFFFFFFFFFFFFFFFFFFFFFFFFFFFFF AND PUSH20 0xFFFFFFFFFFFFFFFFFFFFFFFFFFFFFFFFFFFFFFFF AND DUP2 MSTORE PUSH1 0x20 ADD SWAP1 DUP2 MSTORE PUSH1 0x20 ADD PUSH0 KECCAK256 SWAP1 POP PUSH1 0xB4 DUP2 PUSH1 0x1 ADD SLOAD PUSH2 0x943 SWAP2 SWAP1 PUSH2 0xDA0 JUMP JUMPDEST TIMESTAMP LT PUSH2 0x983 JUMPI PUSH0 PUSH1 0x64 PUSH1 0x5 DUP4 PUSH0 ADD SLOAD PUSH2 0x95C SWAP2 SWAP1 PUSH2 0x100B JUMP JUMPDEST PUSH2 0x966 SWAP2 SWAP1 PUSH2 0xCAF JUMP JUMPDEST SWAP1 POP PUSH1 0x1 SLOAD DUP2 GT ISZERO PUSH2 0x978 JUMPI PUSH0 PUSH2 0x97A JUMP JUMPDEST DUP1 JUMPDEST SWAP3 POP POP POP PUSH2 0x988 JUMP JUMPDEST PUSH0 SWAP2 POP POP JUMPDEST SWAP2 SWAP1 POP JUMP JUMPDEST PUSH0 PUSH0 REVERT JUMPDEST PUSH0 PUSH20 0xFFFFFFFFFFFFFFFFFFFFFFFFFFFFFFFFFFFFFFFF DUP3 AND SWAP1 POP SWAP2 SWAP1 POP JUMP JUMPDEST PUSH0 PUSH2 0x9BA DUP3 PUSH2 0x991 JUMP JUMPDEST SWAP1 POP SWAP2 SWAP1 POP JUMP JUMPDEST PUSH2 0x9CA DUP2 PUSH2 0x9B0 JUMP JUMPDEST DUP2 EQ PUSH2 0x9D4 JUMPI PUSH0 PUSH0 REVERT JUMPDEST POP JUMP JUMPDEST PUSH0 DUP2 CALLDATALOAD SWAP1 POP PUSH2 0x9E5 DUP2 PUSH2 0x9C1 JUMP JUMPDEST SWAP3 SWAP2 POP POP JUMP JUMPDEST PUSH0 DUP2 SWAP1 POP SWAP2 SWAP1 POP JUMP JUMPDEST PUSH2 0x9FD DUP2 PUSH2 0x9EB JUMP JUMPDEST DUP2 EQ PUSH2 0xA07 JUMPI PUSH0 PUSH0 REVERT JUMPDEST POP JUMP JUMPDEST PUSH0 DUP2 CALLDATALOAD SWAP1 POP PUSH2 0xA18 DUP2 PUSH2 0x9F4 JUMP JUMPDEST SWAP3 SWAP2 POP POP JUMP JUMPDEST PUSH0 PUSH0 PUSH1 0x40 DUP4 DUP6 SUB SLT ISZERO PUSH2 0xA34 JUMPI PUSH2 0xA33 PUSH2 0x98D JUMP JUMPDEST JUMPDEST PUSH0 PUSH2 0xA41 DUP6 DUP3 DUP7 ADD PUSH2 0x9D7 JUMP JUMPDEST SWAP3 POP POP PUSH1 0x20 PUSH2 0xA52 DUP6 DUP3 DUP7 ADD PUSH2 0xA0A JUMP JUMPDEST SWAP2 POP POP SWAP3 POP SWAP3 SWAP1 POP JUMP JUMPDEST PUSH2 0xA65 DUP2 PUSH2 0x9EB JUMP JUMPDEST DUP3 MSTORE POP POP JUMP JUMPDEST PUSH0 PUSH1 0x20 DUP3 ADD SWAP1 POP PUSH2 0xA7E PUSH0 DUP4 ADD DUP5 PUSH2 0xA5C JUMP JUMPDEST SWAP3 SWAP2 POP POP JUMP JUMPDEST PUSH0 PUSH1 0x20 DUP3 DUP5 SUB SLT ISZERO PUSH2 0xA99 JUMPI PUSH2 0xA98 PUSH2 0x98D JUMP JUMPDEST JUMPDEST PUSH0 PUSH2 0xAA6 DUP5 DUP3 DUP6 ADD PUSH2 0xA0A JUMP JUMPDEST SWAP2 POP POP SWAP3 SWAP2 POP POP JUMP JUMPDEST PUSH2 0xAB8 DUP2 PUSH2 0x9B0 JUMP JUMPDEST DUP3 MSTORE POP POP JUMP JUMPDEST PUSH0 PUSH1 0x20 DUP3 ADD SWAP1 POP PUSH2 0xAD1 PUSH0 DUP4 ADD DUP5 PUSH2 0xAAF JUMP JUMPDEST SWAP3 SWAP2 POP POP JUMP JUMPDEST PUSH0 PUSH1 0x20 DUP3 DUP5 SUB SLT ISZERO PUSH2 0xAEC JUMPI PUSH2 0xAEB PUSH2 0x98D JUMP JUMPDEST JUMPDEST PUSH0 PUSH2 0xAF9 DUP5 DUP3 DUP6 ADD PUSH2 0x9D7 JUMP JUMPDEST SWAP2 POP POP SWAP3 SWAP2 POP POP JUMP JUMPDEST PUSH0 PUSH1 0x40 DUP3 ADD SWAP1 POP PUSH2 0xB15 PUSH0 DUP4 ADD DUP6 PUSH2 0xA5C JUMP JUMPDEST PUSH2 0xB22 PUSH1 0x20 DUP4 ADD DUP5 PUSH2 0xA5C JUMP JUMPDEST SWAP4 SWAP3 POP POP POP JUMP JUMPDEST PUSH0 DUP3 DUP3 MSTORE PUSH1 0x20 DUP3 ADD SWAP1 POP SWAP3 SWAP2 POP POP JUMP JUMPDEST PUSH32 0x4F6E6C7920746865206F776E65722063616E20706572666F726D207468697320 PUSH0 DUP3 ADD MSTORE PUSH32 0x616374696F6E0000000000000000000000000000000000000000000000000000 PUSH1 0x20 DUP3 ADD MSTORE POP JUMP JUMPDEST PUSH0 PUSH2 0xB93 PUSH1 0x26 DUP4 PUSH2 0xB29 JUMP JUMPDEST SWAP2 POP PUSH2 0xB9E DUP3 PUSH2 0xB39 JUMP JUMPDEST PUSH1 0x40 DUP3 ADD SWAP1 POP SWAP2 SWAP1 POP JUMP JUMPDEST PUSH0 PUSH1 0x20 DUP3 ADD SWAP1 POP DUP2 DUP2 SUB PUSH0 DUP4 ADD MSTORE PUSH2 0xBC0 DUP2 PUSH2 0xB87 JUMP JUMPDEST SWAP1 POP SWAP2 SWAP1 POP JUMP JUMPDEST PUSH32 0x496E76616C6964205374616B65722061646472657373206F72206E6F2066756E PUSH0 DUP3 ADD MSTORE PUSH32 0x647320746F20736C617368212100000000000000000000000000000000000000 PUSH1 0x20 DUP3 ADD MSTORE POP JUMP JUMPDEST PUSH0 PUSH2 0xC21 PUSH1 0x2D DUP4 PUSH2 0xB29 JUMP JUMPDEST SWAP2 POP PUSH2 0xC2C DUP3 PUSH2 0xBC7 JUMP JUMPDEST PUSH1 0x40 DUP3 ADD SWAP1 POP SWAP2 SWAP1 POP JUMP JUMPDEST PUSH0 PUSH1 0x20 DUP3 ADD SWAP1 POP DUP2 DUP2 SUB PUSH0 DUP4 ADD MSTORE PUSH2 0xC4E DUP2 PUSH2 0xC15 JUMP JUMPDEST SWAP1 POP SWAP2 SWAP1 POP JUMP JUMPDEST PUSH32 0x4E487B7100000000000000000000000000000000000000000000000000000000 PUSH0 MSTORE PUSH1 0x12 PUSH1 0x4 MSTORE PUSH1 0x24 PUSH0 REVERT JUMPDEST PUSH32 0x4E487B7100000000000000000000000000000000000000000000000000000000 PUSH0 MSTORE PUSH1 0x11 PUSH1 0x4 MSTORE PUSH1 0x24 PUSH0 REVERT JUMPDEST PUSH0 PUSH2 0xCB9 DUP3 PUSH2 0x9EB JUMP JUMPDEST SWAP2 POP PUSH2 0xCC4 DUP4 PUSH2 0x9EB JUMP JUMPDEST SWAP3 POP DUP3 PUSH2 0xCD4 JUMPI PUSH2 0xCD3 PUSH2 0xC55 JUMP JUMPDEST JUMPDEST DUP3 DUP3 DIV SWAP1 POP SWAP3 SWAP2 POP POP JUMP JUMPDEST PUSH32 0x50656E616C747920657863656564732074686520616C6C6F776564206D617869 PUSH0 DUP3 ADD MSTORE PUSH32 0x6D756D2121000000000000000000000000000000000000000000000000000000 PUSH1 0x20 DUP3 ADD MSTORE POP JUMP JUMPDEST PUSH0 PUSH2 0xD39 PUSH1 0x25 DUP4 PUSH2 0xB29 JUMP JUMPDEST SWAP2 POP PUSH2 0xD44 DUP3 PUSH2 0xCDF JUMP JUMPDEST PUSH1 0x40 DUP3 ADD SWAP1 POP SWAP2 SWAP1 POP JUMP JUMPDEST PUSH0 PUSH1 0x20 DUP3 ADD SWAP1 POP DUP2 DUP2 SUB PUSH0 DUP4 ADD MSTORE PUSH2 0xD66 DUP2 PUSH2 0xD2D JUMP JUMPDEST SWAP1 POP SWAP2 SWAP1 POP JUMP JUMPDEST PUSH0 PUSH2 0xD77 DUP3 PUSH2 0x9EB JUMP JUMPDEST SWAP2 POP PUSH2 0xD82 DUP4 PUSH2 0x9EB JUMP JUMPDEST SWAP3 POP DUP3 DUP3 SUB SWAP1 POP DUP2 DUP2 GT ISZERO PUSH2 0xD9A JUMPI PUSH2 0xD99 PUSH2 0xC82 JUMP JUMPDEST JUMPDEST SWAP3 SWAP2 POP POP JUMP JUMPDEST PUSH0 PUSH2 0xDAA DUP3 PUSH2 0x9EB JUMP JUMPDEST SWAP2 POP PUSH2 0xDB5 DUP4 PUSH2 0x9EB JUMP JUMPDEST SWAP3 POP DUP3 DUP3 ADD SWAP1 POP DUP1 DUP3 GT ISZERO PUSH2 0xDCD JUMPI PUSH2 0xDCC PUSH2 0xC82 JUMP JUMPDEST JUMPDEST SWAP3 SWAP2 POP POP JUMP JUMPDEST PUSH32 0x496E73756666696369656E7421212062616C616E636520746F20776974686472 PUSH0 DUP3 ADD MSTORE PUSH32 0x61772E0000000000000000000000000000000000000000000000000000000000 PUSH1 0x20 DUP3 ADD MSTORE POP JUMP JUMPDEST PUSH0 PUSH2 0xE2D PUSH1 0x23 DUP4 PUSH2 0xB29 JUMP JUMPDEST SWAP2 POP PUSH2 0xE38 DUP3 PUSH2 0xDD3 JUMP JUMPDEST PUSH1 0x40 DUP3 ADD SWAP1 POP SWAP2 SWAP1 POP JUMP JUMPDEST PUSH0 PUSH1 0x20 DUP3 ADD SWAP1 POP DUP2 DUP2 SUB PUSH0 DUP4 ADD MSTORE PUSH2 0xE5A DUP2 PUSH2 0xE21 JUMP JUMPDEST SWAP1 POP SWAP2 SWAP1 POP JUMP JUMPDEST PUSH32 0x4E6F207265776172647320617661696C61626C652121206F7220696E73756666 PUSH0 DUP3 ADD MSTORE PUSH32 0x696369656E742072657761726420706F6F6C2121210000000000000000000000 PUSH1 0x20 DUP3 ADD MSTORE POP JUMP JUMPDEST PUSH0 PUSH2 0xEBB PUSH1 0x35 DUP4 PUSH2 0xB29 JUMP JUMPDEST SWAP2 POP PUSH2 0xEC6 DUP3 PUSH2 0xE61 JUMP JUMPDEST PUSH1 0x40 DUP3 ADD SWAP1 POP SWAP2 SWAP1 POP JUMP JUMPDEST PUSH0 PUSH1 0x20 DUP3 ADD SWAP1 POP DUP2 DUP2 SUB PUSH0 DUP4 ADD MSTORE PUSH2 0xEE8 DUP2 PUSH2 0xEAF JUMP JUMPDEST SWAP1 POP SWAP2 SWAP1 POP JUMP JUMPDEST PUSH32 0x52657761726420616D6F756E742073686F756C64206265206772656174657220 PUSH0 DUP3 ADD MSTORE PUSH32 0x7468616E20302E20212121000000000000000000000000000000000000000000 PUSH1 0x20 DUP3 ADD MSTORE POP JUMP JUMPDEST PUSH0 PUSH2 0xF49 PUSH1 0x2B DUP4 PUSH2 0xB29 JUMP JUMPDEST SWAP2 POP PUSH2 0xF54 DUP3 PUSH2 0xEEF JUMP JUMPDEST PUSH1 0x40 DUP3 ADD SWAP1 POP SWAP2 SWAP1 POP JUMP JUMPDEST PUSH0 PUSH1 0x20 DUP3 ADD SWAP1 POP DUP2 DUP2 SUB PUSH0 DUP4 ADD MSTORE PUSH2 0xF76 DUP2 PUSH2 0xF3D JUMP JUMPDEST SWAP1 POP SWAP2 SWAP1 POP JUMP JUMPDEST PUSH32 0x4465706F73697420616D6F756E742073686F756C642062652067726561746572 PUSH0 DUP3 ADD MSTORE PUSH32 0x207468616E20302E202121210000000000000000000000000000000000000000 PUSH1 0x20 DUP3 ADD MSTORE POP JUMP JUMPDEST PUSH0 PUSH2 0xFD7 PUSH1 0x2C DUP4 PUSH2 0xB29 JUMP JUMPDEST SWAP2 POP PUSH2 0xFE2 DUP3 PUSH2 0xF7D JUMP JUMPDEST PUSH1 0x40 DUP3 ADD SWAP1 POP SWAP2 SWAP1 POP JUMP JUMPDEST PUSH0 PUSH1 0x20 DUP3 ADD SWAP1 POP DUP2 DUP2 SUB PUSH0 DUP4 ADD MSTORE PUSH2 0x1004 DUP2 PUSH2 0xFCB JUMP JUMPDEST SWAP1 POP SWAP2 SWAP1 POP JUMP JUMPDEST PUSH0 PUSH2 0x1015 DUP3 PUSH2 0x9EB JUMP JUMPDEST SWAP2 POP PUSH2 0x1020 DUP4 PUSH2 0x9EB JUMP JUMPDEST SWAP3 POP DUP3 DUP3 MUL PUSH2 0x102E DUP2 PUSH2 0x9EB JUMP JUMPDEST SWAP2 POP DUP3 DUP3 DIV DUP5 EQ DUP4 ISZERO OR PUSH2 0x1045 JUMPI PUSH2 0x1044 PUSH2 0xC82 JUMP JUMPDEST JUMPDEST POP SWAP3 SWAP2 POP POP JUMP INVALID LOG2 PUSH5 0x6970667358 0x22 SLT KECCAK256 0xF6 0xCA XOR SGT 0xEE BLOCKHASH 0xB8 0xA7 PUSH28 0xF27EDE313B3E6849CD8641D57486BD87B737843333580C64736F6C63 NUMBER STOP ADDMOD SHR STOP CALLER "
				},
				"gasEstimates": {
					"creation": {
						"codeDepositCost": "845200",
						"executionCost": "25145",
						"totalCost": "870345"
					},
					"external": {
						"Owner_Address()": "2618",
						"REWARD_RATE()": "325",
						"REWARD_TIME()": "348",
						"addRewardFunds()": "infinite",
						"calculateReward(address)": "infinite",
						"claimRewards()": "infinite",
						"deposit()": "infinite",
						"rewardPool()": "2447",
						"slash(address,uint256)": "infinite",
						"slashingBalance()": "2513",
						"stakers(address)": "infinite",
						"withdraw(uint256)": "infinite"
					}
				},
				"methodIdentifiers": {
					"Owner_Address()": "4ec7b7a3",
					"REWARD_RATE()": "5997bb37",
					"REWARD_TIME()": "07236168",
					"addRewardFunds()": "49b22a9f",
					"calculateReward(address)": "d82e3962",
					"claimRewards()": "372500ab",
					"deposit()": "d0e30db0",
					"rewardPool()": "66666aa9",
					"slash(address,uint256)": "02fb4d85",
					"slashingBalance()": "d7bf54b2",
					"stakers(address)": "9168ae72",
					"withdraw(uint256)": "2e1a7d4d"
				}
			},
			"storageLayout": {
				"storage": [
					{
						"astId": 3,
						"contract": "FinalExam.sol:Slashing",
						"label": "Owner_Address",
						"offset": 0,
						"slot": "0",
						"type": "t_address"
					},
					{
						"astId": 5,
						"contract": "FinalExam.sol:Slashing",
						"label": "rewardPool",
						"offset": 0,
						"slot": "1",
						"type": "t_uint256"
					},
					{
						"astId": 15,
						"contract": "FinalExam.sol:Slashing",
						"label": "stakers",
						"offset": 0,
						"slot": "2",
						"type": "t_mapping(t_address,t_struct(Staker)10_storage)"
					},
					{
						"astId": 266,
						"contract": "FinalExam.sol:Slashing",
						"label": "slashingBalance",
						"offset": 0,
						"slot": "3",
						"type": "t_uint256"
					}
				],
				"types": {
					"t_address": {
						"encoding": "inplace",
						"label": "address",
						"numberOfBytes": "20"
					},
					"t_mapping(t_address,t_struct(Staker)10_storage)": {
						"encoding": "mapping",
						"key": "t_address",
						"label": "mapping(address => struct StakingPool.Staker)",
						"numberOfBytes": "32",
						"value": "t_struct(Staker)10_storage"
					},
					"t_struct(Staker)10_storage": {
						"encoding": "inplace",
						"label": "struct StakingPool.Staker",
						"members": [
							{
								"astId": 7,
								"contract": "FinalExam.sol:Slashing",
								"label": "balance",
								"offset": 0,
								"slot": "0",
								"type": "t_uint256"
							},
							{
								"astId": 9,
								"contract": "FinalExam.sol:Slashing",
								"label": "lastClaimedTime",
								"offset": 0,
								"slot": "1",
								"type": "t_uint256"
							}
						],
						"numberOfBytes": "64"
					},
					"t_uint256": {
						"encoding": "inplace",
						"label": "uint256",
						"numberOfBytes": "32"
					}
				}
			},
			"userdoc": {
				"kind": "user",
				"methods": {},
				"version": 1
			}
		}
	}
}