{
	"FinalExam.sol": {
		"StakingPool": {
			"abi": [
				{
					"inputs": [],
					"stateMutability": "nonpayable",
					"type": "constructor"
				},
				{
					"anonymous": false,
					"inputs": [
						{
							"indexed": true,
							"internalType": "address",
							"name": "staker",
							"type": "address"
						},
						{
							"indexed": false,
							"internalType": "uint256",
							"name": "rewardAmount",
							"type": "uint256"
						}
					],
					"name": "ClaimRewards",
					"type": "event"
				},
				{
					"anonymous": false,
					"inputs": [
						{
							"indexed": true,
							"internalType": "address",
							"name": "staker",
							"type": "address"
						},
						{
							"indexed": false,
							"internalType": "uint256",
							"name": "amount",
							"type": "uint256"
						}
					],
					"name": "Deposit",
					"type": "event"
				},
				{
					"anonymous": false,
					"inputs": [
						{
							"indexed": true,
							"internalType": "address",
							"name": "staker",
							"type": "address"
						},
						{
							"indexed": false,
							"internalType": "uint256",
							"name": "amount",
							"type": "uint256"
						}
					],
					"name": "Withdraw",
					"type": "event"
				},
				{
					"inputs": [],
					"name": "Owner_Address",
					"outputs": [
						{
							"internalType": "address",
							"name": "",
							"type": "address"
						}
					],
					"stateMutability": "view",
					"type": "function"
				},
				{
					"inputs": [],
					"name": "REWARD_RATE",
					"outputs": [
						{
							"internalType": "uint256",
							"name": "",
							"type": "uint256"
						}
					],
					"stateMutability": "view",
					"type": "function"
				},
				{
					"inputs": [],
					"name": "REWARD_TIME",
					"outputs": [
						{
							"internalType": "uint256",
							"name": "",
							"type": "uint256"
						}
					],
					"stateMutability": "view",
					"type": "function"
				},
				{
					"inputs": [],
					"name": "addRewardFunds",
					"outputs": [],
					"stateMutability": "payable",
					"type": "function"
				},
				{
					"inputs": [
						{
							"internalType": "address",
							"name": "stakerAddress",
							"type": "address"
						}
					],
					"name": "calculateReward",
					"outputs": [
						{
							"internalType": "uint256",
							"name": "",
							"type": "uint256"
						}
					],
					"stateMutability": "view",
					"type": "function"
				},
				{
					"inputs": [],
					"name": "claimRewards",
					"outputs": [],
					"stateMutability": "nonpayable",
					"type": "function"
				},
				{
					"inputs": [],
					"name": "deposit",
					"outputs": [],
					"stateMutability": "payable",
					"type": "function"
				},
				{
					"inputs": [],
					"name": "rewardPool",
					"outputs": [
						{
							"internalType": "uint256",
							"name": "",
							"type": "uint256"
						}
					],
					"stateMutability": "view",
					"type": "function"
				},
				{
					"inputs": [
						{
							"internalType": "address",
							"name": "",
							"type": "address"
						}
					],
					"name": "stakers",
					"outputs": [
						{
							"internalType": "uint256",
							"name": "balance",
							"type": "uint256"
						},
						{
							"internalType": "uint256",
							"name": "lastClaimedTime",
							"type": "uint256"
						}
					],
					"stateMutability": "view",
					"type": "function"
				},
				{
					"inputs": [
						{
							"internalType": "uint256",
							"name": "amount",
							"type": "uint256"
						}
					],
					"name": "withdraw",
					"outputs": [],
					"stateMutability": "nonpayable",
					"type": "function"
				}
			],
			"devdoc": {
				"kind": "dev",
				"methods": {},
				"version": 1
			},
			"evm": {
				"assembly": "    /* \"FinalExam.sol\":60:3070  contract StakingPool {... */\n  mstore(0x40, 0x80)\n    /* \"FinalExam.sol\":893:952  constructor() {... */\n  callvalue\n  dup1\n  iszero\n  tag_1\n  jumpi\n  revert(0x00, 0x00)\ntag_1:\n  pop\n    /* \"FinalExam.sol\":934:944  msg.sender */\n  caller\n    /* \"FinalExam.sol\":918:931  Owner_Address */\n  0x00\n  0x00\n    /* \"FinalExam.sol\":918:944  Owner_Address = msg.sender */\n  0x0100\n  exp\n  dup2\n  sload\n  dup2\n  0xffffffffffffffffffffffffffffffffffffffff\n  mul\n  not\n  and\n  swap1\n  dup4\n  0xffffffffffffffffffffffffffffffffffffffff\n  and\n  mul\n  or\n  swap1\n  sstore\n  pop\n    /* \"FinalExam.sol\":60:3070  contract StakingPool {... */\n  dataSize(sub_0)\n  dup1\n  dataOffset(sub_0)\n  0x00\n  codecopy\n  0x00\n  return\nstop\n\nsub_0: assembly {\n        /* \"FinalExam.sol\":60:3070  contract StakingPool {... */\n      mstore(0x40, 0x80)\n      jumpi(tag_1, lt(calldatasize, 0x04))\n      shr(0xe0, calldataload(0x00))\n      dup1\n      0x5997bb37\n      gt\n      tag_12\n      jumpi\n      dup1\n      0x5997bb37\n      eq\n      tag_7\n      jumpi\n      dup1\n      0x66666aa9\n      eq\n      tag_8\n      jumpi\n      dup1\n      0x9168ae72\n      eq\n      tag_9\n      jumpi\n      dup1\n      0xd0e30db0\n      eq\n      tag_10\n      jumpi\n      dup1\n      0xd82e3962\n      eq\n      tag_11\n      jumpi\n      jump(tag_1)\n    tag_12:\n      dup1\n      0x07236168\n      eq\n      tag_2\n      jumpi\n      dup1\n      0x2e1a7d4d\n      eq\n      tag_3\n      jumpi\n      dup1\n      0x372500ab\n      eq\n      tag_4\n      jumpi\n      dup1\n      0x49b22a9f\n      eq\n      tag_5\n      jumpi\n      dup1\n      0x4ec7b7a3\n      eq\n      tag_6\n      jumpi\n    tag_1:\n      revert(0x00, 0x00)\n        /* \"FinalExam.sol\":600:644  uint public constant REWARD_TIME = 3 minutes */\n    tag_2:\n      callvalue\n      dup1\n      iszero\n      tag_13\n      jumpi\n      revert(0x00, 0x00)\n    tag_13:\n      pop\n      tag_14\n      tag_15\n      jump\t// in\n    tag_14:\n      mload(0x40)\n      tag_16\n      swap2\n      swap1\n      tag_17\n      jump\t// in\n    tag_16:\n      mload(0x40)\n      dup1\n      swap2\n      sub\n      swap1\n      return\n        /* \"FinalExam.sol\":1806:2121  function withdraw(uint amount) external {... */\n    tag_3:\n      callvalue\n      dup1\n      iszero\n      tag_18\n      jumpi\n      revert(0x00, 0x00)\n    tag_18:\n      pop\n      tag_19\n      0x04\n      dup1\n      calldatasize\n      sub\n      dup2\n      add\n      swap1\n      tag_20\n      swap2\n      swap1\n      tag_21\n      jump\t// in\n    tag_20:\n      tag_22\n      jump\t// in\n    tag_19:\n      stop\n        /* \"FinalExam.sol\":2632:3067  function claimRewards() external {... */\n    tag_4:\n      callvalue\n      dup1\n      iszero\n      tag_23\n      jumpi\n      revert(0x00, 0x00)\n    tag_23:\n      pop\n      tag_24\n      tag_25\n      jump\t// in\n    tag_24:\n      stop\n        /* \"FinalExam.sol\":1157:1332  function addRewardFunds() external payable onlyOwner {... */\n    tag_5:\n      tag_26\n      tag_27\n      jump\t// in\n    tag_26:\n      stop\n        /* \"FinalExam.sol\":90:118  address public Owner_Address */\n    tag_6:\n      callvalue\n      dup1\n      iszero\n      tag_28\n      jumpi\n      revert(0x00, 0x00)\n    tag_28:\n      pop\n      tag_29\n      tag_30\n      jump\t// in\n    tag_29:\n      mload(0x40)\n      tag_31\n      swap2\n      swap1\n      tag_32\n      jump\t// in\n    tag_31:\n      mload(0x40)\n      dup1\n      swap2\n      sub\n      swap1\n      return\n        /* \"FinalExam.sol\":414:450  uint public constant REWARD_RATE = 5 */\n    tag_7:\n      callvalue\n      dup1\n      iszero\n      tag_33\n      jumpi\n      revert(0x00, 0x00)\n    tag_33:\n      pop\n      tag_34\n      tag_35\n      jump\t// in\n    tag_34:\n      mload(0x40)\n      tag_36\n      swap2\n      swap1\n      tag_17\n      jump\t// in\n    tag_36:\n      mload(0x40)\n      dup1\n      swap2\n      sub\n      swap1\n      return\n        /* \"FinalExam.sol\":125:147  uint public rewardPool */\n    tag_8:\n      callvalue\n      dup1\n      iszero\n      tag_37\n      jumpi\n      revert(0x00, 0x00)\n    tag_37:\n      pop\n      tag_38\n      tag_39\n      jump\t// in\n    tag_38:\n      mload(0x40)\n      tag_40\n      swap2\n      swap1\n      tag_17\n      jump\t// in\n    tag_40:\n      mload(0x40)\n      dup1\n      swap2\n      sub\n      swap1\n      return\n        /* \"FinalExam.sol\":364:405  mapping(address => Staker) public stakers */\n    tag_9:\n      callvalue\n      dup1\n      iszero\n      tag_41\n      jumpi\n      revert(0x00, 0x00)\n    tag_41:\n      pop\n      tag_42\n      0x04\n      dup1\n      calldatasize\n      sub\n      dup2\n      add\n      swap1\n      tag_43\n      swap2\n      swap1\n      tag_44\n      jump\t// in\n    tag_43:\n      tag_45\n      jump\t// in\n    tag_42:\n      mload(0x40)\n      tag_46\n      swap3\n      swap2\n      swap1\n      tag_47\n      jump\t// in\n    tag_46:\n      mload(0x40)\n      dup1\n      swap2\n      sub\n      swap1\n      return\n        /* \"FinalExam.sol\":1374:1761  function deposit() external payable {... */\n    tag_10:\n      tag_48\n      tag_49\n      jump\t// in\n    tag_48:\n      stop\n        /* \"FinalExam.sol\":2163:2596  function calculateReward(address stakerAddress) public view returns (uint) {... */\n    tag_11:\n      callvalue\n      dup1\n      iszero\n      tag_50\n      jumpi\n      revert(0x00, 0x00)\n    tag_50:\n      pop\n      tag_51\n      0x04\n      dup1\n      calldatasize\n      sub\n      dup2\n      add\n      swap1\n      tag_52\n      swap2\n      swap1\n      tag_44\n      jump\t// in\n    tag_52:\n      tag_53\n      jump\t// in\n    tag_51:\n      mload(0x40)\n      tag_54\n      swap2\n      swap1\n      tag_17\n      jump\t// in\n    tag_54:\n      mload(0x40)\n      dup1\n      swap2\n      sub\n      swap1\n      return\n        /* \"FinalExam.sol\":600:644  uint public constant REWARD_TIME = 3 minutes */\n    tag_15:\n        /* \"FinalExam.sol\":635:644  3 minutes */\n      0xb4\n        /* \"FinalExam.sol\":600:644  uint public constant REWARD_TIME = 3 minutes */\n      dup2\n      jump\t// out\n        /* \"FinalExam.sol\":1806:2121  function withdraw(uint amount) external {... */\n    tag_22:\n        /* \"FinalExam.sol\":1857:1878  Staker storage staker */\n      0x00\n        /* \"FinalExam.sol\":1881:1888  stakers */\n      0x02\n        /* \"FinalExam.sol\":1881:1900  stakers[msg.sender] */\n      0x00\n        /* \"FinalExam.sol\":1889:1899  msg.sender */\n      caller\n        /* \"FinalExam.sol\":1881:1900  stakers[msg.sender] */\n      0xffffffffffffffffffffffffffffffffffffffff\n      and\n      0xffffffffffffffffffffffffffffffffffffffff\n      and\n      dup2\n      mstore\n      0x20\n      add\n      swap1\n      dup2\n      mstore\n      0x20\n      add\n      0x00\n      keccak256\n        /* \"FinalExam.sol\":1857:1900  Staker storage staker = stakers[msg.sender] */\n      swap1\n      pop\n        /* \"FinalExam.sol\":1937:1943  amount */\n      dup2\n        /* \"FinalExam.sol\":1919:1925  staker */\n      dup2\n        /* \"FinalExam.sol\":1919:1933  staker.balance */\n      0x00\n      add\n      sload\n        /* \"FinalExam.sol\":1919:1943  staker.balance >= amount */\n      lt\n      iszero\n        /* \"FinalExam.sol\":1911:1983  require(staker.balance >= amount, \"Insufficient!! balance to withdraw.\") */\n      tag_56\n      jumpi\n      mload(0x40)\n      0x08c379a000000000000000000000000000000000000000000000000000000000\n      dup2\n      mstore\n      0x04\n      add\n      tag_57\n      swap1\n      tag_58\n      jump\t// in\n    tag_57:\n      mload(0x40)\n      dup1\n      swap2\n      sub\n      swap1\n      revert\n    tag_56:\n        /* \"FinalExam.sol\":2014:2020  amount */\n      dup2\n        /* \"FinalExam.sol\":1996:2002  staker */\n      dup2\n        /* \"FinalExam.sol\":1996:2010  staker.balance */\n      0x00\n      add\n      0x00\n        /* \"FinalExam.sol\":1996:2020  staker.balance -= amount */\n      dup3\n      dup3\n      sload\n      tag_59\n      swap2\n      swap1\n      tag_60\n      jump\t// in\n    tag_59:\n      swap3\n      pop\n      pop\n      dup2\n      swap1\n      sstore\n      pop\n        /* \"FinalExam.sol\":2039:2049  msg.sender */\n      caller\n        /* \"FinalExam.sol\":2031:2059  payable(msg.sender).transfer */\n      0xffffffffffffffffffffffffffffffffffffffff\n      and\n        /* \"FinalExam.sol\":2031:2067  payable(msg.sender).transfer(amount) */\n      0x08fc\n        /* \"FinalExam.sol\":2060:2066  amount */\n      dup4\n        /* \"FinalExam.sol\":2031:2067  payable(msg.sender).transfer(amount) */\n      swap1\n      dup2\n      iszero\n      mul\n      swap1\n      mload(0x40)\n      0x00\n      mload(0x40)\n      dup1\n      dup4\n      sub\n      dup2\n      dup6\n      dup9\n      dup9\n      call\n      swap4\n      pop\n      pop\n      pop\n      pop\n      iszero\n      dup1\n      iszero\n      tag_62\n      jumpi\n      returndatacopy(0x00, 0x00, returndatasize)\n      revert(0x00, returndatasize)\n    tag_62:\n      pop\n        /* \"FinalExam.sol\":2094:2104  msg.sender */\n      caller\n        /* \"FinalExam.sol\":2085:2113  Withdraw(msg.sender, amount) */\n      0xffffffffffffffffffffffffffffffffffffffff\n      and\n      0x884edad9ce6fa2440d8a54cc123490eb96d2768479d49ff9c7366125a9424364\n        /* \"FinalExam.sol\":2106:2112  amount */\n      dup4\n        /* \"FinalExam.sol\":2085:2113  Withdraw(msg.sender, amount) */\n      mload(0x40)\n      tag_63\n      swap2\n      swap1\n      tag_17\n      jump\t// in\n    tag_63:\n      mload(0x40)\n      dup1\n      swap2\n      sub\n      swap1\n      log2\n        /* \"FinalExam.sol\":1846:2121  {... */\n      pop\n        /* \"FinalExam.sol\":1806:2121  function withdraw(uint amount) external {... */\n      pop\n      jump\t// out\n        /* \"FinalExam.sol\":2632:3067  function claimRewards() external {... */\n    tag_25:\n        /* \"FinalExam.sol\":2676:2697  Staker storage staker */\n      0x00\n        /* \"FinalExam.sol\":2700:2707  stakers */\n      0x02\n        /* \"FinalExam.sol\":2700:2719  stakers[msg.sender] */\n      0x00\n        /* \"FinalExam.sol\":2708:2718  msg.sender */\n      caller\n        /* \"FinalExam.sol\":2700:2719  stakers[msg.sender] */\n      0xffffffffffffffffffffffffffffffffffffffff\n      and\n      0xffffffffffffffffffffffffffffffffffffffff\n      and\n      dup2\n      mstore\n      0x20\n      add\n      swap1\n      dup2\n      mstore\n      0x20\n      add\n      0x00\n      keccak256\n        /* \"FinalExam.sol\":2676:2719  Staker storage staker = stakers[msg.sender] */\n      swap1\n      pop\n        /* \"FinalExam.sol\":2730:2741  uint reward */\n      0x00\n        /* \"FinalExam.sol\":2744:2771  calculateReward(msg.sender) */\n      tag_65\n        /* \"FinalExam.sol\":2760:2770  msg.sender */\n      caller\n        /* \"FinalExam.sol\":2744:2759  calculateReward */\n      tag_53\n        /* \"FinalExam.sol\":2744:2771  calculateReward(msg.sender) */\n      jump\t// in\n    tag_65:\n        /* \"FinalExam.sol\":2730:2771  uint reward = calculateReward(msg.sender) */\n      swap1\n      pop\n        /* \"FinalExam.sol\":2801:2802  0 */\n      0x00\n        /* \"FinalExam.sol\":2792:2798  reward */\n      dup2\n        /* \"FinalExam.sol\":2792:2802  reward > 0 */\n      gt\n        /* \"FinalExam.sol\":2784:2860  require(reward > 0, \"No rewards available!! or insufficient reward pool!!!\") */\n      tag_66\n      jumpi\n      mload(0x40)\n      0x08c379a000000000000000000000000000000000000000000000000000000000\n      dup2\n      mstore\n      0x04\n      add\n      tag_67\n      swap1\n      tag_68\n      jump\t// in\n    tag_67:\n      mload(0x40)\n      dup1\n      swap2\n      sub\n      swap1\n      revert\n    tag_66:\n        /* \"FinalExam.sol\":2899:2905  reward */\n      dup1\n        /* \"FinalExam.sol\":2881:2887  staker */\n      dup3\n        /* \"FinalExam.sol\":2881:2895  staker.balance */\n      0x00\n      add\n      0x00\n        /* \"FinalExam.sol\":2881:2905  staker.balance += reward */\n      dup3\n      dup3\n      sload\n      tag_69\n      swap2\n      swap1\n      tag_70\n      jump\t// in\n    tag_69:\n      swap3\n      pop\n      pop\n      dup2\n      swap1\n      sstore\n      pop\n        /* \"FinalExam.sol\":2941:2956  block.timestamp */\n      timestamp\n        /* \"FinalExam.sol\":2916:2922  staker */\n      dup3\n        /* \"FinalExam.sol\":2916:2938  staker.lastClaimedTime */\n      0x01\n      add\n        /* \"FinalExam.sol\":2916:2956  staker.lastClaimedTime = block.timestamp */\n      dup2\n      swap1\n      sstore\n      pop\n        /* \"FinalExam.sol\":2981:2987  reward */\n      dup1\n        /* \"FinalExam.sol\":2967:2977  rewardPool */\n      0x01\n      0x00\n        /* \"FinalExam.sol\":2967:2987  rewardPool -= reward */\n      dup3\n      dup3\n      sload\n      tag_71\n      swap2\n      swap1\n      tag_60\n      jump\t// in\n    tag_71:\n      swap3\n      pop\n      pop\n      dup2\n      swap1\n      sstore\n      pop\n        /* \"FinalExam.sol\":3040:3050  msg.sender */\n      caller\n        /* \"FinalExam.sol\":3027:3059  ClaimRewards(msg.sender, reward) */\n      0xffffffffffffffffffffffffffffffffffffffff\n      and\n      0x1f89f96333d3133000ee447473151fa9606543368f02271c9d95ae14f13bcc67\n        /* \"FinalExam.sol\":3052:3058  reward */\n      dup3\n        /* \"FinalExam.sol\":3027:3059  ClaimRewards(msg.sender, reward) */\n      mload(0x40)\n      tag_72\n      swap2\n      swap1\n      tag_17\n      jump\t// in\n    tag_72:\n      mload(0x40)\n      dup1\n      swap2\n      sub\n      swap1\n      log2\n        /* \"FinalExam.sol\":2665:3067  {... */\n      pop\n      pop\n        /* \"FinalExam.sol\":2632:3067  function claimRewards() external {... */\n      jump\t// out\n        /* \"FinalExam.sol\":1157:1332  function addRewardFunds() external payable onlyOwner {... */\n    tag_27:\n        /* \"FinalExam.sol\":1038:1051  Owner_Address */\n      0x00\n      0x00\n      swap1\n      sload\n      swap1\n      0x0100\n      exp\n      swap1\n      div\n      0xffffffffffffffffffffffffffffffffffffffff\n      and\n        /* \"FinalExam.sol\":1024:1051  msg.sender == Owner_Address */\n      0xffffffffffffffffffffffffffffffffffffffff\n      and\n        /* \"FinalExam.sol\":1024:1034  msg.sender */\n      caller\n        /* \"FinalExam.sol\":1024:1051  msg.sender == Owner_Address */\n      0xffffffffffffffffffffffffffffffffffffffff\n      and\n      eq\n        /* \"FinalExam.sol\":1016:1094  require(msg.sender == Owner_Address, \"Only the owner can perform this action\") */\n      tag_74\n      jumpi\n      mload(0x40)\n      0x08c379a000000000000000000000000000000000000000000000000000000000\n      dup2\n      mstore\n      0x04\n      add\n      tag_75\n      swap1\n      tag_76\n      jump\t// in\n    tag_75:\n      mload(0x40)\n      dup1\n      swap2\n      sub\n      swap1\n      revert\n    tag_74:\n        /* \"FinalExam.sol\":1241:1242  0 */\n      0x00\n        /* \"FinalExam.sol\":1229:1238  msg.value */\n      callvalue\n        /* \"FinalExam.sol\":1229:1242  msg.value > 0 */\n      gt\n        /* \"FinalExam.sol\":1221:1290  require(msg.value > 0, \"Reward amount should be greater than 0. !!!\") */\n      tag_78\n      jumpi\n      mload(0x40)\n      0x08c379a000000000000000000000000000000000000000000000000000000000\n      dup2\n      mstore\n      0x04\n      add\n      tag_79\n      swap1\n      tag_80\n      jump\t// in\n    tag_79:\n      mload(0x40)\n      dup1\n      swap2\n      sub\n      swap1\n      revert\n    tag_78:\n        /* \"FinalExam.sol\":1315:1324  msg.value */\n      callvalue\n        /* \"FinalExam.sol\":1301:1311  rewardPool */\n      0x01\n      0x00\n        /* \"FinalExam.sol\":1301:1324  rewardPool += msg.value */\n      dup3\n      dup3\n      sload\n      tag_81\n      swap2\n      swap1\n      tag_70\n      jump\t// in\n    tag_81:\n      swap3\n      pop\n      pop\n      dup2\n      swap1\n      sstore\n      pop\n        /* \"FinalExam.sol\":1157:1332  function addRewardFunds() external payable onlyOwner {... */\n      jump\t// out\n        /* \"FinalExam.sol\":90:118  address public Owner_Address */\n    tag_30:\n      0x00\n      0x00\n      swap1\n      sload\n      swap1\n      0x0100\n      exp\n      swap1\n      div\n      0xffffffffffffffffffffffffffffffffffffffff\n      and\n      dup2\n      jump\t// out\n        /* \"FinalExam.sol\":414:450  uint public constant REWARD_RATE = 5 */\n    tag_35:\n        /* \"FinalExam.sol\":449:450  5 */\n      0x05\n        /* \"FinalExam.sol\":414:450  uint public constant REWARD_RATE = 5 */\n      dup2\n      jump\t// out\n        /* \"FinalExam.sol\":125:147  uint public rewardPool */\n    tag_39:\n      sload(0x01)\n      dup2\n      jump\t// out\n        /* \"FinalExam.sol\":364:405  mapping(address => Staker) public stakers */\n    tag_45:\n      mstore(0x20, 0x02)\n      dup1\n      0x00\n      mstore\n      keccak256(0x00, 0x40)\n      0x00\n      swap2\n      pop\n      swap1\n      pop\n      dup1\n      0x00\n      add\n      sload\n      swap1\n      dup1\n      0x01\n      add\n      sload\n      swap1\n      pop\n      dup3\n      jump\t// out\n        /* \"FinalExam.sol\":1374:1761  function deposit() external payable {... */\n    tag_49:\n        /* \"FinalExam.sol\":1441:1442  0 */\n      0x00\n        /* \"FinalExam.sol\":1429:1438  msg.value */\n      callvalue\n        /* \"FinalExam.sol\":1429:1442  msg.value > 0 */\n      gt\n        /* \"FinalExam.sol\":1421:1491  require(msg.value > 0, \"Deposit amount should be greater than 0. !!!\") */\n      tag_83\n      jumpi\n      mload(0x40)\n      0x08c379a000000000000000000000000000000000000000000000000000000000\n      dup2\n      mstore\n      0x04\n      add\n      tag_84\n      swap1\n      tag_85\n      jump\t// in\n    tag_84:\n      mload(0x40)\n      dup1\n      swap2\n      sub\n      swap1\n      revert\n    tag_83:\n        /* \"FinalExam.sol\":1504:1525  Staker storage staker */\n      0x00\n        /* \"FinalExam.sol\":1528:1535  stakers */\n      0x02\n        /* \"FinalExam.sol\":1528:1547  stakers[msg.sender] */\n      0x00\n        /* \"FinalExam.sol\":1536:1546  msg.sender */\n      caller\n        /* \"FinalExam.sol\":1528:1547  stakers[msg.sender] */\n      0xffffffffffffffffffffffffffffffffffffffff\n      and\n      0xffffffffffffffffffffffffffffffffffffffff\n      and\n      dup2\n      mstore\n      0x20\n      add\n      swap1\n      dup2\n      mstore\n      0x20\n      add\n      0x00\n      keccak256\n        /* \"FinalExam.sol\":1504:1547  Staker storage staker = stakers[msg.sender] */\n      swap1\n      pop\n        /* \"FinalExam.sol\":1576:1585  msg.value */\n      callvalue\n        /* \"FinalExam.sol\":1558:1564  staker */\n      dup2\n        /* \"FinalExam.sol\":1558:1572  staker.balance */\n      0x00\n      add\n      0x00\n        /* \"FinalExam.sol\":1558:1585  staker.balance += msg.value */\n      dup3\n      dup3\n      sload\n      tag_86\n      swap2\n      swap1\n      tag_70\n      jump\t// in\n    tag_86:\n      swap3\n      pop\n      pop\n      dup2\n      swap1\n      sstore\n      pop\n        /* \"FinalExam.sol\":1636:1637  0 */\n      0x00\n        /* \"FinalExam.sol\":1610:1616  staker */\n      dup2\n        /* \"FinalExam.sol\":1610:1632  staker.lastClaimedTime */\n      0x01\n      add\n      sload\n        /* \"FinalExam.sol\":1610:1637  staker.lastClaimedTime == 0 */\n      sub\n        /* \"FinalExam.sol\":1606:1706  if (staker.lastClaimedTime == 0) {... */\n      tag_87\n      jumpi\n        /* \"FinalExam.sol\":1679:1694  block.timestamp */\n      timestamp\n        /* \"FinalExam.sol\":1654:1660  staker */\n      dup2\n        /* \"FinalExam.sol\":1654:1676  staker.lastClaimedTime */\n      0x01\n      add\n        /* \"FinalExam.sol\":1654:1694  staker.lastClaimedTime = block.timestamp */\n      dup2\n      swap1\n      sstore\n      pop\n        /* \"FinalExam.sol\":1606:1706  if (staker.lastClaimedTime == 0) {... */\n    tag_87:\n        /* \"FinalExam.sol\":1731:1741  msg.sender */\n      caller\n        /* \"FinalExam.sol\":1723:1753  Deposit(msg.sender, msg.value) */\n      0xffffffffffffffffffffffffffffffffffffffff\n      and\n      0xe1fffcc4923d04b559f4d29a8bfc6cda04eb5b0d3c460751c2402c5c5cc9109c\n        /* \"FinalExam.sol\":1743:1752  msg.value */\n      callvalue\n        /* \"FinalExam.sol\":1723:1753  Deposit(msg.sender, msg.value) */\n      mload(0x40)\n      tag_88\n      swap2\n      swap1\n      tag_17\n      jump\t// in\n    tag_88:\n      mload(0x40)\n      dup1\n      swap2\n      sub\n      swap1\n      log2\n        /* \"FinalExam.sol\":1410:1761  {... */\n      pop\n        /* \"FinalExam.sol\":1374:1761  function deposit() external payable {... */\n      jump\t// out\n        /* \"FinalExam.sol\":2163:2596  function calculateReward(address stakerAddress) public view returns (uint) {... */\n    tag_53:\n        /* \"FinalExam.sol\":2232:2236  uint */\n      0x00\n        /* \"FinalExam.sol\":2249:2270  Staker storage staker */\n      0x00\n        /* \"FinalExam.sol\":2273:2280  stakers */\n      0x02\n        /* \"FinalExam.sol\":2273:2295  stakers[stakerAddress] */\n      0x00\n        /* \"FinalExam.sol\":2281:2294  stakerAddress */\n      dup5\n        /* \"FinalExam.sol\":2273:2295  stakers[stakerAddress] */\n      0xffffffffffffffffffffffffffffffffffffffff\n      and\n      0xffffffffffffffffffffffffffffffffffffffff\n      and\n      dup2\n      mstore\n      0x20\n      add\n      swap1\n      dup2\n      mstore\n      0x20\n      add\n      0x00\n      keccak256\n        /* \"FinalExam.sol\":2249:2295  Staker storage staker = stakers[stakerAddress] */\n      swap1\n      pop\n        /* \"FinalExam.sol\":635:644  3 minutes */\n      0xb4\n        /* \"FinalExam.sol\":2376:2382  staker */\n      dup2\n        /* \"FinalExam.sol\":2376:2398  staker.lastClaimedTime */\n      0x01\n      add\n      sload\n        /* \"FinalExam.sol\":2376:2412  staker.lastClaimedTime + REWARD_TIME */\n      tag_90\n      swap2\n      swap1\n      tag_70\n      jump\t// in\n    tag_90:\n        /* \"FinalExam.sol\":2357:2372  block.timestamp */\n      timestamp\n        /* \"FinalExam.sol\":2357:2412  block.timestamp >= staker.lastClaimedTime + REWARD_TIME */\n      lt\n        /* \"FinalExam.sol\":2353:2559  if (block.timestamp >= staker.lastClaimedTime + REWARD_TIME) {... */\n      tag_91\n      jumpi\n        /* \"FinalExam.sol\":2429:2440  uint reward */\n      0x00\n        /* \"FinalExam.sol\":2476:2479  100 */\n      0x64\n        /* \"FinalExam.sol\":449:450  5 */\n      0x05\n        /* \"FinalExam.sol\":2444:2450  staker */\n      dup4\n        /* \"FinalExam.sol\":2444:2458  staker.balance */\n      0x00\n      add\n      sload\n        /* \"FinalExam.sol\":2444:2472  staker.balance * REWARD_RATE */\n      tag_92\n      swap2\n      swap1\n      tag_93\n      jump\t// in\n    tag_92:\n        /* \"FinalExam.sol\":2443:2479  (staker.balance * REWARD_RATE) / 100 */\n      tag_94\n      swap2\n      swap1\n      tag_95\n      jump\t// in\n    tag_94:\n        /* \"FinalExam.sol\":2429:2479  uint reward = (staker.balance * REWARD_RATE) / 100 */\n      swap1\n      pop\n        /* \"FinalExam.sol\":2524:2534  rewardPool */\n      sload(0x01)\n        /* \"FinalExam.sol\":2514:2520  reward */\n      dup2\n        /* \"FinalExam.sol\":2514:2534  reward <= rewardPool */\n      gt\n      iszero\n        /* \"FinalExam.sol\":2514:2547  reward <= rewardPool ? reward : 0 */\n      tag_96\n      jumpi\n        /* \"FinalExam.sol\":2546:2547  0 */\n      0x00\n        /* \"FinalExam.sol\":2514:2547  reward <= rewardPool ? reward : 0 */\n      jump(tag_97)\n    tag_96:\n        /* \"FinalExam.sol\":2537:2543  reward */\n      dup1\n        /* \"FinalExam.sol\":2514:2547  reward <= rewardPool ? reward : 0 */\n    tag_97:\n        /* \"FinalExam.sol\":2507:2547  return reward <= rewardPool ? reward : 0 */\n      swap3\n      pop\n      pop\n      pop\n      jump(tag_89)\n        /* \"FinalExam.sol\":2353:2559  if (block.timestamp >= staker.lastClaimedTime + REWARD_TIME) {... */\n    tag_91:\n        /* \"FinalExam.sol\":2576:2577  0 */\n      0x00\n        /* \"FinalExam.sol\":2569:2577  return 0 */\n      swap2\n      pop\n      pop\n        /* \"FinalExam.sol\":2163:2596  function calculateReward(address stakerAddress) public view returns (uint) {... */\n    tag_89:\n      swap2\n      swap1\n      pop\n      jump\t// out\n        /* \"#utility.yul\":7:84   */\n    tag_98:\n        /* \"#utility.yul\":44:51   */\n      0x00\n        /* \"#utility.yul\":73:78   */\n      dup2\n        /* \"#utility.yul\":62:78   */\n      swap1\n      pop\n        /* \"#utility.yul\":7:84   */\n      swap2\n      swap1\n      pop\n      jump\t// out\n        /* \"#utility.yul\":90:208   */\n    tag_99:\n        /* \"#utility.yul\":177:201   */\n      tag_126\n        /* \"#utility.yul\":195:200   */\n      dup2\n        /* \"#utility.yul\":177:201   */\n      tag_98\n      jump\t// in\n    tag_126:\n        /* \"#utility.yul\":172:175   */\n      dup3\n        /* \"#utility.yul\":165:202   */\n      mstore\n        /* \"#utility.yul\":90:208   */\n      pop\n      pop\n      jump\t// out\n        /* \"#utility.yul\":214:436   */\n    tag_17:\n        /* \"#utility.yul\":307:311   */\n      0x00\n        /* \"#utility.yul\":345:347   */\n      0x20\n        /* \"#utility.yul\":334:343   */\n      dup3\n        /* \"#utility.yul\":330:348   */\n      add\n        /* \"#utility.yul\":322:348   */\n      swap1\n      pop\n        /* \"#utility.yul\":358:429   */\n      tag_128\n        /* \"#utility.yul\":426:427   */\n      0x00\n        /* \"#utility.yul\":415:424   */\n      dup4\n        /* \"#utility.yul\":411:428   */\n      add\n        /* \"#utility.yul\":402:408   */\n      dup5\n        /* \"#utility.yul\":358:429   */\n      tag_99\n      jump\t// in\n    tag_128:\n        /* \"#utility.yul\":214:436   */\n      swap3\n      swap2\n      pop\n      pop\n      jump\t// out\n        /* \"#utility.yul\":523:640   */\n    tag_101:\n        /* \"#utility.yul\":632:633   */\n      0x00\n        /* \"#utility.yul\":629:630   */\n      0x00\n        /* \"#utility.yul\":622:634   */\n      revert\n        /* \"#utility.yul\":769:891   */\n    tag_103:\n        /* \"#utility.yul\":842:866   */\n      tag_133\n        /* \"#utility.yul\":860:865   */\n      dup2\n        /* \"#utility.yul\":842:866   */\n      tag_98\n      jump\t// in\n    tag_133:\n        /* \"#utility.yul\":835:840   */\n      dup2\n        /* \"#utility.yul\":832:867   */\n      eq\n        /* \"#utility.yul\":822:885   */\n      tag_134\n      jumpi\n        /* \"#utility.yul\":881:882   */\n      0x00\n        /* \"#utility.yul\":878:879   */\n      0x00\n        /* \"#utility.yul\":871:883   */\n      revert\n        /* \"#utility.yul\":822:885   */\n    tag_134:\n        /* \"#utility.yul\":769:891   */\n      pop\n      jump\t// out\n        /* \"#utility.yul\":897:1036   */\n    tag_104:\n        /* \"#utility.yul\":943:948   */\n      0x00\n        /* \"#utility.yul\":981:987   */\n      dup2\n        /* \"#utility.yul\":968:988   */\n      calldataload\n        /* \"#utility.yul\":959:988   */\n      swap1\n      pop\n        /* \"#utility.yul\":997:1030   */\n      tag_136\n        /* \"#utility.yul\":1024:1029   */\n      dup2\n        /* \"#utility.yul\":997:1030   */\n      tag_103\n      jump\t// in\n    tag_136:\n        /* \"#utility.yul\":897:1036   */\n      swap3\n      swap2\n      pop\n      pop\n      jump\t// out\n        /* \"#utility.yul\":1042:1371   */\n    tag_21:\n        /* \"#utility.yul\":1101:1107   */\n      0x00\n        /* \"#utility.yul\":1150:1152   */\n      0x20\n        /* \"#utility.yul\":1138:1147   */\n      dup3\n        /* \"#utility.yul\":1129:1136   */\n      dup5\n        /* \"#utility.yul\":1125:1148   */\n      sub\n        /* \"#utility.yul\":1121:1153   */\n      slt\n        /* \"#utility.yul\":1118:1237   */\n      iszero\n      tag_138\n      jumpi\n        /* \"#utility.yul\":1156:1235   */\n      tag_139\n      tag_101\n      jump\t// in\n    tag_139:\n        /* \"#utility.yul\":1118:1237   */\n    tag_138:\n        /* \"#utility.yul\":1276:1277   */\n      0x00\n        /* \"#utility.yul\":1301:1354   */\n      tag_140\n        /* \"#utility.yul\":1346:1353   */\n      dup5\n        /* \"#utility.yul\":1337:1343   */\n      dup3\n        /* \"#utility.yul\":1326:1335   */\n      dup6\n        /* \"#utility.yul\":1322:1344   */\n      add\n        /* \"#utility.yul\":1301:1354   */\n      tag_104\n      jump\t// in\n    tag_140:\n        /* \"#utility.yul\":1291:1354   */\n      swap2\n      pop\n        /* \"#utility.yul\":1247:1364   */\n      pop\n        /* \"#utility.yul\":1042:1371   */\n      swap3\n      swap2\n      pop\n      pop\n      jump\t// out\n        /* \"#utility.yul\":1377:1503   */\n    tag_105:\n        /* \"#utility.yul\":1414:1421   */\n      0x00\n        /* \"#utility.yul\":1454:1496   */\n      0xffffffffffffffffffffffffffffffffffffffff\n        /* \"#utility.yul\":1447:1452   */\n      dup3\n        /* \"#utility.yul\":1443:1497   */\n      and\n        /* \"#utility.yul\":1432:1497   */\n      swap1\n      pop\n        /* \"#utility.yul\":1377:1503   */\n      swap2\n      swap1\n      pop\n      jump\t// out\n        /* \"#utility.yul\":1509:1605   */\n    tag_106:\n        /* \"#utility.yul\":1546:1553   */\n      0x00\n        /* \"#utility.yul\":1575:1599   */\n      tag_143\n        /* \"#utility.yul\":1593:1598   */\n      dup3\n        /* \"#utility.yul\":1575:1599   */\n      tag_105\n      jump\t// in\n    tag_143:\n        /* \"#utility.yul\":1564:1599   */\n      swap1\n      pop\n        /* \"#utility.yul\":1509:1605   */\n      swap2\n      swap1\n      pop\n      jump\t// out\n        /* \"#utility.yul\":1611:1729   */\n    tag_107:\n        /* \"#utility.yul\":1698:1722   */\n      tag_145\n        /* \"#utility.yul\":1716:1721   */\n      dup2\n        /* \"#utility.yul\":1698:1722   */\n      tag_106\n      jump\t// in\n    tag_145:\n        /* \"#utility.yul\":1693:1696   */\n      dup3\n        /* \"#utility.yul\":1686:1723   */\n      mstore\n        /* \"#utility.yul\":1611:1729   */\n      pop\n      pop\n      jump\t// out\n        /* \"#utility.yul\":1735:1957   */\n    tag_32:\n        /* \"#utility.yul\":1828:1832   */\n      0x00\n        /* \"#utility.yul\":1866:1868   */\n      0x20\n        /* \"#utility.yul\":1855:1864   */\n      dup3\n        /* \"#utility.yul\":1851:1869   */\n      add\n        /* \"#utility.yul\":1843:1869   */\n      swap1\n      pop\n        /* \"#utility.yul\":1879:1950   */\n      tag_147\n        /* \"#utility.yul\":1947:1948   */\n      0x00\n        /* \"#utility.yul\":1936:1945   */\n      dup4\n        /* \"#utility.yul\":1932:1949   */\n      add\n        /* \"#utility.yul\":1923:1929   */\n      dup5\n        /* \"#utility.yul\":1879:1950   */\n      tag_107\n      jump\t// in\n    tag_147:\n        /* \"#utility.yul\":1735:1957   */\n      swap3\n      swap2\n      pop\n      pop\n      jump\t// out\n        /* \"#utility.yul\":1963:2085   */\n    tag_108:\n        /* \"#utility.yul\":2036:2060   */\n      tag_149\n        /* \"#utility.yul\":2054:2059   */\n      dup2\n        /* \"#utility.yul\":2036:2060   */\n      tag_106\n      jump\t// in\n    tag_149:\n        /* \"#utility.yul\":2029:2034   */\n      dup2\n        /* \"#utility.yul\":2026:2061   */\n      eq\n        /* \"#utility.yul\":2016:2079   */\n      tag_150\n      jumpi\n        /* \"#utility.yul\":2075:2076   */\n      0x00\n        /* \"#utility.yul\":2072:2073   */\n      0x00\n        /* \"#utility.yul\":2065:2077   */\n      revert\n        /* \"#utility.yul\":2016:2079   */\n    tag_150:\n        /* \"#utility.yul\":1963:2085   */\n      pop\n      jump\t// out\n        /* \"#utility.yul\":2091:2230   */\n    tag_109:\n        /* \"#utility.yul\":2137:2142   */\n      0x00\n        /* \"#utility.yul\":2175:2181   */\n      dup2\n        /* \"#utility.yul\":2162:2182   */\n      calldataload\n        /* \"#utility.yul\":2153:2182   */\n      swap1\n      pop\n        /* \"#utility.yul\":2191:2224   */\n      tag_152\n        /* \"#utility.yul\":2218:2223   */\n      dup2\n        /* \"#utility.yul\":2191:2224   */\n      tag_108\n      jump\t// in\n    tag_152:\n        /* \"#utility.yul\":2091:2230   */\n      swap3\n      swap2\n      pop\n      pop\n      jump\t// out\n        /* \"#utility.yul\":2236:2565   */\n    tag_44:\n        /* \"#utility.yul\":2295:2301   */\n      0x00\n        /* \"#utility.yul\":2344:2346   */\n      0x20\n        /* \"#utility.yul\":2332:2341   */\n      dup3\n        /* \"#utility.yul\":2323:2330   */\n      dup5\n        /* \"#utility.yul\":2319:2342   */\n      sub\n        /* \"#utility.yul\":2315:2347   */\n      slt\n        /* \"#utility.yul\":2312:2431   */\n      iszero\n      tag_154\n      jumpi\n        /* \"#utility.yul\":2350:2429   */\n      tag_155\n      tag_101\n      jump\t// in\n    tag_155:\n        /* \"#utility.yul\":2312:2431   */\n    tag_154:\n        /* \"#utility.yul\":2470:2471   */\n      0x00\n        /* \"#utility.yul\":2495:2548   */\n      tag_156\n        /* \"#utility.yul\":2540:2547   */\n      dup5\n        /* \"#utility.yul\":2531:2537   */\n      dup3\n        /* \"#utility.yul\":2520:2529   */\n      dup6\n        /* \"#utility.yul\":2516:2538   */\n      add\n        /* \"#utility.yul\":2495:2548   */\n      tag_109\n      jump\t// in\n    tag_156:\n        /* \"#utility.yul\":2485:2548   */\n      swap2\n      pop\n        /* \"#utility.yul\":2441:2558   */\n      pop\n        /* \"#utility.yul\":2236:2565   */\n      swap3\n      swap2\n      pop\n      pop\n      jump\t// out\n        /* \"#utility.yul\":2571:2903   */\n    tag_47:\n        /* \"#utility.yul\":2692:2696   */\n      0x00\n        /* \"#utility.yul\":2730:2732   */\n      0x40\n        /* \"#utility.yul\":2719:2728   */\n      dup3\n        /* \"#utility.yul\":2715:2733   */\n      add\n        /* \"#utility.yul\":2707:2733   */\n      swap1\n      pop\n        /* \"#utility.yul\":2743:2814   */\n      tag_158\n        /* \"#utility.yul\":2811:2812   */\n      0x00\n        /* \"#utility.yul\":2800:2809   */\n      dup4\n        /* \"#utility.yul\":2796:2813   */\n      add\n        /* \"#utility.yul\":2787:2793   */\n      dup6\n        /* \"#utility.yul\":2743:2814   */\n      tag_99\n      jump\t// in\n    tag_158:\n        /* \"#utility.yul\":2824:2896   */\n      tag_159\n        /* \"#utility.yul\":2892:2894   */\n      0x20\n        /* \"#utility.yul\":2881:2890   */\n      dup4\n        /* \"#utility.yul\":2877:2895   */\n      add\n        /* \"#utility.yul\":2868:2874   */\n      dup5\n        /* \"#utility.yul\":2824:2896   */\n      tag_99\n      jump\t// in\n    tag_159:\n        /* \"#utility.yul\":2571:2903   */\n      swap4\n      swap3\n      pop\n      pop\n      pop\n      jump\t// out\n        /* \"#utility.yul\":2909:3078   */\n    tag_110:\n        /* \"#utility.yul\":2993:3004   */\n      0x00\n        /* \"#utility.yul\":3027:3033   */\n      dup3\n        /* \"#utility.yul\":3022:3025   */\n      dup3\n        /* \"#utility.yul\":3015:3034   */\n      mstore\n        /* \"#utility.yul\":3067:3071   */\n      0x20\n        /* \"#utility.yul\":3062:3065   */\n      dup3\n        /* \"#utility.yul\":3058:3072   */\n      add\n        /* \"#utility.yul\":3043:3072   */\n      swap1\n      pop\n        /* \"#utility.yul\":2909:3078   */\n      swap3\n      swap2\n      pop\n      pop\n      jump\t// out\n        /* \"#utility.yul\":3084:3306   */\n    tag_111:\n        /* \"#utility.yul\":3224:3258   */\n      0x496e73756666696369656e7421212062616c616e636520746f20776974686472\n        /* \"#utility.yul\":3220:3221   */\n      0x00\n        /* \"#utility.yul\":3212:3218   */\n      dup3\n        /* \"#utility.yul\":3208:3222   */\n      add\n        /* \"#utility.yul\":3201:3259   */\n      mstore\n        /* \"#utility.yul\":3293:3298   */\n      0x61772e0000000000000000000000000000000000000000000000000000000000\n        /* \"#utility.yul\":3288:3290   */\n      0x20\n        /* \"#utility.yul\":3280:3286   */\n      dup3\n        /* \"#utility.yul\":3276:3291   */\n      add\n        /* \"#utility.yul\":3269:3299   */\n      mstore\n        /* \"#utility.yul\":3084:3306   */\n      pop\n      jump\t// out\n        /* \"#utility.yul\":3312:3678   */\n    tag_112:\n        /* \"#utility.yul\":3454:3457   */\n      0x00\n        /* \"#utility.yul\":3475:3542   */\n      tag_163\n        /* \"#utility.yul\":3539:3541   */\n      0x23\n        /* \"#utility.yul\":3534:3537   */\n      dup4\n        /* \"#utility.yul\":3475:3542   */\n      tag_110\n      jump\t// in\n    tag_163:\n        /* \"#utility.yul\":3468:3542   */\n      swap2\n      pop\n        /* \"#utility.yul\":3551:3644   */\n      tag_164\n        /* \"#utility.yul\":3640:3643   */\n      dup3\n        /* \"#utility.yul\":3551:3644   */\n      tag_111\n      jump\t// in\n    tag_164:\n        /* \"#utility.yul\":3669:3671   */\n      0x40\n        /* \"#utility.yul\":3664:3667   */\n      dup3\n        /* \"#utility.yul\":3660:3672   */\n      add\n        /* \"#utility.yul\":3653:3672   */\n      swap1\n      pop\n        /* \"#utility.yul\":3312:3678   */\n      swap2\n      swap1\n      pop\n      jump\t// out\n        /* \"#utility.yul\":3684:4103   */\n    tag_58:\n        /* \"#utility.yul\":3850:3854   */\n      0x00\n        /* \"#utility.yul\":3888:3890   */\n      0x20\n        /* \"#utility.yul\":3877:3886   */\n      dup3\n        /* \"#utility.yul\":3873:3891   */\n      add\n        /* \"#utility.yul\":3865:3891   */\n      swap1\n      pop\n        /* \"#utility.yul\":3937:3946   */\n      dup2\n        /* \"#utility.yul\":3931:3935   */\n      dup2\n        /* \"#utility.yul\":3927:3947   */\n      sub\n        /* \"#utility.yul\":3923:3924   */\n      0x00\n        /* \"#utility.yul\":3912:3921   */\n      dup4\n        /* \"#utility.yul\":3908:3925   */\n      add\n        /* \"#utility.yul\":3901:3948   */\n      mstore\n        /* \"#utility.yul\":3965:4096   */\n      tag_166\n        /* \"#utility.yul\":4091:4095   */\n      dup2\n        /* \"#utility.yul\":3965:4096   */\n      tag_112\n      jump\t// in\n    tag_166:\n        /* \"#utility.yul\":3957:4096   */\n      swap1\n      pop\n        /* \"#utility.yul\":3684:4103   */\n      swap2\n      swap1\n      pop\n      jump\t// out\n        /* \"#utility.yul\":4109:4289   */\n    tag_113:\n        /* \"#utility.yul\":4157:4234   */\n      0x4e487b7100000000000000000000000000000000000000000000000000000000\n        /* \"#utility.yul\":4154:4155   */\n      0x00\n        /* \"#utility.yul\":4147:4235   */\n      mstore\n        /* \"#utility.yul\":4254:4258   */\n      0x11\n        /* \"#utility.yul\":4251:4252   */\n      0x04\n        /* \"#utility.yul\":4244:4259   */\n      mstore\n        /* \"#utility.yul\":4278:4282   */\n      0x24\n        /* \"#utility.yul\":4275:4276   */\n      0x00\n        /* \"#utility.yul\":4268:4283   */\n      revert\n        /* \"#utility.yul\":4295:4489   */\n    tag_60:\n        /* \"#utility.yul\":4335:4339   */\n      0x00\n        /* \"#utility.yul\":4355:4375   */\n      tag_169\n        /* \"#utility.yul\":4373:4374   */\n      dup3\n        /* \"#utility.yul\":4355:4375   */\n      tag_98\n      jump\t// in\n    tag_169:\n        /* \"#utility.yul\":4350:4375   */\n      swap2\n      pop\n        /* \"#utility.yul\":4389:4409   */\n      tag_170\n        /* \"#utility.yul\":4407:4408   */\n      dup4\n        /* \"#utility.yul\":4389:4409   */\n      tag_98\n      jump\t// in\n    tag_170:\n        /* \"#utility.yul\":4384:4409   */\n      swap3\n      pop\n        /* \"#utility.yul\":4433:4434   */\n      dup3\n        /* \"#utility.yul\":4430:4431   */\n      dup3\n        /* \"#utility.yul\":4426:4435   */\n      sub\n        /* \"#utility.yul\":4418:4435   */\n      swap1\n      pop\n        /* \"#utility.yul\":4457:4458   */\n      dup2\n        /* \"#utility.yul\":4451:4455   */\n      dup2\n        /* \"#utility.yul\":4448:4459   */\n      gt\n        /* \"#utility.yul\":4445:4482   */\n      iszero\n      tag_171\n      jumpi\n        /* \"#utility.yul\":4462:4480   */\n      tag_172\n      tag_113\n      jump\t// in\n    tag_172:\n        /* \"#utility.yul\":4445:4482   */\n    tag_171:\n        /* \"#utility.yul\":4295:4489   */\n      swap3\n      swap2\n      pop\n      pop\n      jump\t// out\n        /* \"#utility.yul\":4495:4735   */\n    tag_114:\n        /* \"#utility.yul\":4635:4669   */\n      0x4e6f207265776172647320617661696c61626c652121206f7220696e73756666\n        /* \"#utility.yul\":4631:4632   */\n      0x00\n        /* \"#utility.yul\":4623:4629   */\n      dup3\n        /* \"#utility.yul\":4619:4633   */\n      add\n        /* \"#utility.yul\":4612:4670   */\n      mstore\n        /* \"#utility.yul\":4704:4727   */\n      0x696369656e742072657761726420706f6f6c2121210000000000000000000000\n        /* \"#utility.yul\":4699:4701   */\n      0x20\n        /* \"#utility.yul\":4691:4697   */\n      dup3\n        /* \"#utility.yul\":4687:4702   */\n      add\n        /* \"#utility.yul\":4680:4728   */\n      mstore\n        /* \"#utility.yul\":4495:4735   */\n      pop\n      jump\t// out\n        /* \"#utility.yul\":4741:5107   */\n    tag_115:\n        /* \"#utility.yul\":4883:4886   */\n      0x00\n        /* \"#utility.yul\":4904:4971   */\n      tag_175\n        /* \"#utility.yul\":4968:4970   */\n      0x35\n        /* \"#utility.yul\":4963:4966   */\n      dup4\n        /* \"#utility.yul\":4904:4971   */\n      tag_110\n      jump\t// in\n    tag_175:\n        /* \"#utility.yul\":4897:4971   */\n      swap2\n      pop\n        /* \"#utility.yul\":4980:5073   */\n      tag_176\n        /* \"#utility.yul\":5069:5072   */\n      dup3\n        /* \"#utility.yul\":4980:5073   */\n      tag_114\n      jump\t// in\n    tag_176:\n        /* \"#utility.yul\":5098:5100   */\n      0x40\n        /* \"#utility.yul\":5093:5096   */\n      dup3\n        /* \"#utility.yul\":5089:5101   */\n      add\n        /* \"#utility.yul\":5082:5101   */\n      swap1\n      pop\n        /* \"#utility.yul\":4741:5107   */\n      swap2\n      swap1\n      pop\n      jump\t// out\n        /* \"#utility.yul\":5113:5532   */\n    tag_68:\n        /* \"#utility.yul\":5279:5283   */\n      0x00\n        /* \"#utility.yul\":5317:5319   */\n      0x20\n        /* \"#utility.yul\":5306:5315   */\n      dup3\n        /* \"#utility.yul\":5302:5320   */\n      add\n        /* \"#utility.yul\":5294:5320   */\n      swap1\n      pop\n        /* \"#utility.yul\":5366:5375   */\n      dup2\n        /* \"#utility.yul\":5360:5364   */\n      dup2\n        /* \"#utility.yul\":5356:5376   */\n      sub\n        /* \"#utility.yul\":5352:5353   */\n      0x00\n        /* \"#utility.yul\":5341:5350   */\n      dup4\n        /* \"#utility.yul\":5337:5354   */\n      add\n        /* \"#utility.yul\":5330:5377   */\n      mstore\n        /* \"#utility.yul\":5394:5525   */\n      tag_178\n        /* \"#utility.yul\":5520:5524   */\n      dup2\n        /* \"#utility.yul\":5394:5525   */\n      tag_115\n      jump\t// in\n    tag_178:\n        /* \"#utility.yul\":5386:5525   */\n      swap1\n      pop\n        /* \"#utility.yul\":5113:5532   */\n      swap2\n      swap1\n      pop\n      jump\t// out\n        /* \"#utility.yul\":5538:5729   */\n    tag_70:\n        /* \"#utility.yul\":5578:5581   */\n      0x00\n        /* \"#utility.yul\":5597:5617   */\n      tag_180\n        /* \"#utility.yul\":5615:5616   */\n      dup3\n        /* \"#utility.yul\":5597:5617   */\n      tag_98\n      jump\t// in\n    tag_180:\n        /* \"#utility.yul\":5592:5617   */\n      swap2\n      pop\n        /* \"#utility.yul\":5631:5651   */\n      tag_181\n        /* \"#utility.yul\":5649:5650   */\n      dup4\n        /* \"#utility.yul\":5631:5651   */\n      tag_98\n      jump\t// in\n    tag_181:\n        /* \"#utility.yul\":5626:5651   */\n      swap3\n      pop\n        /* \"#utility.yul\":5674:5675   */\n      dup3\n        /* \"#utility.yul\":5671:5672   */\n      dup3\n        /* \"#utility.yul\":5667:5676   */\n      add\n        /* \"#utility.yul\":5660:5676   */\n      swap1\n      pop\n        /* \"#utility.yul\":5695:5698   */\n      dup1\n        /* \"#utility.yul\":5692:5693   */\n      dup3\n        /* \"#utility.yul\":5689:5699   */\n      gt\n        /* \"#utility.yul\":5686:5722   */\n      iszero\n      tag_182\n      jumpi\n        /* \"#utility.yul\":5702:5720   */\n      tag_183\n      tag_113\n      jump\t// in\n    tag_183:\n        /* \"#utility.yul\":5686:5722   */\n    tag_182:\n        /* \"#utility.yul\":5538:5729   */\n      swap3\n      swap2\n      pop\n      pop\n      jump\t// out\n        /* \"#utility.yul\":5735:5960   */\n    tag_116:\n        /* \"#utility.yul\":5875:5909   */\n      0x4f6e6c7920746865206f776e65722063616e20706572666f726d207468697320\n        /* \"#utility.yul\":5871:5872   */\n      0x00\n        /* \"#utility.yul\":5863:5869   */\n      dup3\n        /* \"#utility.yul\":5859:5873   */\n      add\n        /* \"#utility.yul\":5852:5910   */\n      mstore\n        /* \"#utility.yul\":5944:5952   */\n      0x616374696f6e0000000000000000000000000000000000000000000000000000\n        /* \"#utility.yul\":5939:5941   */\n      0x20\n        /* \"#utility.yul\":5931:5937   */\n      dup3\n        /* \"#utility.yul\":5927:5942   */\n      add\n        /* \"#utility.yul\":5920:5953   */\n      mstore\n        /* \"#utility.yul\":5735:5960   */\n      pop\n      jump\t// out\n        /* \"#utility.yul\":5966:6332   */\n    tag_117:\n        /* \"#utility.yul\":6108:6111   */\n      0x00\n        /* \"#utility.yul\":6129:6196   */\n      tag_186\n        /* \"#utility.yul\":6193:6195   */\n      0x26\n        /* \"#utility.yul\":6188:6191   */\n      dup4\n        /* \"#utility.yul\":6129:6196   */\n      tag_110\n      jump\t// in\n    tag_186:\n        /* \"#utility.yul\":6122:6196   */\n      swap2\n      pop\n        /* \"#utility.yul\":6205:6298   */\n      tag_187\n        /* \"#utility.yul\":6294:6297   */\n      dup3\n        /* \"#utility.yul\":6205:6298   */\n      tag_116\n      jump\t// in\n    tag_187:\n        /* \"#utility.yul\":6323:6325   */\n      0x40\n        /* \"#utility.yul\":6318:6321   */\n      dup3\n        /* \"#utility.yul\":6314:6326   */\n      add\n        /* \"#utility.yul\":6307:6326   */\n      swap1\n      pop\n        /* \"#utility.yul\":5966:6332   */\n      swap2\n      swap1\n      pop\n      jump\t// out\n        /* \"#utility.yul\":6338:6757   */\n    tag_76:\n        /* \"#utility.yul\":6504:6508   */\n      0x00\n        /* \"#utility.yul\":6542:6544   */\n      0x20\n        /* \"#utility.yul\":6531:6540   */\n      dup3\n        /* \"#utility.yul\":6527:6545   */\n      add\n        /* \"#utility.yul\":6519:6545   */\n      swap1\n      pop\n        /* \"#utility.yul\":6591:6600   */\n      dup2\n        /* \"#utility.yul\":6585:6589   */\n      dup2\n        /* \"#utility.yul\":6581:6601   */\n      sub\n        /* \"#utility.yul\":6577:6578   */\n      0x00\n        /* \"#utility.yul\":6566:6575   */\n      dup4\n        /* \"#utility.yul\":6562:6579   */\n      add\n        /* \"#utility.yul\":6555:6602   */\n      mstore\n        /* \"#utility.yul\":6619:6750   */\n      tag_189\n        /* \"#utility.yul\":6745:6749   */\n      dup2\n        /* \"#utility.yul\":6619:6750   */\n      tag_117\n      jump\t// in\n    tag_189:\n        /* \"#utility.yul\":6611:6750   */\n      swap1\n      pop\n        /* \"#utility.yul\":6338:6757   */\n      swap2\n      swap1\n      pop\n      jump\t// out\n        /* \"#utility.yul\":6763:6993   */\n    tag_118:\n        /* \"#utility.yul\":6903:6937   */\n      0x52657761726420616d6f756e742073686f756c64206265206772656174657220\n        /* \"#utility.yul\":6899:6900   */\n      0x00\n        /* \"#utility.yul\":6891:6897   */\n      dup3\n        /* \"#utility.yul\":6887:6901   */\n      add\n        /* \"#utility.yul\":6880:6938   */\n      mstore\n        /* \"#utility.yul\":6972:6985   */\n      0x7468616e20302e20212121000000000000000000000000000000000000000000\n        /* \"#utility.yul\":6967:6969   */\n      0x20\n        /* \"#utility.yul\":6959:6965   */\n      dup3\n        /* \"#utility.yul\":6955:6970   */\n      add\n        /* \"#utility.yul\":6948:6986   */\n      mstore\n        /* \"#utility.yul\":6763:6993   */\n      pop\n      jump\t// out\n        /* \"#utility.yul\":6999:7365   */\n    tag_119:\n        /* \"#utility.yul\":7141:7144   */\n      0x00\n        /* \"#utility.yul\":7162:7229   */\n      tag_192\n        /* \"#utility.yul\":7226:7228   */\n      0x2b\n        /* \"#utility.yul\":7221:7224   */\n      dup4\n        /* \"#utility.yul\":7162:7229   */\n      tag_110\n      jump\t// in\n    tag_192:\n        /* \"#utility.yul\":7155:7229   */\n      swap2\n      pop\n        /* \"#utility.yul\":7238:7331   */\n      tag_193\n        /* \"#utility.yul\":7327:7330   */\n      dup3\n        /* \"#utility.yul\":7238:7331   */\n      tag_118\n      jump\t// in\n    tag_193:\n        /* \"#utility.yul\":7356:7358   */\n      0x40\n        /* \"#utility.yul\":7351:7354   */\n      dup3\n        /* \"#utility.yul\":7347:7359   */\n      add\n        /* \"#utility.yul\":7340:7359   */\n      swap1\n      pop\n        /* \"#utility.yul\":6999:7365   */\n      swap2\n      swap1\n      pop\n      jump\t// out\n        /* \"#utility.yul\":7371:7790   */\n    tag_80:\n        /* \"#utility.yul\":7537:7541   */\n      0x00\n        /* \"#utility.yul\":7575:7577   */\n      0x20\n        /* \"#utility.yul\":7564:7573   */\n      dup3\n        /* \"#utility.yul\":7560:7578   */\n      add\n        /* \"#utility.yul\":7552:7578   */\n      swap1\n      pop\n        /* \"#utility.yul\":7624:7633   */\n      dup2\n        /* \"#utility.yul\":7618:7622   */\n      dup2\n        /* \"#utility.yul\":7614:7634   */\n      sub\n        /* \"#utility.yul\":7610:7611   */\n      0x00\n        /* \"#utility.yul\":7599:7608   */\n      dup4\n        /* \"#utility.yul\":7595:7612   */\n      add\n        /* \"#utility.yul\":7588:7635   */\n      mstore\n        /* \"#utility.yul\":7652:7783   */\n      tag_195\n        /* \"#utility.yul\":7778:7782   */\n      dup2\n        /* \"#utility.yul\":7652:7783   */\n      tag_119\n      jump\t// in\n    tag_195:\n        /* \"#utility.yul\":7644:7783   */\n      swap1\n      pop\n        /* \"#utility.yul\":7371:7790   */\n      swap2\n      swap1\n      pop\n      jump\t// out\n        /* \"#utility.yul\":7796:8027   */\n    tag_120:\n        /* \"#utility.yul\":7936:7970   */\n      0x4465706f73697420616d6f756e742073686f756c642062652067726561746572\n        /* \"#utility.yul\":7932:7933   */\n      0x00\n        /* \"#utility.yul\":7924:7930   */\n      dup3\n        /* \"#utility.yul\":7920:7934   */\n      add\n        /* \"#utility.yul\":7913:7971   */\n      mstore\n        /* \"#utility.yul\":8005:8019   */\n      0x207468616e20302e202121210000000000000000000000000000000000000000\n        /* \"#utility.yul\":8000:8002   */\n      0x20\n        /* \"#utility.yul\":7992:7998   */\n      dup3\n        /* \"#utility.yul\":7988:8003   */\n      add\n        /* \"#utility.yul\":7981:8020   */\n      mstore\n        /* \"#utility.yul\":7796:8027   */\n      pop\n      jump\t// out\n        /* \"#utility.yul\":8033:8399   */\n    tag_121:\n        /* \"#utility.yul\":8175:8178   */\n      0x00\n        /* \"#utility.yul\":8196:8263   */\n      tag_198\n        /* \"#utility.yul\":8260:8262   */\n      0x2c\n        /* \"#utility.yul\":8255:8258   */\n      dup4\n        /* \"#utility.yul\":8196:8263   */\n      tag_110\n      jump\t// in\n    tag_198:\n        /* \"#utility.yul\":8189:8263   */\n      swap2\n      pop\n        /* \"#utility.yul\":8272:8365   */\n      tag_199\n        /* \"#utility.yul\":8361:8364   */\n      dup3\n        /* \"#utility.yul\":8272:8365   */\n      tag_120\n      jump\t// in\n    tag_199:\n        /* \"#utility.yul\":8390:8392   */\n      0x40\n        /* \"#utility.yul\":8385:8388   */\n      dup3\n        /* \"#utility.yul\":8381:8393   */\n      add\n        /* \"#utility.yul\":8374:8393   */\n      swap1\n      pop\n        /* \"#utility.yul\":8033:8399   */\n      swap2\n      swap1\n      pop\n      jump\t// out\n        /* \"#utility.yul\":8405:8824   */\n    tag_85:\n        /* \"#utility.yul\":8571:8575   */\n      0x00\n        /* \"#utility.yul\":8609:8611   */\n      0x20\n        /* \"#utility.yul\":8598:8607   */\n      dup3\n        /* \"#utility.yul\":8594:8612   */\n      add\n        /* \"#utility.yul\":8586:8612   */\n      swap1\n      pop\n        /* \"#utility.yul\":8658:8667   */\n      dup2\n        /* \"#utility.yul\":8652:8656   */\n      dup2\n        /* \"#utility.yul\":8648:8668   */\n      sub\n        /* \"#utility.yul\":8644:8645   */\n      0x00\n        /* \"#utility.yul\":8633:8642   */\n      dup4\n        /* \"#utility.yul\":8629:8646   */\n      add\n        /* \"#utility.yul\":8622:8669   */\n      mstore\n        /* \"#utility.yul\":8686:8817   */\n      tag_201\n        /* \"#utility.yul\":8812:8816   */\n      dup2\n        /* \"#utility.yul\":8686:8817   */\n      tag_121\n      jump\t// in\n    tag_201:\n        /* \"#utility.yul\":8678:8817   */\n      swap1\n      pop\n        /* \"#utility.yul\":8405:8824   */\n      swap2\n      swap1\n      pop\n      jump\t// out\n        /* \"#utility.yul\":8830:9240   */\n    tag_93:\n        /* \"#utility.yul\":8870:8877   */\n      0x00\n        /* \"#utility.yul\":8893:8913   */\n      tag_203\n        /* \"#utility.yul\":8911:8912   */\n      dup3\n        /* \"#utility.yul\":8893:8913   */\n      tag_98\n      jump\t// in\n    tag_203:\n        /* \"#utility.yul\":8888:8913   */\n      swap2\n      pop\n        /* \"#utility.yul\":8927:8947   */\n      tag_204\n        /* \"#utility.yul\":8945:8946   */\n      dup4\n        /* \"#utility.yul\":8927:8947   */\n      tag_98\n      jump\t// in\n    tag_204:\n        /* \"#utility.yul\":8922:8947   */\n      swap3\n      pop\n        /* \"#utility.yul\":8982:8983   */\n      dup3\n        /* \"#utility.yul\":8979:8980   */\n      dup3\n        /* \"#utility.yul\":8975:8984   */\n      mul\n        /* \"#utility.yul\":9004:9034   */\n      tag_205\n        /* \"#utility.yul\":9022:9033   */\n      dup2\n        /* \"#utility.yul\":9004:9034   */\n      tag_98\n      jump\t// in\n    tag_205:\n        /* \"#utility.yul\":8993:9034   */\n      swap2\n      pop\n        /* \"#utility.yul\":9183:9184   */\n      dup3\n        /* \"#utility.yul\":9174:9181   */\n      dup3\n        /* \"#utility.yul\":9170:9185   */\n      div\n        /* \"#utility.yul\":9167:9168   */\n      dup5\n        /* \"#utility.yul\":9164:9186   */\n      eq\n        /* \"#utility.yul\":9144:9145   */\n      dup4\n        /* \"#utility.yul\":9137:9146   */\n      iszero\n        /* \"#utility.yul\":9117:9200   */\n      or\n        /* \"#utility.yul\":9094:9233   */\n      tag_206\n      jumpi\n        /* \"#utility.yul\":9213:9231   */\n      tag_207\n      tag_113\n      jump\t// in\n    tag_207:\n        /* \"#utility.yul\":9094:9233   */\n    tag_206:\n        /* \"#utility.yul\":8878:9240   */\n      pop\n        /* \"#utility.yul\":8830:9240   */\n      swap3\n      swap2\n      pop\n      pop\n      jump\t// out\n        /* \"#utility.yul\":9246:9426   */\n    tag_122:\n        /* \"#utility.yul\":9294:9371   */\n      0x4e487b7100000000000000000000000000000000000000000000000000000000\n        /* \"#utility.yul\":9291:9292   */\n      0x00\n        /* \"#utility.yul\":9284:9372   */\n      mstore\n        /* \"#utility.yul\":9391:9395   */\n      0x12\n        /* \"#utility.yul\":9388:9389   */\n      0x04\n        /* \"#utility.yul\":9381:9396   */\n      mstore\n        /* \"#utility.yul\":9415:9419   */\n      0x24\n        /* \"#utility.yul\":9412:9413   */\n      0x00\n        /* \"#utility.yul\":9405:9420   */\n      revert\n        /* \"#utility.yul\":9432:9617   */\n    tag_95:\n        /* \"#utility.yul\":9472:9473   */\n      0x00\n        /* \"#utility.yul\":9489:9509   */\n      tag_210\n        /* \"#utility.yul\":9507:9508   */\n      dup3\n        /* \"#utility.yul\":9489:9509   */\n      tag_98\n      jump\t// in\n    tag_210:\n        /* \"#utility.yul\":9484:9509   */\n      swap2\n      pop\n        /* \"#utility.yul\":9523:9543   */\n      tag_211\n        /* \"#utility.yul\":9541:9542   */\n      dup4\n        /* \"#utility.yul\":9523:9543   */\n      tag_98\n      jump\t// in\n    tag_211:\n        /* \"#utility.yul\":9518:9543   */\n      swap3\n      pop\n        /* \"#utility.yul\":9562:9563   */\n      dup3\n        /* \"#utility.yul\":9552:9587   */\n      tag_212\n      jumpi\n        /* \"#utility.yul\":9567:9585   */\n      tag_213\n      tag_122\n      jump\t// in\n    tag_213:\n        /* \"#utility.yul\":9552:9587   */\n    tag_212:\n        /* \"#utility.yul\":9609:9610   */\n      dup3\n        /* \"#utility.yul\":9606:9607   */\n      dup3\n        /* \"#utility.yul\":9602:9611   */\n      div\n        /* \"#utility.yul\":9597:9611   */\n      swap1\n      pop\n        /* \"#utility.yul\":9432:9617   */\n      swap3\n      swap2\n      pop\n      pop\n      jump\t// out\n\n    auxdata: 0xa2646970667358221220519011b79f3d13a107196c249f9e18fb1af888b72f616360100f017ad8fbe2d664736f6c634300081c0033\n}\n",
				"bytecode": {
					"linkReferences": {},
					"object": "6080604052348015600e575f5ffd5b50335f5f6101000a81548173ffffffffffffffffffffffffffffffffffffffff021916908373ffffffffffffffffffffffffffffffffffffffff160217905550610ccc8061005b5f395ff3fe608060405260043610610090575f3560e01c80635997bb37116100585780635997bb371461013057806366666aa91461015a5780639168ae7214610184578063d0e30db0146101c1578063d82e3962146101cb57610090565b806307236168146100945780632e1a7d4d146100be578063372500ab146100e657806349b22a9f146100fc5780634ec7b7a314610106575b5f5ffd5b34801561009f575f5ffd5b506100a8610207565b6040516100b59190610749565b60405180910390f35b3480156100c9575f5ffd5b506100e460048036038101906100df9190610790565b61020c565b005b3480156100f1575f5ffd5b506100fa610341565b005b61010461045b565b005b348015610111575f5ffd5b5061011a610545565b60405161012791906107fa565b60405180910390f35b34801561013b575f5ffd5b50610144610569565b6040516101519190610749565b60405180910390f35b348015610165575f5ffd5b5061016e61056e565b60405161017b9190610749565b60405180910390f35b34801561018f575f5ffd5b506101aa60048036038101906101a5919061083d565b610574565b6040516101b8929190610868565b60405180910390f35b6101c9610594565b005b3480156101d6575f5ffd5b506101f160048036038101906101ec919061083d565b610695565b6040516101fe9190610749565b60405180910390f35b60b481565b5f60025f3373ffffffffffffffffffffffffffffffffffffffff1673ffffffffffffffffffffffffffffffffffffffff1681526020019081526020015f20905081815f01541015610292576040517f08c379a00000000000000000000000000000000000000000000000000000000081526004016102899061090f565b60405180910390fd5b81815f015f8282546102a4919061095a565b925050819055503373ffffffffffffffffffffffffffffffffffffffff166108fc8390811502906040515f60405180830381858888f193505050501580156102ee573d5f5f3e3d5ffd5b503373ffffffffffffffffffffffffffffffffffffffff167f884edad9ce6fa2440d8a54cc123490eb96d2768479d49ff9c7366125a9424364836040516103359190610749565b60405180910390a25050565b5f60025f3373ffffffffffffffffffffffffffffffffffffffff1673ffffffffffffffffffffffffffffffffffffffff1681526020019081526020015f2090505f61038b33610695565b90505f81116103cf576040517f08c379a00000000000000000000000000000000000000000000000000000000081526004016103c6906109fd565b60405180910390fd5b80825f015f8282546103e19190610a1b565b925050819055504282600101819055508060015f828254610402919061095a565b925050819055503373ffffffffffffffffffffffffffffffffffffffff167f1f89f96333d3133000ee447473151fa9606543368f02271c9d95ae14f13bcc678260405161044f9190610749565b60405180910390a25050565b5f5f9054906101000a900473ffffffffffffffffffffffffffffffffffffffff1673ffffffffffffffffffffffffffffffffffffffff163373ffffffffffffffffffffffffffffffffffffffff16146104e9576040517f08c379a00000000000000000000000000000000000000000000000000000000081526004016104e090610abe565b60405180910390fd5b5f341161052b576040517f08c379a000000000000000000000000000000000000000000000000000000000815260040161052290610b4c565b60405180910390fd5b3460015f82825461053c9190610a1b565b92505081905550565b5f5f9054906101000a900473ffffffffffffffffffffffffffffffffffffffff1681565b600581565b60015481565b6002602052805f5260405f205f91509050805f0154908060010154905082565b5f34116105d6576040517f08c379a00000000000000000000000000000000000000000000000000000000081526004016105cd90610bda565b60405180910390fd5b5f60025f3373ffffffffffffffffffffffffffffffffffffffff1673ffffffffffffffffffffffffffffffffffffffff1681526020019081526020015f20905034815f015f8282546106289190610a1b565b925050819055505f816001015403610644574281600101819055505b3373ffffffffffffffffffffffffffffffffffffffff167fe1fffcc4923d04b559f4d29a8bfc6cda04eb5b0d3c460751c2402c5c5cc9109c3460405161068a9190610749565b60405180910390a250565b5f5f60025f8473ffffffffffffffffffffffffffffffffffffffff1673ffffffffffffffffffffffffffffffffffffffff1681526020019081526020015f20905060b481600101546106e79190610a1b565b4210610727575f60646005835f01546107009190610bf8565b61070a9190610c66565b905060015481111561071c575f61071e565b805b9250505061072c565b5f9150505b919050565b5f819050919050565b61074381610731565b82525050565b5f60208201905061075c5f83018461073a565b92915050565b5f5ffd5b61076f81610731565b8114610779575f5ffd5b50565b5f8135905061078a81610766565b92915050565b5f602082840312156107a5576107a4610762565b5b5f6107b28482850161077c565b91505092915050565b5f73ffffffffffffffffffffffffffffffffffffffff82169050919050565b5f6107e4826107bb565b9050919050565b6107f4816107da565b82525050565b5f60208201905061080d5f8301846107eb565b92915050565b61081c816107da565b8114610826575f5ffd5b50565b5f8135905061083781610813565b92915050565b5f6020828403121561085257610851610762565b5b5f61085f84828501610829565b91505092915050565b5f60408201905061087b5f83018561073a565b610888602083018461073a565b9392505050565b5f82825260208201905092915050565b7f496e73756666696369656e7421212062616c616e636520746f207769746864725f8201527f61772e0000000000000000000000000000000000000000000000000000000000602082015250565b5f6108f960238361088f565b91506109048261089f565b604082019050919050565b5f6020820190508181035f830152610926816108ed565b9050919050565b7f4e487b71000000000000000000000000000000000000000000000000000000005f52601160045260245ffd5b5f61096482610731565b915061096f83610731565b92508282039050818111156109875761098661092d565b5b92915050565b7f4e6f207265776172647320617661696c61626c652121206f7220696e737566665f8201527f696369656e742072657761726420706f6f6c2121210000000000000000000000602082015250565b5f6109e760358361088f565b91506109f28261098d565b604082019050919050565b5f6020820190508181035f830152610a14816109db565b9050919050565b5f610a2582610731565b9150610a3083610731565b9250828201905080821115610a4857610a4761092d565b5b92915050565b7f4f6e6c7920746865206f776e65722063616e20706572666f726d2074686973205f8201527f616374696f6e0000000000000000000000000000000000000000000000000000602082015250565b5f610aa860268361088f565b9150610ab382610a4e565b604082019050919050565b5f6020820190508181035f830152610ad581610a9c565b9050919050565b7f52657761726420616d6f756e742073686f756c642062652067726561746572205f8201527f7468616e20302e20212121000000000000000000000000000000000000000000602082015250565b5f610b36602b8361088f565b9150610b4182610adc565b604082019050919050565b5f6020820190508181035f830152610b6381610b2a565b9050919050565b7f4465706f73697420616d6f756e742073686f756c6420626520677265617465725f8201527f207468616e20302e202121210000000000000000000000000000000000000000602082015250565b5f610bc4602c8361088f565b9150610bcf82610b6a565b604082019050919050565b5f6020820190508181035f830152610bf181610bb8565b9050919050565b5f610c0282610731565b9150610c0d83610731565b9250828202610c1b81610731565b91508282048414831517610c3257610c3161092d565b5b5092915050565b7f4e487b71000000000000000000000000000000000000000000000000000000005f52601260045260245ffd5b5f610c7082610731565b9150610c7b83610731565b925082610c8b57610c8a610c39565b5b82820490509291505056fea2646970667358221220519011b79f3d13a107196c249f9e18fb1af888b72f616360100f017ad8fbe2d664736f6c634300081c0033",
					"opcodes": "PUSH1 0x80 PUSH1 0x40 MSTORE CALLVALUE DUP1 ISZERO PUSH1 0xE JUMPI PUSH0 PUSH0 REVERT JUMPDEST POP CALLER PUSH0 PUSH0 PUSH2 0x100 EXP DUP2 SLOAD DUP2 PUSH20 0xFFFFFFFFFFFFFFFFFFFFFFFFFFFFFFFFFFFFFFFF MUL NOT AND SWAP1 DUP4 PUSH20 0xFFFFFFFFFFFFFFFFFFFFFFFFFFFFFFFFFFFFFFFF AND MUL OR SWAP1 SSTORE POP PUSH2 0xCCC DUP1 PUSH2 0x5B PUSH0 CODECOPY PUSH0 RETURN INVALID PUSH1 0x80 PUSH1 0x40 MSTORE PUSH1 0x4 CALLDATASIZE LT PUSH2 0x90 JUMPI PUSH0 CALLDATALOAD PUSH1 0xE0 SHR DUP1 PUSH4 0x5997BB37 GT PUSH2 0x58 JUMPI DUP1 PUSH4 0x5997BB37 EQ PUSH2 0x130 JUMPI DUP1 PUSH4 0x66666AA9 EQ PUSH2 0x15A JUMPI DUP1 PUSH4 0x9168AE72 EQ PUSH2 0x184 JUMPI DUP1 PUSH4 0xD0E30DB0 EQ PUSH2 0x1C1 JUMPI DUP1 PUSH4 0xD82E3962 EQ PUSH2 0x1CB JUMPI PUSH2 0x90 JUMP JUMPDEST DUP1 PUSH4 0x7236168 EQ PUSH2 0x94 JUMPI DUP1 PUSH4 0x2E1A7D4D EQ PUSH2 0xBE JUMPI DUP1 PUSH4 0x372500AB EQ PUSH2 0xE6 JUMPI DUP1 PUSH4 0x49B22A9F EQ PUSH2 0xFC JUMPI DUP1 PUSH4 0x4EC7B7A3 EQ PUSH2 0x106 JUMPI JUMPDEST PUSH0 PUSH0 REVERT JUMPDEST CALLVALUE DUP1 ISZERO PUSH2 0x9F JUMPI PUSH0 PUSH0 REVERT JUMPDEST POP PUSH2 0xA8 PUSH2 0x207 JUMP JUMPDEST PUSH1 0x40 MLOAD PUSH2 0xB5 SWAP2 SWAP1 PUSH2 0x749 JUMP JUMPDEST PUSH1 0x40 MLOAD DUP1 SWAP2 SUB SWAP1 RETURN JUMPDEST CALLVALUE DUP1 ISZERO PUSH2 0xC9 JUMPI PUSH0 PUSH0 REVERT JUMPDEST POP PUSH2 0xE4 PUSH1 0x4 DUP1 CALLDATASIZE SUB DUP2 ADD SWAP1 PUSH2 0xDF SWAP2 SWAP1 PUSH2 0x790 JUMP JUMPDEST PUSH2 0x20C JUMP JUMPDEST STOP JUMPDEST CALLVALUE DUP1 ISZERO PUSH2 0xF1 JUMPI PUSH0 PUSH0 REVERT JUMPDEST POP PUSH2 0xFA PUSH2 0x341 JUMP JUMPDEST STOP JUMPDEST PUSH2 0x104 PUSH2 0x45B JUMP JUMPDEST STOP JUMPDEST CALLVALUE DUP1 ISZERO PUSH2 0x111 JUMPI PUSH0 PUSH0 REVERT JUMPDEST POP PUSH2 0x11A PUSH2 0x545 JUMP JUMPDEST PUSH1 0x40 MLOAD PUSH2 0x127 SWAP2 SWAP1 PUSH2 0x7FA JUMP JUMPDEST PUSH1 0x40 MLOAD DUP1 SWAP2 SUB SWAP1 RETURN JUMPDEST CALLVALUE DUP1 ISZERO PUSH2 0x13B JUMPI PUSH0 PUSH0 REVERT JUMPDEST POP PUSH2 0x144 PUSH2 0x569 JUMP JUMPDEST PUSH1 0x40 MLOAD PUSH2 0x151 SWAP2 SWAP1 PUSH2 0x749 JUMP JUMPDEST PUSH1 0x40 MLOAD DUP1 SWAP2 SUB SWAP1 RETURN JUMPDEST CALLVALUE DUP1 ISZERO PUSH2 0x165 JUMPI PUSH0 PUSH0 REVERT JUMPDEST POP PUSH2 0x16E PUSH2 0x56E JUMP JUMPDEST PUSH1 0x40 MLOAD PUSH2 0x17B SWAP2 SWAP1 PUSH2 0x749 JUMP JUMPDEST PUSH1 0x40 MLOAD DUP1 SWAP2 SUB SWAP1 RETURN JUMPDEST CALLVALUE DUP1 ISZERO PUSH2 0x18F JUMPI PUSH0 PUSH0 REVERT JUMPDEST POP PUSH2 0x1AA PUSH1 0x4 DUP1 CALLDATASIZE SUB DUP2 ADD SWAP1 PUSH2 0x1A5 SWAP2 SWAP1 PUSH2 0x83D JUMP JUMPDEST PUSH2 0x574 JUMP JUMPDEST PUSH1 0x40 MLOAD PUSH2 0x1B8 SWAP3 SWAP2 SWAP1 PUSH2 0x868 JUMP JUMPDEST PUSH1 0x40 MLOAD DUP1 SWAP2 SUB SWAP1 RETURN JUMPDEST PUSH2 0x1C9 PUSH2 0x594 JUMP JUMPDEST STOP JUMPDEST CALLVALUE DUP1 ISZERO PUSH2 0x1D6 JUMPI PUSH0 PUSH0 REVERT JUMPDEST POP PUSH2 0x1F1 PUSH1 0x4 DUP1 CALLDATASIZE SUB DUP2 ADD SWAP1 PUSH2 0x1EC SWAP2 SWAP1 PUSH2 0x83D JUMP JUMPDEST PUSH2 0x695 JUMP JUMPDEST PUSH1 0x40 MLOAD PUSH2 0x1FE SWAP2 SWAP1 PUSH2 0x749 JUMP JUMPDEST PUSH1 0x40 MLOAD DUP1 SWAP2 SUB SWAP1 RETURN JUMPDEST PUSH1 0xB4 DUP2 JUMP JUMPDEST PUSH0 PUSH1 0x2 PUSH0 CALLER PUSH20 0xFFFFFFFFFFFFFFFFFFFFFFFFFFFFFFFFFFFFFFFF AND PUSH20 0xFFFFFFFFFFFFFFFFFFFFFFFFFFFFFFFFFFFFFFFF AND DUP2 MSTORE PUSH1 0x20 ADD SWAP1 DUP2 MSTORE PUSH1 0x20 ADD PUSH0 KECCAK256 SWAP1 POP DUP2 DUP2 PUSH0 ADD SLOAD LT ISZERO PUSH2 0x292 JUMPI PUSH1 0x40 MLOAD PUSH32 0x8C379A000000000000000000000000000000000000000000000000000000000 DUP2 MSTORE PUSH1 0x4 ADD PUSH2 0x289 SWAP1 PUSH2 0x90F JUMP JUMPDEST PUSH1 0x40 MLOAD DUP1 SWAP2 SUB SWAP1 REVERT JUMPDEST DUP2 DUP2 PUSH0 ADD PUSH0 DUP3 DUP3 SLOAD PUSH2 0x2A4 SWAP2 SWAP1 PUSH2 0x95A JUMP JUMPDEST SWAP3 POP POP DUP2 SWAP1 SSTORE POP CALLER PUSH20 0xFFFFFFFFFFFFFFFFFFFFFFFFFFFFFFFFFFFFFFFF AND PUSH2 0x8FC DUP4 SWAP1 DUP2 ISZERO MUL SWAP1 PUSH1 0x40 MLOAD PUSH0 PUSH1 0x40 MLOAD DUP1 DUP4 SUB DUP2 DUP6 DUP9 DUP9 CALL SWAP4 POP POP POP POP ISZERO DUP1 ISZERO PUSH2 0x2EE JUMPI RETURNDATASIZE PUSH0 PUSH0 RETURNDATACOPY RETURNDATASIZE PUSH0 REVERT JUMPDEST POP CALLER PUSH20 0xFFFFFFFFFFFFFFFFFFFFFFFFFFFFFFFFFFFFFFFF AND PUSH32 0x884EDAD9CE6FA2440D8A54CC123490EB96D2768479D49FF9C7366125A9424364 DUP4 PUSH1 0x40 MLOAD PUSH2 0x335 SWAP2 SWAP1 PUSH2 0x749 JUMP JUMPDEST PUSH1 0x40 MLOAD DUP1 SWAP2 SUB SWAP1 LOG2 POP POP JUMP JUMPDEST PUSH0 PUSH1 0x2 PUSH0 CALLER PUSH20 0xFFFFFFFFFFFFFFFFFFFFFFFFFFFFFFFFFFFFFFFF AND PUSH20 0xFFFFFFFFFFFFFFFFFFFFFFFFFFFFFFFFFFFFFFFF AND DUP2 MSTORE PUSH1 0x20 ADD SWAP1 DUP2 MSTORE PUSH1 0x20 ADD PUSH0 KECCAK256 SWAP1 POP PUSH0 PUSH2 0x38B CALLER PUSH2 0x695 JUMP JUMPDEST SWAP1 POP PUSH0 DUP2 GT PUSH2 0x3CF JUMPI PUSH1 0x40 MLOAD PUSH32 0x8C379A000000000000000000000000000000000000000000000000000000000 DUP2 MSTORE PUSH1 0x4 ADD PUSH2 0x3C6 SWAP1 PUSH2 0x9FD JUMP JUMPDEST PUSH1 0x40 MLOAD DUP1 SWAP2 SUB SWAP1 REVERT JUMPDEST DUP1 DUP3 PUSH0 ADD PUSH0 DUP3 DUP3 SLOAD PUSH2 0x3E1 SWAP2 SWAP1 PUSH2 0xA1B JUMP JUMPDEST SWAP3 POP POP DUP2 SWAP1 SSTORE POP TIMESTAMP DUP3 PUSH1 0x1 ADD DUP2 SWAP1 SSTORE POP DUP1 PUSH1 0x1 PUSH0 DUP3 DUP3 SLOAD PUSH2 0x402 SWAP2 SWAP1 PUSH2 0x95A JUMP JUMPDEST SWAP3 POP POP DUP2 SWAP1 SSTORE POP CALLER PUSH20 0xFFFFFFFFFFFFFFFFFFFFFFFFFFFFFFFFFFFFFFFF AND PUSH32 0x1F89F96333D3133000EE447473151FA9606543368F02271C9D95AE14F13BCC67 DUP3 PUSH1 0x40 MLOAD PUSH2 0x44F SWAP2 SWAP1 PUSH2 0x749 JUMP JUMPDEST PUSH1 0x40 MLOAD DUP1 SWAP2 SUB SWAP1 LOG2 POP POP JUMP JUMPDEST PUSH0 PUSH0 SWAP1 SLOAD SWAP1 PUSH2 0x100 EXP SWAP1 DIV PUSH20 0xFFFFFFFFFFFFFFFFFFFFFFFFFFFFFFFFFFFFFFFF AND PUSH20 0xFFFFFFFFFFFFFFFFFFFFFFFFFFFFFFFFFFFFFFFF AND CALLER PUSH20 0xFFFFFFFFFFFFFFFFFFFFFFFFFFFFFFFFFFFFFFFF AND EQ PUSH2 0x4E9 JUMPI PUSH1 0x40 MLOAD PUSH32 0x8C379A000000000000000000000000000000000000000000000000000000000 DUP2 MSTORE PUSH1 0x4 ADD PUSH2 0x4E0 SWAP1 PUSH2 0xABE JUMP JUMPDEST PUSH1 0x40 MLOAD DUP1 SWAP2 SUB SWAP1 REVERT JUMPDEST PUSH0 CALLVALUE GT PUSH2 0x52B JUMPI PUSH1 0x40 MLOAD PUSH32 0x8C379A000000000000000000000000000000000000000000000000000000000 DUP2 MSTORE PUSH1 0x4 ADD PUSH2 0x522 SWAP1 PUSH2 0xB4C JUMP JUMPDEST PUSH1 0x40 MLOAD DUP1 SWAP2 SUB SWAP1 REVERT JUMPDEST CALLVALUE PUSH1 0x1 PUSH0 DUP3 DUP3 SLOAD PUSH2 0x53C SWAP2 SWAP1 PUSH2 0xA1B JUMP JUMPDEST SWAP3 POP POP DUP2 SWAP1 SSTORE POP JUMP JUMPDEST PUSH0 PUSH0 SWAP1 SLOAD SWAP1 PUSH2 0x100 EXP SWAP1 DIV PUSH20 0xFFFFFFFFFFFFFFFFFFFFFFFFFFFFFFFFFFFFFFFF AND DUP2 JUMP JUMPDEST PUSH1 0x5 DUP2 JUMP JUMPDEST PUSH1 0x1 SLOAD DUP2 JUMP JUMPDEST PUSH1 0x2 PUSH1 0x20 MSTORE DUP1 PUSH0 MSTORE PUSH1 0x40 PUSH0 KECCAK256 PUSH0 SWAP2 POP SWAP1 POP DUP1 PUSH0 ADD SLOAD SWAP1 DUP1 PUSH1 0x1 ADD SLOAD SWAP1 POP DUP3 JUMP JUMPDEST PUSH0 CALLVALUE GT PUSH2 0x5D6 JUMPI PUSH1 0x40 MLOAD PUSH32 0x8C379A000000000000000000000000000000000000000000000000000000000 DUP2 MSTORE PUSH1 0x4 ADD PUSH2 0x5CD SWAP1 PUSH2 0xBDA JUMP JUMPDEST PUSH1 0x40 MLOAD DUP1 SWAP2 SUB SWAP1 REVERT JUMPDEST PUSH0 PUSH1 0x2 PUSH0 CALLER PUSH20 0xFFFFFFFFFFFFFFFFFFFFFFFFFFFFFFFFFFFFFFFF AND PUSH20 0xFFFFFFFFFFFFFFFFFFFFFFFFFFFFFFFFFFFFFFFF AND DUP2 MSTORE PUSH1 0x20 ADD SWAP1 DUP2 MSTORE PUSH1 0x20 ADD PUSH0 KECCAK256 SWAP1 POP CALLVALUE DUP2 PUSH0 ADD PUSH0 DUP3 DUP3 SLOAD PUSH2 0x628 SWAP2 SWAP1 PUSH2 0xA1B JUMP JUMPDEST SWAP3 POP POP DUP2 SWAP1 SSTORE POP PUSH0 DUP2 PUSH1 0x1 ADD SLOAD SUB PUSH2 0x644 JUMPI TIMESTAMP DUP2 PUSH1 0x1 ADD DUP2 SWAP1 SSTORE POP JUMPDEST CALLER PUSH20 0xFFFFFFFFFFFFFFFFFFFFFFFFFFFFFFFFFFFFFFFF AND PUSH32 0xE1FFFCC4923D04B559F4D29A8BFC6CDA04EB5B0D3C460751C2402C5C5CC9109C CALLVALUE PUSH1 0x40 MLOAD PUSH2 0x68A SWAP2 SWAP1 PUSH2 0x749 JUMP JUMPDEST PUSH1 0x40 MLOAD DUP1 SWAP2 SUB SWAP1 LOG2 POP JUMP JUMPDEST PUSH0 PUSH0 PUSH1 0x2 PUSH0 DUP5 PUSH20 0xFFFFFFFFFFFFFFFFFFFFFFFFFFFFFFFFFFFFFFFF AND PUSH20 0xFFFFFFFFFFFFFFFFFFFFFFFFFFFFFFFFFFFFFFFF AND DUP2 MSTORE PUSH1 0x20 ADD SWAP1 DUP2 MSTORE PUSH1 0x20 ADD PUSH0 KECCAK256 SWAP1 POP PUSH1 0xB4 DUP2 PUSH1 0x1 ADD SLOAD PUSH2 0x6E7 SWAP2 SWAP1 PUSH2 0xA1B JUMP JUMPDEST TIMESTAMP LT PUSH2 0x727 JUMPI PUSH0 PUSH1 0x64 PUSH1 0x5 DUP4 PUSH0 ADD SLOAD PUSH2 0x700 SWAP2 SWAP1 PUSH2 0xBF8 JUMP JUMPDEST PUSH2 0x70A SWAP2 SWAP1 PUSH2 0xC66 JUMP JUMPDEST SWAP1 POP PUSH1 0x1 SLOAD DUP2 GT ISZERO PUSH2 0x71C JUMPI PUSH0 PUSH2 0x71E JUMP JUMPDEST DUP1 JUMPDEST SWAP3 POP POP POP PUSH2 0x72C JUMP JUMPDEST PUSH0 SWAP2 POP POP JUMPDEST SWAP2 SWAP1 POP JUMP JUMPDEST PUSH0 DUP2 SWAP1 POP SWAP2 SWAP1 POP JUMP JUMPDEST PUSH2 0x743 DUP2 PUSH2 0x731 JUMP JUMPDEST DUP3 MSTORE POP POP JUMP JUMPDEST PUSH0 PUSH1 0x20 DUP3 ADD SWAP1 POP PUSH2 0x75C PUSH0 DUP4 ADD DUP5 PUSH2 0x73A JUMP JUMPDEST SWAP3 SWAP2 POP POP JUMP JUMPDEST PUSH0 PUSH0 REVERT JUMPDEST PUSH2 0x76F DUP2 PUSH2 0x731 JUMP JUMPDEST DUP2 EQ PUSH2 0x779 JUMPI PUSH0 PUSH0 REVERT JUMPDEST POP JUMP JUMPDEST PUSH0 DUP2 CALLDATALOAD SWAP1 POP PUSH2 0x78A DUP2 PUSH2 0x766 JUMP JUMPDEST SWAP3 SWAP2 POP POP JUMP JUMPDEST PUSH0 PUSH1 0x20 DUP3 DUP5 SUB SLT ISZERO PUSH2 0x7A5 JUMPI PUSH2 0x7A4 PUSH2 0x762 JUMP JUMPDEST JUMPDEST PUSH0 PUSH2 0x7B2 DUP5 DUP3 DUP6 ADD PUSH2 0x77C JUMP JUMPDEST SWAP2 POP POP SWAP3 SWAP2 POP POP JUMP JUMPDEST PUSH0 PUSH20 0xFFFFFFFFFFFFFFFFFFFFFFFFFFFFFFFFFFFFFFFF DUP3 AND SWAP1 POP SWAP2 SWAP1 POP JUMP JUMPDEST PUSH0 PUSH2 0x7E4 DUP3 PUSH2 0x7BB JUMP JUMPDEST SWAP1 POP SWAP2 SWAP1 POP JUMP JUMPDEST PUSH2 0x7F4 DUP2 PUSH2 0x7DA JUMP JUMPDEST DUP3 MSTORE POP POP JUMP JUMPDEST PUSH0 PUSH1 0x20 DUP3 ADD SWAP1 POP PUSH2 0x80D PUSH0 DUP4 ADD DUP5 PUSH2 0x7EB JUMP JUMPDEST SWAP3 SWAP2 POP POP JUMP JUMPDEST PUSH2 0x81C DUP2 PUSH2 0x7DA JUMP JUMPDEST DUP2 EQ PUSH2 0x826 JUMPI PUSH0 PUSH0 REVERT JUMPDEST POP JUMP JUMPDEST PUSH0 DUP2 CALLDATALOAD SWAP1 POP PUSH2 0x837 DUP2 PUSH2 0x813 JUMP JUMPDEST SWAP3 SWAP2 POP POP JUMP JUMPDEST PUSH0 PUSH1 0x20 DUP3 DUP5 SUB SLT ISZERO PUSH2 0x852 JUMPI PUSH2 0x851 PUSH2 0x762 JUMP JUMPDEST JUMPDEST PUSH0 PUSH2 0x85F DUP5 DUP3 DUP6 ADD PUSH2 0x829 JUMP JUMPDEST SWAP2 POP POP SWAP3 SWAP2 POP POP JUMP JUMPDEST PUSH0 PUSH1 0x40 DUP3 ADD SWAP1 POP PUSH2 0x87B PUSH0 DUP4 ADD DUP6 PUSH2 0x73A JUMP JUMPDEST PUSH2 0x888 PUSH1 0x20 DUP4 ADD DUP5 PUSH2 0x73A JUMP JUMPDEST SWAP4 SWAP3 POP POP POP JUMP JUMPDEST PUSH0 DUP3 DUP3 MSTORE PUSH1 0x20 DUP3 ADD SWAP1 POP SWAP3 SWAP2 POP POP JUMP JUMPDEST PUSH32 0x496E73756666696369656E7421212062616C616E636520746F20776974686472 PUSH0 DUP3 ADD MSTORE PUSH32 0x61772E0000000000000000000000000000000000000000000000000000000000 PUSH1 0x20 DUP3 ADD MSTORE POP JUMP JUMPDEST PUSH0 PUSH2 0x8F9 PUSH1 0x23 DUP4 PUSH2 0x88F JUMP JUMPDEST SWAP2 POP PUSH2 0x904 DUP3 PUSH2 0x89F JUMP JUMPDEST PUSH1 0x40 DUP3 ADD SWAP1 POP SWAP2 SWAP1 POP JUMP JUMPDEST PUSH0 PUSH1 0x20 DUP3 ADD SWAP1 POP DUP2 DUP2 SUB PUSH0 DUP4 ADD MSTORE PUSH2 0x926 DUP2 PUSH2 0x8ED JUMP JUMPDEST SWAP1 POP SWAP2 SWAP1 POP JUMP JUMPDEST PUSH32 0x4E487B7100000000000000000000000000000000000000000000000000000000 PUSH0 MSTORE PUSH1 0x11 PUSH1 0x4 MSTORE PUSH1 0x24 PUSH0 REVERT JUMPDEST PUSH0 PUSH2 0x964 DUP3 PUSH2 0x731 JUMP JUMPDEST SWAP2 POP PUSH2 0x96F DUP4 PUSH2 0x731 JUMP JUMPDEST SWAP3 POP DUP3 DUP3 SUB SWAP1 POP DUP2 DUP2 GT ISZERO PUSH2 0x987 JUMPI PUSH2 0x986 PUSH2 0x92D JUMP JUMPDEST JUMPDEST SWAP3 SWAP2 POP POP JUMP JUMPDEST PUSH32 0x4E6F207265776172647320617661696C61626C652121206F7220696E73756666 PUSH0 DUP3 ADD MSTORE PUSH32 0x696369656E742072657761726420706F6F6C2121210000000000000000000000 PUSH1 0x20 DUP3 ADD MSTORE POP JUMP JUMPDEST PUSH0 PUSH2 0x9E7 PUSH1 0x35 DUP4 PUSH2 0x88F JUMP JUMPDEST SWAP2 POP PUSH2 0x9F2 DUP3 PUSH2 0x98D JUMP JUMPDEST PUSH1 0x40 DUP3 ADD SWAP1 POP SWAP2 SWAP1 POP JUMP JUMPDEST PUSH0 PUSH1 0x20 DUP3 ADD SWAP1 POP DUP2 DUP2 SUB PUSH0 DUP4 ADD MSTORE PUSH2 0xA14 DUP2 PUSH2 0x9DB JUMP JUMPDEST SWAP1 POP SWAP2 SWAP1 POP JUMP JUMPDEST PUSH0 PUSH2 0xA25 DUP3 PUSH2 0x731 JUMP JUMPDEST SWAP2 POP PUSH2 0xA30 DUP4 PUSH2 0x731 JUMP JUMPDEST SWAP3 POP DUP3 DUP3 ADD SWAP1 POP DUP1 DUP3 GT ISZERO PUSH2 0xA48 JUMPI PUSH2 0xA47 PUSH2 0x92D JUMP JUMPDEST JUMPDEST SWAP3 SWAP2 POP POP JUMP JUMPDEST PUSH32 0x4F6E6C7920746865206F776E65722063616E20706572666F726D207468697320 PUSH0 DUP3 ADD MSTORE PUSH32 0x616374696F6E0000000000000000000000000000000000000000000000000000 PUSH1 0x20 DUP3 ADD MSTORE POP JUMP JUMPDEST PUSH0 PUSH2 0xAA8 PUSH1 0x26 DUP4 PUSH2 0x88F JUMP JUMPDEST SWAP2 POP PUSH2 0xAB3 DUP3 PUSH2 0xA4E JUMP JUMPDEST PUSH1 0x40 DUP3 ADD SWAP1 POP SWAP2 SWAP1 POP JUMP JUMPDEST PUSH0 PUSH1 0x20 DUP3 ADD SWAP1 POP DUP2 DUP2 SUB PUSH0 DUP4 ADD MSTORE PUSH2 0xAD5 DUP2 PUSH2 0xA9C JUMP JUMPDEST SWAP1 POP SWAP2 SWAP1 POP JUMP JUMPDEST PUSH32 0x52657761726420616D6F756E742073686F756C64206265206772656174657220 PUSH0 DUP3 ADD MSTORE PUSH32 0x7468616E20302E20212121000000000000000000000000000000000000000000 PUSH1 0x20 DUP3 ADD MSTORE POP JUMP JUMPDEST PUSH0 PUSH2 0xB36 PUSH1 0x2B DUP4 PUSH2 0x88F JUMP JUMPDEST SWAP2 POP PUSH2 0xB41 DUP3 PUSH2 0xADC JUMP JUMPDEST PUSH1 0x40 DUP3 ADD SWAP1 POP SWAP2 SWAP1 POP JUMP JUMPDEST PUSH0 PUSH1 0x20 DUP3 ADD SWAP1 POP DUP2 DUP2 SUB PUSH0 DUP4 ADD MSTORE PUSH2 0xB63 DUP2 PUSH2 0xB2A JUMP JUMPDEST SWAP1 POP SWAP2 SWAP1 POP JUMP JUMPDEST PUSH32 0x4465706F73697420616D6F756E742073686F756C642062652067726561746572 PUSH0 DUP3 ADD MSTORE PUSH32 0x207468616E20302E202121210000000000000000000000000000000000000000 PUSH1 0x20 DUP3 ADD MSTORE POP JUMP JUMPDEST PUSH0 PUSH2 0xBC4 PUSH1 0x2C DUP4 PUSH2 0x88F JUMP JUMPDEST SWAP2 POP PUSH2 0xBCF DUP3 PUSH2 0xB6A JUMP JUMPDEST PUSH1 0x40 DUP3 ADD SWAP1 POP SWAP2 SWAP1 POP JUMP JUMPDEST PUSH0 PUSH1 0x20 DUP3 ADD SWAP1 POP DUP2 DUP2 SUB PUSH0 DUP4 ADD MSTORE PUSH2 0xBF1 DUP2 PUSH2 0xBB8 JUMP JUMPDEST SWAP1 POP SWAP2 SWAP1 POP JUMP JUMPDEST PUSH0 PUSH2 0xC02 DUP3 PUSH2 0x731 JUMP JUMPDEST SWAP2 POP PUSH2 0xC0D DUP4 PUSH2 0x731 JUMP JUMPDEST SWAP3 POP DUP3 DUP3 MUL PUSH2 0xC1B DUP2 PUSH2 0x731 JUMP JUMPDEST SWAP2 POP DUP3 DUP3 DIV DUP5 EQ DUP4 ISZERO OR PUSH2 0xC32 JUMPI PUSH2 0xC31 PUSH2 0x92D JUMP JUMPDEST JUMPDEST POP SWAP3 SWAP2 POP POP JUMP JUMPDEST PUSH32 0x4E487B7100000000000000000000000000000000000000000000000000000000 PUSH0 MSTORE PUSH1 0x12 PUSH1 0x4 MSTORE PUSH1 0x24 PUSH0 REVERT JUMPDEST PUSH0 PUSH2 0xC70 DUP3 PUSH2 0x731 JUMP JUMPDEST SWAP2 POP PUSH2 0xC7B DUP4 PUSH2 0x731 JUMP JUMPDEST SWAP3 POP DUP3 PUSH2 0xC8B JUMPI PUSH2 0xC8A PUSH2 0xC39 JUMP JUMPDEST JUMPDEST DUP3 DUP3 DIV SWAP1 POP SWAP3 SWAP2 POP POP JUMP INVALID LOG2 PUSH5 0x6970667358 0x22 SLT KECCAK256 MLOAD SWAP1 GT 0xB7 SWAP16 RETURNDATASIZE SGT LOG1 SMOD NOT PUSH13 0x249F9E18FB1AF888B72F616360 LT 0xF ADD PUSH27 0xD8FBE2D664736F6C634300081C0033000000000000000000000000 "
				},
				"gasEstimates": {
					"creation": {
						"codeDepositCost": "655200",
						"executionCost": "24951",
						"totalCost": "680151"
					},
					"external": {
						"Owner_Address()": "2596",
						"REWARD_RATE()": "325",
						"REWARD_TIME()": "326",
						"addRewardFunds()": "infinite",
						"calculateReward(address)": "infinite",
						"claimRewards()": "infinite",
						"deposit()": "infinite",
						"rewardPool()": "2447",
						"stakers(address)": "infinite",
						"withdraw(uint256)": "infinite"
					}
				},
				"methodIdentifiers": {
					"Owner_Address()": "4ec7b7a3",
					"REWARD_RATE()": "5997bb37",
					"REWARD_TIME()": "07236168",
					"addRewardFunds()": "49b22a9f",
					"calculateReward(address)": "d82e3962",
					"claimRewards()": "372500ab",
					"deposit()": "d0e30db0",
					"rewardPool()": "66666aa9",
					"stakers(address)": "9168ae72",
					"withdraw(uint256)": "2e1a7d4d"
				}
			},
			"storageLayout": {
				"storage": [
					{
						"astId": 3,
						"contract": "FinalExam.sol:StakingPool",
						"label": "Owner_Address",
						"offset": 0,
						"slot": "0",
						"type": "t_address"
					},
					{
						"astId": 5,
						"contract": "FinalExam.sol:StakingPool",
						"label": "rewardPool",
						"offset": 0,
						"slot": "1",
						"type": "t_uint256"
					},
					{
						"astId": 15,
						"contract": "FinalExam.sol:StakingPool",
						"label": "stakers",
						"offset": 0,
						"slot": "2",
						"type": "t_mapping(t_address,t_struct(Staker)10_storage)"
					}
				],
				"types": {
					"t_address": {
						"encoding": "inplace",
						"label": "address",
						"numberOfBytes": "20"
					},
					"t_mapping(t_address,t_struct(Staker)10_storage)": {
						"encoding": "mapping",
						"key": "t_address",
						"label": "mapping(address => struct StakingPool.Staker)",
						"numberOfBytes": "32",
						"value": "t_struct(Staker)10_storage"
					},
					"t_struct(Staker)10_storage": {
						"encoding": "inplace",
						"label": "struct StakingPool.Staker",
						"members": [
							{
								"astId": 7,
								"contract": "FinalExam.sol:StakingPool",
								"label": "balance",
								"offset": 0,
								"slot": "0",
								"type": "t_uint256"
							},
							{
								"astId": 9,
								"contract": "FinalExam.sol:StakingPool",
								"label": "lastClaimedTime",
								"offset": 0,
								"slot": "1",
								"type": "t_uint256"
							}
						],
						"numberOfBytes": "64"
					},
					"t_uint256": {
						"encoding": "inplace",
						"label": "uint256",
						"numberOfBytes": "32"
					}
				}
			},
			"userdoc": {
				"kind": "user",
				"methods": {},
				"version": 1
			}
		}
	}
}